:060000000A128A110C280F
:10000800FE00030EF0000A08F1000A128A11D9292D
:100018000A128A110F2883120313B90183010A12E5
:100028008A11D22883120313A400240803191D2857
:100038001E283228FB1F2128222832287809A600EA
:100048007909A7007A09A8007B09A900A60A03195B
:10005800A70A0319A80A0319A90A3A287B08A900BC
:100068007A08A8007908A7007808A6007B087A040F
:1000780079047804031D412842284B280030FB00EE
:100088000030FA000030F9000030F800D12896302E
:10009800FF007F08A5005D280130FF007F08A50745
:1000A80001300310A90CA80CA70CA60CFF3E031DD9
:1000B8005528FE302905031D6228632850287F280B
:1000C8000130FF007F08A5070130A607003003189C
:1000D8000130A707003003180130A80700300318C3
:1000E8000130A90701300310A90CA80CA70CA60C15
:1000F800FF3E031D7728FF302905031D8428852826
:10010800642891280130A5020130A0000310A60D33
:10011800A70DA80DA90DA00B8A28A81B942895281F
:100128009B280230250203189A289B288628251820
:100138009E289F28A728FF30A605FF30A7057F30F7
:10014800A805FF30A9050310A50C2508A000A101EA
:10015800A201A30118300310A00DA10DA20DA30D3B
:10016800FF3E031DAF282008A6042108A704220883
:10017800A8042308A90424080319C328C428C928E3
:10018800FB1FC728C828C928A9172908FB00280861
:10019800FA002708F9002608F80008000A128A1150
:1001A80024210A128A110A128A11EE210A128A11CE
:1001B8000A128A1134220A128A1183120313390887
:1001C800031DE728E828E128B9010A128A11242228
:1001D8000A128A1100300A128A1100220A128A11A0
:1001E800FF007F0883120313B80001300A128A1136
:1001F80000220A128A11FF007F0883120313B50038
:1002080002300A128A1100220A128A11FF007F089E
:1002180083120313B60003300A128A1100220A124D
:100228008A11FF007F0883120313B70038080A12E7
:100238008A115D210A128A11E1280A128A110C28F2
:10024800831603139501831603178601FE30831660
:1002580003138600303090000C301005F2000C308B
:100268007206031D38293929302983160317880196
:10027800FF30831603138500C03088000A128A11E4
:1002880089210A128A11013083160317850001306B
:10029800831203139F006030831603139F009D0190
:1002A800831203179301603093009317183094005A
:1002B800080083120313B0000030F400F500300882
:1002C800AE00AF012E08F2002F08F3000A128A11BF
:1002D800B4210A128A117208F8007308F900003074
:1002E800F91BFF30FA00FB0001300A128A111620B0
:1002F8000A128A117B0883120313AD007A08AC0036
:100308007908AB007808AA000800FF3083160313A9
:100318008700193099001808DF3998001808013843
:1003280098001808FB39980083120313180820381E
:1003380098001808DF399800180804389800180839
:1003480002389800831603131808EF399800180824
:100358002038980083120313180880389800080082
:10036800F601F701721CB929BA29C0297408F607E1
:100378000318F70A7508F70701300310F40DF50D97
:10038800FF3E031DC12901300310F30CF20CFF3EA0
:10039800031DC82972087304031DD329D429B6295B
:1003A8007708F3007608F2000800831203130C1C88
:1003B800DE29DF29E229B901B90A0C100D1EE52949
:1003C800E629E7290D1271088A00700E8300FE0ED7
:1003D8007E0E0900773083120317900083120313EF
:1003E80090119013101310169016101510148316F0
:1003F80003138F130C140800F30073080A128A11F0
:1004080012220A128A110A128A113C220A128A112D
:100418000A128A1144220A128A110800F2001030C6
:1004280072020318182A192A232AF030FF007F08BD
:100438008312031388057208FF007F0888040800E8
:10044800031083120313061C031403182C2A302AE2
:10045800831203130614332A8312031306100800A9
:10046800831203138816EF30FF007F088805080001
:10047800831203139F149F18422A432A3F2A080015
:08048800831203131E08080093
:04400E00F53FFFFF7C
:00000001FF
