:060000000A128A110C280F
:10000800FE00030EF0000A08F1000A128A15892D75
:100018000A128A110F2883160313AC0183010A12EE
:100028008A15CC2E8312031329088039FF007F0814
:10003800B3002908AE002E07FF007F08B900A81FEB
:100048002628272828283914390803192C282D2868
:100058003C28390A031D312832283A280030A900E3
:100068000030A8000030A7000030A600A8174428D8
:100078000030A9000030A8000030A7000030A6001A
:100088002D088039FF007F08B3062D08AE002E0723
:10009800FF007F08B800AC1F522853285428381492
:1000A80038080319582859286828380A031D5D2874
:1000B8005E2866280030AD000030AC000030AB0090
:1000C8000030AA00AC1770280030AD000030AC003A
:1000D8000030AB000030AA003808031974287528CE
:1000E8007A283908031D79287A2883280030A9003E
:1000F8000030A8000030A7000030A600762B2608A4
:10010800FF007F08F2002C080A128A15A2250A129D
:100118008A11730883120313BF007208BE003E08D9
:10012800AE00AF01B001B1013108B7003008B60028
:100138002F08B5002E08B4003F08AE00AF01B0018B
:10014800B1013108BD003008BC002F08BB002E08E3
:10015800BA002708FF007F08F2002B080A128A1548
:10016800A2250A128A11730883120313BF007208AA
:10017800BE003E08AE00AF01B001B1012E08B407C1
:100188002F0803110318013E0319CB28B5073008BF
:1001980003110318013E0319D228B60731080311C9
:1001A8000318013E0319D928B7073F08AE00AF016D
:1001B800B001B1012E08BA072F0803110318013E38
:1001C8000319E728BB07300803110318013E031978
:1001D800EE28BC07310803110318013E0319F5285E
:1001E800BD072808FF007F08F2002A080A128A15AE
:1001F800A2250A128A11730883120313BF0072081A
:10020800BE003E08AE00AF01B001B1012E08B40730
:100218002F0803110318013E03191329B5073008E5
:1002280003110318013E03191A29B60731080311EF
:100238000318013E03192129B7073F08AE00AF0193
:10024800B001B1012E08BA072F0803110318013EA7
:1002580003192F29BB07300803110318013E03199E
:100268003629BC07310803110318013E03193D293B
:10027800BD070830AE000310B40DB50DB60DB70DAF
:10028800AE0B3F292708FF007F08F2002A080A1250
:100298008A15A2250A128A11730883120313BF0054
:1002A8007208BE003E08AE003F08AF00B001B101C1
:1002B8002E08B4072F0803110318013E03196529F6
:1002C800B507300803110318013E03196C29B60756
:1002D800310803110318013E03197329B7072608CB
:1002E800FF007F08F2002B080A128A15A2250A12BD
:1002F8008A11730883120313BF007208BE003E08F8
:10030800AE003F08AF00B001B1012E08B4072F08B6
:1003180003110318013E03199229B5073008031188
:100328000318013E03199929B60731080311031868
:10033800013E0319A029B7070830AE000310B40D19
:10034800B50DB60DB70DAE0BA2292608FF007F0824
:10035800F2002A080A128A15A2250A128A117308BD
:1003680083120313BF007208BE003E08AE003F08A8
:10037800AF00B001B1012E08B4072F08031103180C
:10038800013E0319C829B507300803110318013EB7
:100398000319CF29B607310803110318013E0319C1
:1003A800D629B7072708FF007F08F2002C080A1291
:1003B8008A15A2250A128A11730883120313BF0033
:1003C8007208BE003E08AE003F08AF00B001B101A0
:1003D8002E08BA072F0803110318013E0319F5293F
:1003E800BB07300803110318013E0319FC29BC0799
:1003F800310803110318013E0319032ABD07280811
:10040800FF007F08F2002B080A128A15A2250A129B
:100418008A11730883120313BF007208BE003E08D6
:10042800AE003F08AF00B001B1012E08BA072F088F
:1004380003110318013E0319222ABB0730080311D0
:100448000318013E0319292ABC07310803110318B0
:10045800013E0319302ABD072808FF007F08F20073
:100468002C080A128A15A2250A128A117308831207
:100478000313BF007208BE003E08AE003F08AF007D
:10048800B001B10108300310AE0DAF0DB00DB10DC4
:10049800FF3E031D472A2E08BA072F080311031829
:1004A800013E0319582ABB07300803110318013EFF
:1004B80003195F2ABC07310803110318013E031909
:1004C800662ABD073408AE003508AF003608B0000C
:1004D8003708B10018300310B10CB00CAF0CAE0CDB
:1004E800FF3E031D6F2A2E08BA072F0803110318B1
:1004F800013E0319802ABB07300803110318013E87
:100508000319872ABC07310803110318013E031990
:100518008E2ABD070830AE000310B40DB50DB60D18
:10052800B70DAE0B902A39083807AE00AF01AF0DF2
:100538002E08823EBE002F080318013EFF3EBF0072
:10054800C22A0130AE000310BA0DBB0DBC0DBD0DA3
:10055800AE0BA72AB71FB12AB22AB32A3A14013020
:10056800AE000310B40DB50DB60DB70DAE0BB52A20
:10057800FF30BE070318BF0AFF30BF07BC1FC52ADC
:10058800C62AA52AB801B71FCA2ACB2AE72AFF30EC
:100598003405AE00FF303505AF00FF303605B0003A
:1005A8007F303705B100310830042F042E040319B9
:1005B800DE2ADF2AE22AB801B80AE72A3A1CE52A25
:1005C800E62AE72ADF2A38080319EB2AEC2A1D2B2A
:1005D8000130BA07003003180130BB070030031898
:1005E8000130BC07003003180130BD073D1CFD2A4F
:1005F800FE2A1D2B3A08AE003B08AF003C08B000AD
:100608003D08B1000130B200310DB10CB00CAF0C97
:10061800AE0CB20B082B3108BD003008BC002F0807
:10062800BB002E08BA000130BE070318BF0A00300D
:10063800BF073F08803AFF0080307F02031D262B4A
:10064800FF303E02031C292B2A2B352B7F308312C7
:100658000313BD008030BC000030BB000030BA007E
:100668006A2B831203133F08803AFF0080307F0211
:10067800031D402B01303E020318432B442B502B03
:10068800003083120313BD000030BC000030BB00F3
:100698000030BA00B3016A2B831203133E08FF002F
:1006A8007F08B900FF30BA05FF30BB057F30BC05B5
:1006B8000030BD05391C612B622B632BBC17390830
:1006C800AE0003102E0CFF007F08BD003308FF00AA
:1006D8007F08BD043D08A9003C08A8003B08A70006
:1006E8003A08A600080075088039FF007F088312C1
:1006F8000313A8007508A0002007FF007F08AA00C0
:10070800F41F872B882B892B2A142A0803198D2B71
:100718008E2B9E2B2A0A031D922B932B9B2B00308A
:10072800F5000030F4000030F3000030F200F41758
:10073800F501A62B0030F5000030F4000030F3007E
:100748000030F20079088039FF007F08A9002908E5
:1007580028060319B02BB12BB22B28177908A00053
:100768002007FF007F08A900F81FBB2BBC2BBD2B5F
:10077800291429080319C12BC22BD22B290A031DBE
:10078800C62BC72BCF2B0030F9000030F800003003
:10079800F7000030F600F817F901DA2B0030F900FD
:1007A8000030F8000030F7000030F6002A0829026F
:1007B8000318DF2BE02B242C281FE32BE42BE82B3A
:1007C8008030FF007F08A8062A08FF007F08AB00DA
:1007D8002908FF007F08AA002B08FF007F08A9004E
:1007E8007208FF007F08AB007608FF007F08F20060
:1007F8002B08FF007F08F6007308FF007F08AB0096
:100808007708FF007F08F3002B08FF007F08F70038
:100818007408FF007F08AB007808FF007F08F40029
:100828002B08FF007F08F8007508FF007F08AB0061
:100838007908FF007F08F5002B08FF007F08F90002
:10084800AB012908A000A1012108A3002A08200261
:10085800A200031CA3032308803AFF0080307F0214
:10086800031D382C1A302202031C3B2C3C2C792CFB
:100878007508740473047204031D432C452C01305D
:10088800462C0030FF007F0883120313AB000030B2
:10089800F5000030F4000030F3000030F2002908C1
:1008A800FF007F08AA00812C2B1C5B2C5C2C652C7C
:1008B8002B08A0000310200C0138FF007F08AB00B4
:1008C800672C0310AB0C721C6A2C6B2C6C2CAB17AE
:1008D8000130A000750DF50CF40CF30CF20CA00B14
:1008E8006E2C0130FF007F08AA0783120313290822
:1008F8002A02031C802C812C582C281B842C852C24
:10090800D02C2A08031D892C8A2C932C0030F50042
:100918000030F4000030F3000030F200FE2D7608BD
:10092800F207770803110318013E03199C2CF307FB
:10093800780803110318013E0319A32CF40779085A
:1009480003110318013E0319AA2CF507751CAD2CD9
:10095800AE2C842D2B1CB12CB22CBB2C2B08A00048
:100968000310200C0138FF007F08AB00BD2C0310DA
:10097800AB0C721CC02CC12CC22CAB170130A000D0
:10098800750DF50CF40CF30CF20CA00BC42C013013
:10099800FF007F08AA07842D7508803AFF007908B0
:1009A800803A7F02031DE22C78087402031DE22CB2
:1009B80077087302031DE22C760872020318E52CEF
:1009C800E62C3E2DFF30A000FF30A100FF30A20032
:1009D800FF30A3007608A4007708A5007808A600D1
:1009E8007908A7007208A4027308031C730FFD2C72
:1009F800FE2CA5027408031C740F032D042DA602F7
:100A08007508031C750F092D0A2DA7022408A007D5
:100A180025080318250F112D122DA10726080318E4
:100A2800260F172D182DA20727080318270AA30732
:100A38002308F5002208F4002108F3002008F2003A
:100A48008030FF007F08A806AB09AB0A2B08031DFE
:100A58002E2D2F2D4C2D0130F207003003180130B8
:100A6800F307003003180130F40700300318013091
:100A7800F5074C2D7608F2027708031C770FF3026E
:100A88007808031C780FF4027908031C790FF50223
:100A98007508740473047204031D532D542D802D9E
:100AA8002B08031D582D592D802D0030F5000030DE
:100AB800F4000030F3000030F200FE2D0130A000F9
:100AC8000310F20DF30DF40DF50DA00B642DAB1F03
:100AD8006E2D6F2D702D72142B1C732D742D772D88
:100AE8000314AB0D792D0310AB0D2A0803197D2DC6
:100AF8007E2D802D0130AA02F41F832D842D622DB6
:100B0800A901AB1F882D892D972D2B087F39031933
:100B18008E2D8F2D922DA901A90A972D721C952D26
:100B2800962D972D8F2D290803199B2D9C2DD02D9F
:100B38000130F207003003180130F30700300318C2
:100B48000130F407003003180130F507751CAD2D8E
:100B5800AE2DD02D7208A0007308A1007408A20061
:100B68007508A3000130A400230DA30CA20CA10C4E
:100B7800A00CA40BB82D2308F5002208F4002108C6
:100B8800F3002008F2002A0A0319CB2DCC2DD02D12
:100B98000130FF007F08AA072A0A0319D42DD52D92
:100BA800DA2D2A08031DD92DDA2DE82D0030F5009D
:100BB8000030F4000030F3000030F2002A08031D72
:100BC800E62DE72DE82DA8012A1CEB2DEC2DEE2DA6
:100BD800F417F22D7F30FF007F08F4052A08A000E3
:100BE8000310200CFF007F08F500A81FFC2DFD2D29
:100BF800FE2DF5170800831203134F088039FF00F4
:100C08007F08D9004F08D0005007FF007F08E00098
:100C1800CE1F0F2E102E112E601460080319152EEA
:100C2800162E262E600A031D1A2E1B2E232E003088
:100C3800CF000030CE000030CD000030CC00CE1701
:100C4800CF012E2E0030CF000030CE000030CD0076
:100C58000030CC004B088039FF007F08D9064B08CC
:100C6800D0005007FF007F08E100CA1F3C2E3D2E30
:100C78003E2E611461080319422E432E532E610A39
:100C8800031D472E482E502E0030CB000030CA00DE
:100C98000030C9000030C800CA17CB015B2E0030F5
:100CA800CB000030CA000030C9000030C8004B0833
:100CB8004A0449044804031D622E632E7C2E00302A
:100CC800CF000030CE000030CD000030CC008030A6
:100CD800CE047F30CF045908FF007F08CF044F08A7
:100CE800CB004E08CA004D08C9004C08C800DB2FCD
:100CF8006008031D802E812E8A2E0030CB00003024
:100D0800CA000030C9000030C800DB2F6008D000DE
:100D1800D1015108D30061085002D200031CD3034B
:100D280052087F3EDA0053080318013E003EDB00FC
:100D38004F08D8004E08D7004D08D6004C08D500FB
:100D48000030CF000030CE000030CD000030CC00A5
:100D58000030DF000030DE000030DD000030DC0055
:100D6800E101002F61080319BA2EBB2EDB2E0130DA
:100D7800D0000310D50DD60DD70DD80DD00BBD2E34
:100D88000130D0000310CC0DCD0DCE0DCF0DD00B02
:100D9800C62EDF1FD02ED12ED22E4C140130D000FB
:100DA8000310DC0DDD0DDE0DDF0DD00BD42E4B084E
:100DB8005802031DE92E4A085702031DE92E490867
:100DC8005602031DE92E48085502031CEC2EED2E91
:100DD800FC2E5F174808D5024908031C490FD602A4
:100DE8004A08031C4A0FD7024B08031C4B0FD802B2
:100DF8000130FF007F08E1071A306102031C052F4C
:100E0800062FB62E580857045604550403190D2FFB
:100E18000E2F2D2F5C142D2F0130D0000310CC0D78
:100E2800CD0DCE0DCF0DD00B122FDF1F1C2F1D2F78
:100E38001E2F4C140130D0000310DC0DDD0DDE0D2B
:100E4800DF0DD00B202FFF30DA070318DB0AFF3045
:100E5800DB07CE1F302F312F102FE101DF1F352F79
:100E6800362F522FFF305C05D000FF305D05D100D2
:100E7800FF305E05D2007F305F05D300530852046F
:100E8800510450040319492F4A2F4D2FE101E10A5B
:100E9800522F4C1C502F512F522F4A2F61080319E3
:100EA800562F572F882F0130CC07003003180130F8
:100EB800CD07003003180130CE0700300318013089
:100EC800CF074F1C682F692F882F4C08D0004D087A
:100ED800D1004E08D2004F08D3000130D400530D82
:100EE800D30CD20CD10CD00CD40B732F5308CF00D9
:100EF8005208CE005108CD005008CC000130DA0766
:100F08000318DB0A0030DB075B08803AFF008030FB
:100F18007F02031D912FFF305A02031C942F952F37
:100F2800A32FFF3083120313DA000030DB000030F8
:100F3800CF000030CE000030CD000030CC0083124E
:100F480003135B08803AFF0080307F02031DAE2F39
:100F580001305A020318B12FB22FBF2F8312031387
:100F6800DA01DB010030CF000030CE000030CD00C8
:100F78000030CC00D901831203135A08FF007F0800
:100F8800E000601CC82FC92FCB2FCE17CF2F7F3082
:100F9800FF007F08CE056008D0000310500CFF004A
:100FA8007F08CF005908FF007F08CF04732E080080
:100FB800803083120313C3064708F5004608F4007F
:100FC8004508F3004408F2004308F9004208F80015
:100FD8004108F7004008F6000A128A1177230A121E
:100FE8008A11750883120313C3007408C2007308BA
:080FF800C1007208C0000800EE
:101A5E00831203131E080800831203139F149F188A
:101A6E00392D3A2D362D0800831203138816EF30C8
:101A7E00FF007F0888050800031083120313061C5D
:101A8E00031403184B2D4F2D831203130614522DDE
:101A9E008312031306100800F200103072020318AE
:101AAE00592D5A2D642DF030FF007F088312031339
:101ABE0088057208FF007F0888040800F300730889
:101ACE000A128A1553250A128A150A128A15332507
:101ADE000A128A150A128A152F250A128A1508006B
:101AEE007730831203179000831203139011901313
:101AFE0010131016901610151014831603138F134F
:101B0E000C140800831203130C1C8E2D8F2D962D92
:101B1E0083160313AC01AC0A831203130C100D1EB3
:101B2E00992D9A2D9B2D0D1271088A00700E83002F
:101B3E00FE0E7E0E0900FA00F601F7017208F4009F
:101B4E00F5017408F8007508F9007A1CAF2DB02D58
:101B5E00B62D7808F6070318F70A7908F70701304B
:101B6E000310F80DF90DFF3E031DB72D0310FA0CEF
:101B7E007A08031DC32DC42DAC2D7708F30076080B
:101B8E00F2000800FF308316031387001930990006
:101B9E001808DF3998001808013898001808FB3922
:101BAE009800831203131808203898001808DF399C
:101BBE009800180804389800180802389800831600
:101BCE0003131808EF39980018082038980083126C
:101BDE000313180880389800080083160313950124
:101BEE00831603178601FE308316031386003030EA
:101BFE0090000C301005F2000C307206031D082EFA
:101C0E00092E002E831603178801FF308316031347
:101C1E008500C03088000A128A15C9250A128A1555
:101C2E0001308316031785000130831203139F00C2
:101C3E006030831603139F009D01831203179301D7
:101C4E00603093009317183094000800FB00433067
:101C5E0083120313CB007F30CA000030C90000305E
:101C6E00C8004030A900A030A8000030A700003006
:101C7E00A6007B08E600E701E801E9016908F50026
:101C8E006808F4006708F3006608F20000300A12D4
:101C9E008A1544270A128A15750883120313AD009C
:101CAE007408AC007308AB007208AA000A128A11FD
:101CBE0016200A128A15831203132908CF0028084A
:101CCE00CE002708CD002608CC000A128A11FF2567
:101CDE000A128A15831203134B08E5004A08E40022
:101CEE004908E3004808E20008004030831203135D
:101CFE00A9000030A8000030A7000030A60065083B
:101D0E00AD006408AC006308AB006208AA000A12BA
:101D1E008A1116200A128A15831203132908C3008A
:101D2E002808C2002708C1002608C0004030C7009E
:101D3E00A030C6000030C5000030C4000A128A115F
:101D4E00DC270A128A15831203134308CB004208BC
:101D5E00CA004108C9004008C8004630CF00B7305D
:101D6E00CE009830CD000030CC000A128A11FF252B
:101D7E000A128A15831203134B08E5004A08E40081
:101D8E004908E3004808E20008000A128A15F42503
:101D9E000A128A150A128A1577250A128A150A124C
:101DAE008A153B250A128A15831603132C08031D68
:101DBE00E12EE22EDB2EAC010A128A1543250A1201
:101DCE008A1500300A128A1565250A128A15FF0037
:101DDE007F0883160313AB0001300A128A1565259E
:101DEE000A128A1502300A128A1565250A128A15F8
:101DFE0003300A128A1565250A128A1583160313F3
:101E0E002B080A128A152D260A128A15831203131D
:101E1E00650883160313AA0083120313640883163E
:101E2E000313A90083120313630883160313A80078
:101E3E0083120313620883160313A7002A08831262
:101E4E000313E50083160313290883120313E4001A
:101E5E0083160313280883120313E3008316031358
:101E6E00270883120313E2000A128A157C260A122F
:101E7E008A15DB2E0A128A110C2883120313A00076
:101E8E00200803194B2F4C2F602FF51F4F2F502F6B
:101E9E00602F7209A2007309A3007409A4007509CA
:101EAE00A500A20A0319A30A0319A40A0319A50A75
:101EBE00682F7508A5007408A4007308A3007208A3
:101ECE00A2007508740473047204031D6F2F702F23
:101EDE00792F0030F5000030F4000030F3000030B0
:101EEE00F200FF2F9630FF007F08A1008B2F0130EC
:101EFE00FF007F08A10701300310A50CA40CA30C52
:101F0E00A20CFF3E031D832FFE302505031D902FCF
:101F1E00912F7E2FAD2F0130FF007F08A1070130DA
:101F2E00A207003003180130A30700300318013058
:101F3E00A407003003180130A50701300310A50CCB
:101F4E00A40CA30CA20CFF3E031DA52FFF302505EC
:101F5E00031DB22FB32F922FBF2F0130A1020130DC
:101F6E00F6000310A20DA30DA40DA50DF60BB82FB0
:101F7E00A41BC22FC32FC92F023021020318C82F52
:101F8E00C92FB42F2118CC2FCD2FD52FFF30A2055E
:101F9E00FF30A3057F30A405FF30A5050310A10C6B
:101FAE002108F600F701F801F90118300310F60DBB
:101FBE00F70DF80DF90DFF3E031DDD2F7608A20477
:101FCE007708A3047808A4047908A5042008031947
:101FDE00F12FF22FF72FF51FF52FF62FF72FA5174D
:101FEE002508F5002408F4002308F3002208F20067
:021FFE000800D9
:04400E00F53FFFFF7C
:00000001FF
