:060000000A128A110C280F
:10000800FE00030EF0000A08F1000A128A11B62851
:100018000A128A110F28F60183010A128A119D28F3
:10002800831603139501831603178601FE30831682
:1000380003138600303090000C301005F2000C30AD
:100048007206031D282829282028831603178801EB
:10005800FF30831603138500F03088000A128A11D6
:100068004D200A128A1101308316031785000130CA
:10007800831203139F006230831603139F009D01B0
:10008800831203179301603093009317183094007C
:100098000800FF30831603138700333099001808CF
:1000A800DF399800180801389800180804389800B3
:1000B800831203131808203898001808DF399800AD
:1000C8001808043898001808023898008316031393
:1000D8001808EF399800180820389800831203137D
:1000E8001808803898000800F500F301F4018F28FB
:1000F8007308750784000A128A11CB200A128A1124
:100108000A128A1100210A128A110130F307031812
:10011800F40A0030F4077308750784000A128A117C
:10012800CB200A128A11003A031D9B289C287C28A0
:1001380008000A128A1114200A128A110A128A1156
:10014800DE200A128A110A128A11F0200A128A1174
:1001580001300A128A1178200A128A11A7280A1275
:100168008A110C28831203130C1CBB28BC28BF2837
:10017800F601F60A0C100D1EC228C328C4280D1259
:1001880071088A00700E8300FE0E7E0E0900003092
:100198008A000408840A82070034483465346C34C1
:1001A8006C346F34203457346F3472346C346434A4
:1001B8000A34003477308312031790008312031334
:1001C8009011901310131016901610151014831612
:1001D80003138F130C140800031083120313061C57
:1001E80003140318F828FC28831203130614FF28A5
:1001F8008312031306100800F20083160313981CD9
:100208000629072901297208831203139900080097
:04400E00F53FFFFF7C
:00000001FF
