:060000000A128A110C280F
:10000800FE00030EF0000A08F1000A128A11B02A55
:100018000A128A110F2883120313EB0183010A12B3
:100028008A11002983120313B5002530FF007F08C9
:10003800B000E9282530360603192328242830285B
:100048003608FF00350884007F08831380000130DC
:10005800FF007F08B507E928B1010130A407FF3088
:10006800240784000A128A1137220A128A11B6005C
:10007800AD00AE012E08003A03194328E9282D08DF
:10008800003A0319FB28643A03194E280D3A03195C
:100098004E28E9283008840083130008B300840A36
:1000A8000008B4000230FF007F08B007B41F5D28C5
:1000B8005E2867280330FF007F08B104B309B4093C
:1000C800B30A0319B40AB601B60A3608AD002D07FB
:1000D800013E84000A128A1137220A128A11AE00E0
:1000E8000A128A1137220A128A11AF002F08340225
:1000F800031D80282E0833020318832884288528A6
:100108008F280130FF007F08B60705303606031D2B
:100118008E288F28692831080339031994289528CF
:10012800A0282D30FF00350884007F088313800045
:100138000130FF007F08B5073608FF007F08B200CE
:10014800E0280A30A0000030A1003208AD002D07D9
:10015800013E84000A128A1137220A128A11F2001B
:100168000A128A1137220A128A11F3003408F5009C
:100178003308F4000A128A117E210A128A117308C0
:1001880083120313A3007208A2000A128A11C22163
:100198000A128A11831203132008303EFF007F08D9
:1001A800B6003608FF00350884007F0883138000F6
:1001B8000130FF007F08B507FF30FF007F08B20756
:1001C800320A031DE828E928A5280130A407FF30D2
:1001D800240784000A128A1137220A128A11FF00A2
:1001E8007F08B6003608031DFA28FB281E283508A4
:1001F80084008313800108000A128A11FE210A1262
:100208008A110A128A11D9220A128A118312031337
:100218006B08031D102911290A29EB010A128A11FA
:10022800EB220A128A110030F400F5000A128A1132
:10023800C5220A128A11FF007F0883120313E70000
:100248000130F4000030F5000A128A11C5220A12A2
:100258008A11FF007F0883120313E8000230F400BC
:100268000030F5000A128A11C5220A128A11FF000D
:100278007F0883120313E9000330F4000030F5000F
:100288000A128A11C5220A128A11FF007F088312F6
:100298000313EA000B30FF007F08A4006708B700CB
:1002A800B8013708A5003808A6006808B900BA01DF
:1002B8003908A7003A08A8006908BB00BC013B0838
:1002C800A9003C08AA006A08BD00BE013D08AB00B1
:1002D8003E08AC003F300A128A1116200A128A1111
:1002E8003F300A128A118F220A128A110A290A1229
:1002F8008A110C28F601F70172087304031985297D
:100308008629BD29F801F80A942901300310F20D55
:10031800F30DFF3E031D8A290130FF007F08F8070F
:10032800F31F97299829892901300310F60DF70D35
:10033800FF3E031D992973087502031DA52972083C
:100348007402031CA829A929B0297208F4027308A9
:10035800031CF503F502761401300310F30CF20CBC
:10036800FF3E031DB1290130F802031DBC29BD2938
:1003780098297708F3007608F2000800831203131F
:10038800200821040319C929CA29F929F901F90AF8
:10039800D82901300310A00DA10DFF3E031DCE2961
:1003A8000130FF007F08F907A11FDB29DC29CD29CF
:1003B80021082302031DE22920082202031CE52943
:1003C800E629EC292008A2022108031CA303A302A2
:1003D80001300310A10CA00CFF3E031DED290130D4
:1003E800F902031DF829F929DC292308A1002208AC
:1003F800A0000800831603139501831603178601CE
:10040800FE30831603138600303090000C30100540
:10041800F2000C307206031D122A132A0A2A8316C8
:1004280003178801FF30831603138500F030880016
:100438000A128A1164220A128A11013083160317DC
:1004480085000130831203139F0062308316031363
:100458009F009D0183120317930160309300931747
:1004680018309400080002308A000408840A8207C1
:100478000034013400340A34003464340034E8347D
:10048800033410342734763461346C34653475346D
:1004980072342034433461347034743465347534C0
:1004A80072342034253464342034253464342034C0
:1004B8002534643420342534643420340A34003438
:1004C800FF30831603138700333099001808DF398B
:1004D8009800180801389800180804389800831202
:1004E80003131808203898001808DF3998001808EE
:1004F800043898001808023898008316031318085F
:10050800EF39980018082038980083120313180848
:10051800803898000800F600F401F501A42A740850
:100528007607F3007308840000080A128A11FB2278
:100538000A128A110130F4070318F50A0030F5078A
:1005480074087607F3007308840083130008031DFA
:10055800AE2AAF2A932A0800831203130C1CB52A6B
:10056800B62AB92AEB01EB0A0C100D1EBC2ABD2ACB
:10057800BE2A0D1271088A00700E8300FE0E7E0ED0
:1005880009007508F3007408F2000A128A110F2393
:100598000A128A110A128A1107230A128A110A12E8
:1005A8008A1114230A128A1108007730831203175C
:1005B80090008312031390119013101310169016C5
:1005C80010151014831603138F130C14080003104E
:1005D80083120313061C03140318F32AF72A831241
:1005E80003130614FA2A8312031306100800F200F4
:1005F80083160313981C012B022BFC2A7208831202
:10060800031399000800831203139F149F180D2BDE
:100618000E2B0A2B080072088312031388000800A7
:08062800831203131E080800F1
:04400E00F53FFFFF7C
:00000001FF
