:060000000A128A110C280F
:10000800FE00030EF0000A08F1000A128A11202FE0
:100018000A128A110F2883120313E70183010A12B7
:100028008A11982E8312031329088039FF007F084C
:10003800B3002908AE002E07FF007F08B900A81FEB
:100048002628272828283914390803192C282D2868
:100058003C28390A031D312832283A280030A900E3
:100068000030A8000030A7000030A600A8174428D8
:100078000030A9000030A8000030A7000030A6001A
:100088002D088039FF007F08B3062D08AE002E0723
:10009800FF007F08B800AC1F522853285428381492
:1000A80038080319582859286828380A031D5D2874
:1000B8005E2866280030AD000030AC000030AB0090
:1000C8000030AA00AC1770280030AD000030AC003A
:1000D8000030AB000030AA003808031974287528CE
:1000E8007A283908031D79287A2883280030A9003E
:1000F8000030A8000030A7000030A600762B2608A4
:10010800FF007F08F2002C080A128A11F9260A1249
:100118008A11730883120313BF007208BE003E08D9
:10012800AE00AF01B001B1013108B7003008B60028
:100138002F08B5002E08B4003F08AE00AF01B0018B
:10014800B1013108BD003008BC002F08BB002E08E3
:10015800BA002708FF007F08F2002B080A128A114C
:10016800F9260A128A11730883120313BF00720852
:10017800BE003E08AE00AF01B001B1012E08B407C1
:100188002F0803110318013E0319CB28B5073008BF
:1001980003110318013E0319D228B60731080311C9
:1001A8000318013E0319D928B7073F08AE00AF016D
:1001B800B001B1012E08BA072F0803110318013E38
:1001C8000319E728BB07300803110318013E031978
:1001D800EE28BC07310803110318013E0319F5285E
:1001E800BD072808FF007F08F2002A080A128A11B2
:1001F800F9260A128A11730883120313BF007208C2
:10020800BE003E08AE00AF01B001B1012E08B40730
:100218002F0803110318013E03191329B5073008E5
:1002280003110318013E03191A29B60731080311EF
:100238000318013E03192129B7073F08AE00AF0193
:10024800B001B1012E08BA072F0803110318013EA7
:1002580003192F29BB07300803110318013E03199E
:100268003629BC07310803110318013E03193D293B
:10027800BD070830AE000310B40DB50DB60DB70DAF
:10028800AE0B3F292708FF007F08F2002A080A1250
:100298008A11F9260A128A11730883120313BF0000
:1002A8007208BE003E08AE003F08AF00B001B101C1
:1002B8002E08B4072F0803110318013E03196529F6
:1002C800B507300803110318013E03196C29B60756
:1002D800310803110318013E03197329B7072608CB
:1002E800FF007F08F2002B080A128A11F9260A1269
:1002F8008A11730883120313BF007208BE003E08F8
:10030800AE003F08AF00B001B1012E08B4072F08B6
:1003180003110318013E03199229B5073008031188
:100328000318013E03199929B60731080311031868
:10033800013E0319A029B7070830AE000310B40D19
:10034800B50DB60DB70DAE0BA2292608FF007F0824
:10035800F2002A080A128A11F9260A128A11730869
:1003680083120313BF007208BE003E08AE003F08A8
:10037800AF00B001B1012E08B4072F08031103180C
:10038800013E0319C829B507300803110318013EB7
:100398000319CF29B607310803110318013E0319C1
:1003A800D629B7072708FF007F08F2002C080A1291
:1003B8008A11F9260A128A11730883120313BF00DF
:1003C8007208BE003E08AE003F08AF00B001B101A0
:1003D8002E08BA072F0803110318013E0319F5293F
:1003E800BB07300803110318013E0319FC29BC0799
:1003F800310803110318013E0319032ABD07280811
:10040800FF007F08F2002B080A128A11F9260A1247
:100418008A11730883120313BF007208BE003E08D6
:10042800AE003F08AF00B001B1012E08BA072F088F
:1004380003110318013E0319222ABB0730080311D0
:100448000318013E0319292ABC07310803110318B0
:10045800013E0319302ABD072808FF007F08F20073
:100468002C080A128A11F9260A128A1173088312B3
:100478000313BF007208BE003E08AE003F08AF007D
:10048800B001B10108300310AE0DAF0DB00DB10DC4
:10049800FF3E031D472A2E08BA072F080311031829
:1004A800013E0319582ABB07300803110318013EFF
:1004B80003195F2ABC07310803110318013E031909
:1004C800662ABD073408AE003508AF003608B0000C
:1004D8003708B10018300310B10CB00CAF0CAE0CDB
:1004E800FF3E031D6F2A2E08BA072F0803110318B1
:1004F800013E0319802ABB07300803110318013E87
:100508000319872ABC07310803110318013E031990
:100518008E2ABD070830AE000310B40DB50DB60D18
:10052800B70DAE0B902A39083807AE00AF01AF0DF2
:100538002E08823EBE002F080318013EFF3EBF0072
:10054800C22A0130AE000310BA0DBB0DBC0DBD0DA3
:10055800AE0BA72AB71FB12AB22AB32A3A14013020
:10056800AE000310B40DB50DB60DB70DAE0BB52A20
:10057800FF30BE070318BF0AFF30BF07BC1FC52ADC
:10058800C62AA52AB801B71FCA2ACB2AE72AFF30EC
:100598003405AE00FF303505AF00FF303605B0003A
:1005A8007F303705B100310830042F042E040319B9
:1005B800DE2ADF2AE22AB801B80AE72A3A1CE52A25
:1005C800E62AE72ADF2A38080319EB2AEC2A1D2B2A
:1005D8000130BA07003003180130BB070030031898
:1005E8000130BC07003003180130BD073D1CFD2A4F
:1005F800FE2A1D2B3A08AE003B08AF003C08B000AD
:100608003D08B1000130B200310DB10CB00CAF0C97
:10061800AE0CB20B082B3108BD003008BC002F0807
:10062800BB002E08BA000130BE070318BF0A00300D
:10063800BF073F08803AFF0080307F02031D262B4A
:10064800FF303E02031C292B2A2B352B7F308312C7
:100658000313BD008030BC000030BB000030BA007E
:100668006A2B831203133F08803AFF0080307F0211
:10067800031D402B01303E020318432B442B502B03
:10068800003083120313BD000030BC000030BB00F3
:100698000030BA00B3016A2B831203133E08FF002F
:1006A8007F08B900FF30BA05FF30BB057F30BC05B5
:1006B8000030BD05391C612B622B632BBC17390830
:1006C800AE0003102E0CFF007F08BD003308FF00AA
:1006D8007F08BD043D08A9003C08A8003B08A70006
:1006E8003A08A60008008312031347088039FF0060
:1006F8007F08D1004708C8004807FF007F08D800D6
:10070800C61F872B882B892B5814580803198D2B43
:100718008E2B9E2B580A031D922B932B9B2B00305C
:10072800C7000030C6000030C5000030C400C6173E
:10073800C701A62B0030C7000030C6000030C50036
:100748000030C40043088039FF007F08D106430801
:10075800C8004807FF007F08D900C21FB42BB52B7B
:10076800B62B591459080319BA2BBB2BCB2B590A92
:10077800031DBF2BC02BC82B0030C3000030C200A4
:100788000030C1000030C000C217C301D32B0030B5
:10079800C3000030C2000030C1000030C000430870
:1007A800420441044004031DDA2BDB2BF42B0030F8
:1007B800C7000030C6000030C5000030C4008030DB
:1007C800C6047F30C7045108FF007F08C7044708E4
:1007D800C3004608C2004508C1004408C000532DA4
:1007E8005808031DF82BF92B022C0030C3000030E9
:1007F800C2000030C1000030C000532D5808C800A6
:10080800C9014908CB0059084802CA00031CCB0398
:100818004A087F3ED2004B080318013E003ED30031
:100828004708D0004608CF004508CE004408CD0050
:100838000030C7000030C6000030C5000030C400DA
:100848000030D7000030D6000030D5000030D4008A
:10085800D901782C59080319322C332C532C013028
:10086800C8000310CD0DCE0DCF0DD00DC80B352C03
:100878000130C8000310C40DC50DC60DC70DC80B47
:100888003E2CD71F482C492C4A2C44140130C80050
:100898000310D40DD50DD60DD70DC80B4C2C43081D
:1008A8005002031D612C42084F02031D612C4108B0
:1008B8004E02031D612C40084D02031C642C652C5C
:1008C800742C57174008CD024108031C410FCE0273
:1008D8004208031C420FCF024308031C430FD002F7
:1008E8000130FF007F08D9071A305902031C7D2CFC
:1008F8007E2C2E2C50084F044E044D040319852CD1
:10090800862CA52C5414A52C0130C8000310C40D46
:10091800C50DC60DC70DC80B8A2CD71F942C952C56
:10092800962C44140130C8000310D40DD50DD60DF3
:10093800D70DC80B982CFF30D2070318D30AFF3005
:10094800D307C61FA82CA92C882CD901D71FAD2CDA
:10095800AE2CCA2CFF305405C800FF305505C9001D
:10096800FF305605CA007F305705CB004B084A04B4
:10097800490448040319C12CC22CC52CD901D90A31
:10098800CA2C441CC82CC92CCA2CC22C59080319BF
:10099800CE2CCF2C002D0130C407003003180130B5
:1009A800C507003003180130C607003003180130AE
:1009B800C707471CE02CE12C002D4408C800450857
:1009C800C9004608CA004708CB000130CC004B0DCF
:1009D800CB0CCA0CC90CC80CCC0BEB2C4B08C700B1
:1009E8004A08C6004908C5004808C4000130D207B3
:1009F8000318D30A0030D3075308803AFF00803029
:100A08007F02031D092DFF305202031C0C2D0D2DF2
:100A18001B2DFF3083120313D2000030D3000030A7
:100A2800C7000030C6000030C5000030C400831283
:100A380003135308803AFF0080307F02031D262DE0
:100A4800013052020318292D2A2D372D8312031342
:100A5800D201D3010030C7000030C6000030C50005
:100A68000030C400D101831203135208FF007F082D
:100A7800D800581C402D412D432DC617472D7F30D7
:100A8800FF007F08C6055808C8000310480CFF007F
:100A98007F08C7005108FF007F08C704EB2B080038
:100AA80083120313A000200803195B2D5C2D702D01
:100AB800F51F5F2D602D702D7209A2007309A30028
:100AC8007409A4007509A500A20A0319A30A031949
:100AD800A40A0319A50A782D7508A5007408A400AE
:100AE8007308A3007208A2007508740473047204E2
:100AF800031D7F2D802D892D0030F5000030F40076
:100B08000030F3000030F2000F2E9630FF007F080F
:100B1800A1009B2D0130FF007F08A10701300310C1
:100B2800A50CA40CA30CA20CFF3E031D932DFE30B4
:100B38002505031DA02DA12D8E2DBD2D0130FF00F3
:100B48007F08A1070130A207003003180130A3076E
:100B5800003003180130A407003003180130A5073E
:100B680001300310A50CA40CA30CA20CFF3E031D1E
:100B7800B52DFF302505031DC22DC32DA22DCF2D68
:100B88000130A1020130F6000310A20DA30DA40D3F
:100B9800A50DF60BC82DA41BD22DD32DD92D0230AF
:100BA80021020318D82DD92DC42D2118DC2DDD2DB7
:100BB800E52DFF30A205FF30A3057F30A405FF30E7
:100BC800A5050310A10C2108F600F701F801F901A9
:100BD80018300310F60DF70DF80DF90DFF3E031D43
:100BE800ED2D7608A2047708A3047808A4047908F0
:100BF800A50420080319012E022E072EF51F052E25
:100C0800062E072EA5172508F5002408F40023084A
:100C1800F3002208F2000800FB004330831203139C
:100C2800C3007F30C2000030C1000030C000403037
:100C3800A900A030A8000030A7000030A6007B085B
:100C4800DE00DF01E001E1016108F5006008F40061
:100C58005F08F3005E08F20000300A128A1154257A
:100C68000A128A11750883120313AD007408AC00C8
:100C78007308AB007208AA000A128A1116200A1219
:100C88008A11831203132908C7002808C6002708F9
:100C9800C5002608C4000A128A1177230A128A118D
:100CA800831203134308DD004208DC004108DB001F
:100CB8004008DA000800831603139501831603170A
:100CC8008601FE30831603138600303090000C3006
:100CD8001005F2000C307206031D732E742E6B2E55
:100CE800831603178801FF30831603138500C0306D
:100CF80088000A128A11CE260A128A110130831638
:100D0800031785000130831203139F006030831698
:100D180003139F009D018312031793016030930012
:100D280093171830940008000A128A115F260A12D5
:100D38008A110A128A1135270A128A110A128A118F
:100D48007B270A128A110A128A118B270A128A1122
:100D5800831203136708031DB22EB32EAC2EE701CE
:100D68000A128A116B270A128A1100300A128A1194
:100D780047270A128A11FF007F0883120313E6002F
:100D880066080A128A1110260A128A11AC2E0A1253
:100D98008A110C28FF308316031387001930990035
:100DA8001808DF3998001808013898001808FB3926
:100DB8009800831203131808203898001808DF39A0
:100DC8009800180804389800180802389800831604
:100DD80003131808EF399800180820389800831270
:100DE80003131808803898000800FA00F601F70184
:100DF8007208F400F5017408F8007508F9007A1C07
:100E0800062F072F0D2F7808F6070318F70A790819
:100E1800F70701300310F80DF90DFF3E031D0E2FE3
:100E28000310FA0C7A08031D1A2F1B2F032F7708BB
:100E3800F3007608F2000800831203130C1C252F18
:100E4800262F292FE701E70A0C100D1E2C2F2D2F16
:100E58002E2F0D1271088A00700E8300FE0E7E0E72
:100E6800090077308312031790008312031390113F
:100E780090131013101690161015101483160313E0
:100E88008F130C140800F30073080A128A115927EB
:100E98000A128A110A128A1183270A128A110A125F
:100EA8008A1190270A128A110800F2001030720283
:100EB80003185F2F602F6A2FF030FF007F0883121E
:100EC800031388057208FF007F08880408000310D0
:100ED80083120313061C03140318732F772F83122E
:100EE800031306147A2F83120313061008008312C3
:100EF80003130816DF30FF007F08880508008312F7
:100F080003139F149F18892F8A2F862F0800831296
:100F18000313071087140800831203131E08080020
:04400E00F53FFFFF7C
:00000001FF
