:060000000A128A110C280F
:10000800FE00030EF0000A08F1000A128A11702897
:100018000A128A110F28F30183010A128A1185280E
:10002800831603139501831603178601FE30831682
:1000380003138600303090000C301005F2000C30AD
:100048007206031D282829282028831603178801EB
:10005800FF30831603138500FF308700F0308800D7
:10006800103099001808DF399800180801389800EE
:1000780018080438980083120313180820389800C9
:100088001808DF399800180804389800180802384A
:100098009800831603131808EF39980018082038B9
:1000A80098008312031318088038980001308316CB
:1000B800031785000130831203139F0062308316F3
:1000C80003139F009D01831203179301603093006F
:1000D8009317183094000800831203130C1C75281A
:1000E80076287928F301F30A0C100D1E7C287D2848
:1000F8007E280D1271088A00700E8300FE0E7E0E97
:1001080009000A128A1114200A128A110A128A1185
:1001180098200A128A110A128A11AA200A128A1130
:100128008F280A128A110C2877308312031790003F
:1001380083120313901190131013101690161015B4
:100148001014831603138F130C1408000310831262
:100158000313061C03140318B228B62883120313CA
:0C0168000614B9288312031306100800C7
:04400E00F53FFFFF7C
:00000001FF
