:060000000A128A110C280F
:10000800FE00030EF0000A08F1000A168A159B2A62
:100018000A128A110F2883160313D90183010A16BD
:100028008A110328293084000A168A1500200A122A
:100038008A1183160313AD000A168A1500200A12C6
:100048008A11AE000A168A1500200A128A11AF001A
:100058000A168A1500200A128A11B0003008F50025
:100068002F08F4002E08F3002D08F2008312031362
:100078006C08F9006B08F8006A08F7006908F600D0
:100088000A168A1546250A128A11031C4C284D287F
:100098008B28253084000A168A1500200A128A1136
:1000A80083160313AD000A168A1500200A128A1156
:1000B800AE000A168A1500200A128A11AF000A1625
:1000C8008A1500200A128A11B0003008F5002F089E
:1000D800F4002E08F3002D08F200831203136C08B5
:1000E800F9006B08F8006A08F7006908F6000A16B4
:1000F8008A1546250A128A110318832884288B2812
:10010800093083160313CE000030CF00AE2C2D30FB
:1001180084000A168A1500200A128A11831603130E
:10012800AD000A168A1500200A128A11AE000A16B6
:100138008A1500200A128A11AF000A168A150020B3
:100148000A128A11B0003008F5002F08F4002E08B2
:10015800F3002D08F200831203136C08F9006B08F2
:10016800F8006A08F7006908F6000A168A15462595
:100178000A128A11031CC128C228002929308400C8
:100188000A168A1500200A128A1183160313AD0075
:100198000A168A1500200A128A11AE000A168A1554
:1001A80000200A128A11AF000A168A1500200A12C6
:1001B8008A11B0003008F5002F08F4002E08F3006B
:1001C8002D08F200831203136C08F9006B08F8007D
:1001D8006A08F7006908F6000A168A1546250A1201
:1001E8008A110318F828F92800290A3083160313FE
:1001F800CE000030CF00AE2C313084000A168A15AC
:1002080000200A128A1183160313AD000A168A15F4
:1002180000200A128A11AE000A168A1500200A1256
:100228008A11AF000A168A1500200A128A11B00036
:100238003008F5002F08F4002E08F3002D08F2000E
:10024800831203136C08F9006B08F8006A08F700BA
:100258006908F6000A168A1546250A128A11031C2F
:100268003629372975292D3084000A168A15002069
:100278000A128A1183160313AD000A168A15002084
:100288000A128A11AE000A168A1500200A128A116B
:10029800AF000A168A1500200A128A11B000300829
:1002A800F5002F08F4002E08F3002D08F200831241
:1002B80003136C08F9006B08F8006A08F70069086E
:1002C800F6000A168A1546250A128A1103186D299E
:1002D8006E2975290B3083160313CE000030CF002A
:1002E800AE2C353084000A168A1500200A128A11AD
:1002F80083160313AD000A168A1500200A128A1104
:10030800AE000A168A1500200A128A11AF000A16D2
:100318008A1500200A128A11B0003008F5002F084B
:10032800F4002E08F3002D08F200831203136C0862
:10033800F9006B08F8006A08F7006908F6000A1661
:100348008A1546250A128A11031CAB29AC29EA2909
:10035800313084000A168A1500200A128A11831681
:100368000313AD000A168A1500200A128A11AE007E
:100378000A168A1500200A128A11AF000A168A1571
:1003880000200A128A11B0003008F5002F08F40086
:100398002E08F3002D08F200831203136C08F900ED
:1003A8006B08F8006A08F7006908F6000A168A154B
:1003B80046250A128A110318E229E329EA290C3092
:1003C80083160313CE000030CF00AE2C39308400E2
:1003D8000A168A1500200A128A1183160313AD0023
:1003E8000A168A1500200A128A11AE000A168A1502
:1003F80000200A128A11AF000A168A1500200A1274
:100408008A11B0003008F5002F08F4002E08F30018
:100418002D08F200831203136C08F9006B08F8002A
:100428006A08F7006908F6000A168A1546250A12AE
:100438008A11031C202A212A5F2A353084000A16D3
:100448008A1500200A128A1183160313AD000A16B2
:100458008A1500200A128A11AE000A168A15002091
:100468000A128A11AF000A168A1500200A128A1188
:10047800B0003008F5002F08F4002E08F3002D080E
:10048800F200831203136C08F9006B08F8006A087D
:10049800F7006908F6000A168A1546250A128A1115
:1004A8000318572A582A5F2A0D3083160313CE00E3
:1004B8000030CF00AE2C3D3084000A168A1500208B
:1004C8000A128A1183160313AD000A168A15002032
:1004D8000A128A11AE000A168A1500200A128A1119
:1004E800AF000A168A1500200A128A11B0003008D7
:1004F800F5002F08F4002E08F3002D08F2008312EF
:1005080003136C08F9006B08F8006A08F70069081B
:10051800F6000A168A1546250A128A11031C952A1E
:10052800962AD42A393084000A168A1500200A121D
:100538008A1183160313AD000A168A1500200A12C1
:100548008A11AE000A168A1500200A128A11AF0015
:100558000A168A1500200A128A11B0003008F50020
:100568002F08F4002E08F3002D08F200831203135D
:100578006C08F9006B08F8006A08F7006908F600CB
:100588000A168A1546250A128A110318CC2ACD2A7A
:10059800D42A0E3083160313CE000030CF00AE2CC1
:1005A800413084000A168A1500200A128A1183161F
:1005B8000313AD000A168A1500200A128A11AE002C
:1005C8000A168A1500200A128A11AF000A168A151F
:1005D80000200A128A11B0003008F5002F08F40034
:1005E8002E08F3002D08F200831203136C08F9009B
:1005F8006B08F8006A08F7006908F6000A168A15F9
:1006080046250A128A11031C0A2B0B2B492B3D3055
:1006180084000A168A1500200A128A118316031309
:10062800AD000A168A1500200A128A11AE000A16B1
:100638008A1500200A128A11AF000A168A150020AE
:100648000A128A11B0003008F5002F08F4002E08AD
:10065800F3002D08F200831203136C08F9006B08ED
:10066800F8006A08F7006908F6000A168A15462590
:100678000A128A110318412B422B492B0F3083167B
:100688000313CE000030CF00AE2C453084000A168C
:100698008A1500200A128A1183160313AD000A1660
:1006A8008A1500200A128A11AE000A168A1500203F
:1006B8000A128A11AF000A168A1500200A128A1136
:1006C800B0003008F5002F08F4002E08F3002D08BC
:1006D800F200831203136C08F9006B08F8006A082B
:1006E800F7006908F6000A168A1546250A128A11C3
:1006F800031C7F2B802BBE2B413084000A168A15E1
:1007080000200A128A1183160313AD000A168A15EF
:1007180000200A128A11AE000A168A1500200A1251
:100728008A11AF000A168A1500200A128A11B00031
:100738003008F5002F08F4002E08F3002D08F20009
:10074800831203136C08F9006B08F8006A08F700B5
:100758006908F6000A168A1546250A128A1103182E
:10076800B62BB72BBE2B103083160313CE000030E8
:10077800CF00AE2C493084000A168A1500200A12D0
:100788008A1183160313AD000A168A1500200A126F
:100798008A11AE000A168A1500200A128A11AF00C3
:1007A8000A168A1500200A128A11B0003008F500CE
:1007B8002F08F4002E08F3002D08F200831203130B
:1007C8006C08F9006B08F8006A08F7006908F60079
:1007D8000A168A1546250A128A11031CF42BF52BD2
:1007E800332C453084000A168A1500200A128A1113
:1007F80083160313AD000A168A1500200A128A11FF
:10080800AE000A168A1500200A128A11AF000A16CD
:100818008A1500200A128A11B0003008F5002F0846
:10082800F4002E08F3002D08F200831203136C085D
:10083800F9006B08F8006A08F7006908F6000A165C
:100848008A1546250A128A1103182B2C2C2C332CB6
:10085800113083160313CE000030CF00AE2C4D307C
:1008680084000A168A1500200A128A1183160313B7
:10087800AD000A168A1500200A128A11AE000A165F
:100888008A1500200A128A11AF000A168A1500205C
:100898000A128A11B0003008F5002F08F4002E085B
:1008A800F3002D08F200831203136C08F9006B089B
:1008B800F8006A08F7006908F6000A168A1546253E
:1008C8000A128A11031C692C6A2CA82C493084004E
:1008D8000A168A1500200A128A1183160313AD001E
:1008E8000A168A1500200A128A11AE000A168A15FD
:1008F80000200A128A11AF000A168A1500200A126F
:100908008A11B0003008F5002F08F4002E08F30013
:100918002D08F200831203136C08F9006B08F80025
:100928006A08F7006908F6000A168A1546250A12A9
:100938008A110318A02CA12CA82C1230831603139B
:10094800CE000030CF00AE2C133083160313CE0038
:100958000030CF004E08AD0001300310AD0DFF3E52
:10096800031DB12C03102D0D013E84000A168A15B3
:1009780000200A128A11AE000A168A1500200A12EF
:100988008A11AF000A168A1500200A128A11B000CF
:100998000A168A1500200A128A11B100310883123A
:1009A8000313D70083160313300883120313D600EA
:1009B800831603132F0883120313D500831603131A
:1009C8002E0883120313D4006C08DB006B08DA00CE
:1009D8006A08D9006908D8000A168A15D0220A12AE
:1009E8008A11831203135708A9005608A80055084E
:1009F800A7005408A600831603134E08B20001305E
:100A08000310B20DFF3E031D042D0310320D013EED
:100A180084000A168A1500200A128A11B3000A16E1
:100A28008A1500200A128A11B4000A168A150020B5
:100A38000A128A11B5000A168A1500200A128A11AC
:100A4800B600360883120313D7008316031335083C
:100A580083120313D6008316031334088312031377
:100A6800D50083160313330883120313D4008316A7
:100A780003134E08B70001300310B70DFF3E031DE6
:100A8800402D0310370D053E84000A168A150020F4
:100A98000A128A11B8000A168A1500200A128A1149
:100AA800B9000A168A1500200A128A11BA000A1615
:100AB8008A1500200A128A11BB003B08831203130F
:100AC800DB00831603133A0883120313DA00831634
:100AD8000313390883120313D90083160313380844
:100AE80083120313D8000A168A15D0220A128A1113
:100AF800831203135708DF005608DE005508DD008F
:100B08005408DC00831603134E08BC0001300310A0
:100B1800BC0DFF3E031D8B2D03103C0D553E84007C
:100B28000A168A1500200A128A11BD000A168A15AB
:100B380000200A128A11BE000A168A1500200A121D
:100B48008A11BF000A168A1500200A128A11C000ED
:100B5800400883120313D700831603133F08831238
:100B68000313D600831603133E0883120313D5001C
:100B7800831603133D0883120313D400831603134B
:100B88004E08C10001300310C10DFF3E031DC72DE3
:100B98000310410D513E84000A168A1500200A12DE
:100BA8008A11C2000A168A1500200A128A11C30087
:100BB8000A168A1500200A128A11C4000A168A1514
:100BC80000200A128A11C500450883120313DB00AE
:100BD80083160313440883120313DA0083160313DE
:100BE800430883120313D9008316031342088312A0
:100BF8000313D8000A168A15D0220A128A11831202
:100C080003135708E3005608E2005508E1005408AA
:100C1800E0000A168A1168250A128A118312031342
:100C28005F08AD005E08AC005D08AB005C08AA0078
:100C38000A128A1501200A128A118312031329083D
:100C480083160313C900831203132808831603139A
:100C5800C80083120313270883160313C7008312DF
:100C68000313260883160313C6004E08AD0001308F
:100C78000310AD0DFF3E031D3C2E03102D0D513EFC
:100C880084000A168A1500200A128A11AE000A1674
:100C98008A1500200A128A11AF000A168A15002048
:100CA8000A128A11B0000A168A1500200A128A113F
:100CB800B100310883120313C300831603133008ED
:100CC80083120313C200831603132F08831203131E
:100CD800C100831603132E0883120313C000831662
:100CE8000313490883120313C70083160313480824
:100CF80083120313C60083160313470883120313D2
:100D0800C50083160313460883120313C4000A168A
:100D18008A11E0220A128A118312031343088316E8
:100D28000313CD0083120313420883160313CC0068
:100D380083120313410883160313CB008312031392
:100D4800400883160313CA004230F5008C30F400C3
:100D58000030F3000030F2004D08F9004C08F800AC
:100D68004B08F7004A08F6000A168A1546250A12A3
:100D78008A110318C02EC12ECC2E423083160313BD
:100D8800CD008C30CC000030CB000030CA00F12EF2
:100D9800831603134D08F5004C08F4004B08F300C4
:100DA8004A08F2003D30F900F530F800C230F7008B
:100DB8008F30F6000A168A1546250A128A1103187A
:100DC800E62EE72EF12E3D3083160313CD00F530C5
:100DD800CC00C230CB008F30CA00831603134D08F5
:100DE80083120313EC00831603134C0883120313B6
:100DF800EB00831603134B0883120313EA008316D0
:100E080003134A0883120313E9000800831203132B
:100E1800A00020080319112F122F262FF51F152FB8
:100E2800162F262F7209A2007309A3007409A400C3
:100E38007509A500A20A0319A30A0319A40A03192C
:100E4800A50A2E2F7508A5007408A4007308A3002E
:100E58007208A2007508740473047204031D352F08
:100E6800362F3F2F0030F5000030F4000030F3003B
:100E78000030F200C52F9630FF007F08A100512FE7
:100E88000130FF007F08A10701300310A50CA40C56
:100E9800A30CA20CFF3E031D492FFE302505031DA0
:100EA800562F572F442F732F0130FF007F08A107BB
:100EB8000130A207003003180130A30700300318DF
:100EC8000130A407003003180130A50701300310D2
:100ED800A50CA40CA30CA20CFF3E031D6B2FFF3026
:100EE8002505031D782F792F582F852F0130A10252
:100EF8000130F6000310A20DA30DA40DA50DF60BED
:100F08007E2FA41B882F892F8F2F023021020318D0
:100F18008E2F8F2F7A2F2118922F932F9B2FFF30F0
:100F2800A205FF30A3057F30A405FF30A5050310F7
:100F3800A10C2108F600F701F801F9011830031097
:100F4800F60DF70DF80DF90DFF3E031DA32F7608DA
:100F5800A2047708A3047808A4047908A504200843
:100F68000319B72FB82FBD2FF51FBB2FBC2FBD2FCF
:100F7800A5172508F5002408F4002308F300220823
:100F8800F2000800831603139501831603178601E0
:100F9800FE30831603138600303090000C301005A5
:100FA800F2000C307206031DDA2FDB2FD22F8316C6
:100FB80003178801FF30831603138500C0308800AB
:100FC8000A168A1542230A128A110130831603175A
:100FD80085000130831203139F00603083160313CA
:100FE8009F009D01831203179301603093009317AC
:060FF8001830940008000F
:101002008312031329088039FF007F08B3002908DF
:10101200AE002E07FF007F08B900A81F1128122872
:101022001328391439080319172818282728390AC8
:10103200031D1C281D2825280030A9000030A80007
:101042000030A7000030A600A8172F280030A90002
:101052000030A8000030A7000030A6002D0880391B
:10106200FF007F08B3062D08AE002E07FF007F08A1
:10107200B800AC1F3D283E283F2838143808031911
:10108200432844285328380A031D48284928512850
:101092000030AD000030AC000030AB000030AA00E0
:1010A200AC175B280030AD000030AC000030AB0064
:1010B2000030AA00380803195F286028652839081B
:1010C200031D642865286E280030A9000030A8009E
:1010D2000030A7000030A600612B2608FF007F0821
:1010E200F2002C080A168A151B230A128A157308A5
:1010F20083120313BF007208BE003E08AE00AF01A8
:10110200B001B1013108B7003008B6002F08B500B0
:101112002E08B4003F08AE00AF01B001B1013108A2
:10112200BD003008BC002F08BB002E08BA002708FB
:10113200FF007F08F2002B080A168A151B230A12E9
:101142008A15730883120313BF007208BE003E089B
:10115200AE00AF01B001B1012E08B4072F08031190
:101162000318013E0319B628B50730080311031806
:10117200013E0319BD28B607310803110318013EC9
:101182000319C428B7073F08AE00AF01B001B1018F
:101192002E08BA072F0803110318013E0319D2289B
:1011A200BB07300803110318013E0319D928BC07F5
:1011B200310803110318013E0319E028BD0728086E
:1011C200FF007F08F2002A080A168A151B230A125A
:1011D2008A15730883120313BF007208BE003E080B
:1011E200AE00AF01B001B1012E08B4072F08031100
:1011F2000318013E0319FE28B5073008031103182E
:10120200013E03190529B607310803110318013EEF
:1012120003190C29B7073F08AE00AF01B001B101B5
:101222002E08BA072F0803110318013E03191A29C1
:10123200BB07300803110318013E03192129BC071B
:10124200310803110318013E03192829BD0708308C
:10125200AE000310B40DB50DB60DB70DAE0B2A29B5
:101262002708FF007F08F2002A080A168A151B23A6
:101272000A128A15730883120313BF007208BE0094
:101282003E08AE003F08AF00B001B1012E08B4071E
:101292002F0803110318013E03195029B50730081E
:1012A20003110318013E03195729B6073108031128
:1012B2000318013E03195E29B7072608FF007F08BD
:1012C200F2002B080A168A151B230A128A157308C4
:1012D20083120313BF007208BE003E08AE003F082F
:1012E200AF00B001B1012E08B4072F080311031893
:1012F200013E03197D29B507300803110318013E89
:1013020003198429B607310803110318013E031992
:101312008B29B7070830AE000310B40DB50DB60D1A
:10132200B70DAE0B8D292608FF007F08F2002A08B0
:101332000A168A151B230A128A15730883120313CD
:10134200BF007208BE003E08AE003F08AF00B00109
:10135200B1012E08B4072F0803110318013E031927
:10136200B329B507300803110318013E0319BA293E
:10137200B607310803110318013E0319C129B70743
:101382002708FF007F08F2002C080A168A151B2383
:101392000A128A15730883120313BF007208BE0073
:1013A2003E08AE003F08AF00B001B1012E08BA07F7
:1013B2002F0803110318013E0319E029BB07300867
:1013C20003110318013E0319E729BC073108031171
:1013D2000318013E0319EE29BD072808FF007F0804
:1013E200F2002B080A168A151B230A128A157308A3
:1013F20083120313BF007208BE003E08AE003F080E
:10140200AF00B001B1012E08BA072F08031103186B
:10141200013E03190D2ABB07300803110318013ED0
:101422000319142ABC07310803110318013E0319DA
:101432001B2ABD072808FF007F08F2002C080A16A5
:101442008A151B230A128A15730883120313BF001D
:101452007208BE003E08AE003F08AF00B001B10105
:1014620008300310AE0DAF0DB00DB10DFF3E031DE0
:10147200322A2E08BA072F0803110318013E031956
:10148200432ABB07300803110318013E03194A2AF5
:10149200BC07310803110318013E0319512ABD0785
:1014A2003408AE003508AF003608B0003708B10086
:1014B20018300310B10CB00CAF0CAE0CFF3E031D84
:1014C2005A2A2E08BA072F0803110318013E0319DE
:1014D2006B2ABB07300803110318013E0319722A55
:1014E200BC07310803110318013E0319792ABD070D
:1014F2000830AE000310B40DB50DB60DB70DAE0B2E
:101502007B2A39083807AE00AF01AF0D2E08823EA4
:10151200BE002F080318013EFF3EBF00AD2A013076
:10152200AE000310BA0DBB0DBC0DBD0DAE0B922A61
:10153200B71F9C2A9D2A9E2A3A140130AE0003103E
:10154200B40DB50DB60DB70DAE0BA02AFF30BE0718
:101552000318BF0AFF30BF07BC1FB02AB12A902A66
:10156200B801B71FB52AB62AD22AFF303405AE0019
:10157200FF303505AF00FF303605B0007F3037054C
:10158200B100310830042F042E040319C92ACA2AD3
:10159200CD2AB801B80AD22A3A1CD02AD12AD22A94
:1015A200CA2A38080319D62AD72A082B0130BA07C3
:1015B200003003180130BB07003003180130BC07AC
:1015C200003003180130BD073D1CE82AE92A082B28
:1015D2003A08AE003B08AF003C08B0003D08B1003D
:1015E2000130B200310DB10CB00CAF0CAE0CB20B2D
:1015F200F32A3108BD003008BC002F08BB002E08BA
:10160200BA000130BE070318BF0A0030BF073F0807
:10161200803AFF0080307F02031D112BFF303E0213
:10162200031C142B152B202B7F3083120313BD00B8
:101632008030BC000030BB000030BA00552B831252
:1016420003133F08803AFF0080307F02031D2B2BDB
:1016520001303E0203182E2B2F2B3B2B003083121E
:101662000313BD000030BC000030BB000030BA00E4
:10167200B301552B831203133E08FF007F08B90004
:10168200FF30BA05FF30BB057F30BC050030BD0519
:10169200391C4C2B4D2B4E2BBC173908AE000310B6
:1016A2002E0CFF007F08BD003308FF007F08BD0439
:1016B2003D08A9003C08A8003B08A7003A08A6007C
:1016C200080083160317AC003F30A3008030A2004D
:1016D2000030A1000030A0003F30A7008030A600FB
:1016E2000030A5000030A4003F30AB008030AA00DB
:1016F2000030A9000030A80083160313B601831638
:1017020003172C08FF007F0883160313B70000306D
:101712000A168A1526240A128A1583160313390813
:1017220083160317B00083160313380883160317B2
:10173200AF0083160313370883160317AE00831610
:101742000313360883160317AD0083160313B6017D
:10175200B60A831603172C08FF007F0883160313AB
:10176200B70000300A168A1526240A128A15831633
:101772000313390883160317B400831603133808BA
:1017820083160317B3008316031337088316031750
:10179200B20083160313360883160317B1008316AB
:1017A2000313B601831603172C08FF007F08831664
:1017B2000313B70001300A168A1526240A128A1565
:1017C20083160313390883160317B800831603130D
:1017D200380883160317B7008316031337088316D6
:1017E2000317B60083160313360883160317B500D2
:1017F2004930F5001E30F400B130F3000030F20041
:101802003008F9002F08F8002E08F7002D08F6001E
:101812000A168A1546250A128A150318112C122C4B
:10182200502C83160317300883120313DF0083162C
:1018320003172F0883120313DE00831603172E08E3
:1018420083120313DD00831603172D08831203137B
:10185200DC004930E3001E30E200B130E10000302C
:10186200E0000A168A1168250A128A1583120313E8
:101872005F0883160317A300831203135E088316FF
:101882000317A200831203135D0883160317A10036
:10189200831203135C0883160317A000AA2C831675
:1018A20003173008F5002F08F4002E08F3002D0866
:1018B200F2004730F9008430F800D030F7000030F1
:1018C200F6000A168A1546250A128A1503186A2C8A
:1018D2006B2CAA2C473083120313DF008430DE0006
:1018E200D030DD000030DC0083160317300883128D
:1018F2000313E300831603172F0883120313E20076
:10190200831603172E0883120313E10083160317AD
:101912002D0883120313E0000A168A1168250A12A1
:101922008A15831203135F0883160317A300831219
:1019320003135E0883160317A200831203135D08C4
:1019420083160317A100831203135C08831603177F
:10195200A0004730F5000830F400B830F300003042
:10196200F200831603173408F9003308F80032082E
:10197200F7003108F6000A168A1546250A128A155A
:101982000318C42CC52C032D8316031734088312A5
:101992000313DF0083160317330883120313DE00D9
:1019A20083160317320883120313DD00831603170D
:1019B200310883120313DC004730E3000830E200F1
:1019C200B830E1000030E0000A168A1168250A12D8
:1019D2008A15831203135F0883160317A700831265
:1019E20003135E0883160317A600831203135D0810
:1019F20083160317A500831203135C0883160317CB
:101A0200A4005D2D831603173408F5003308F40093
:101A12003208F3003108F2004530F9007330F80063
:101A2200C030F7000030F6000A168A1546250A1261
:101A32008A1503181D2D1E2D5D2D453083120313AB
:101A4200DF007330DE00C030DD000030DC008316C2
:101A52000317340883120313E300831603173308B2
:101A620083120313E200831603173208831203134F
:101A7200E10083160317310883120313E0000A16EC
:101A82008A1168250A128A15831203135F088316C6
:101A92000317A700831203135E0883160317A60019
:101AA200831203135D0883160317A5008312031321
:101AB2005C0883160317A4004730F500CA30F4000F
:101AC200A330F3000030F200831603173808F90040
:101AD2003708F8003608F7003508F6000A168A15A6
:101AE20046250A128A150318772D782DB62D8316EE
:101AF2000317380883120313DF008316031737080E
:101B020083120313DE0083160317360883120313AE
:101B1200DD0083160317350883120313DC004730F8
:101B2200E300CA30E200A330E1000030E0000A1610
:101B32008A1168250A128A15831203135F08831615
:101B42000317AB00831203135E0883160317AA0060
:101B5200831203135D0883160317A900831203136C
:101B62005C0883160317A800102E83160317380883
:101B7200F5003708F4003608F3003508F200463065
:101B8200F9003430F8002830F7000030F6000A1669
:101B92008A1546250A128A150318D02DD12D102E2A
:101BA200463083120313DF003430DE002830DD00BC
:101BB2000030DC0083160317380883120313E30096
:101BC20083160317370883120313E20083160317E1
:101BD200360883120313E1008316031735088312B4
:101BE2000313E0000A168A1168250A128A15831265
:101BF20003135F0883160317AB00831203135E08F7
:101C020083160317AA00831203135D0883160317B2
:101C1200A900831203135C0883160317A800831616
:101C22000317270883120313C3008316031726081A
:101C320083120313C20083160317250883120313AA
:101C4200C10083160317240883120313C0008316EE
:101C52000317230883120313C700831603172208EE
:101C620083120313C600831603172108831203137A
:101C7200C50083160317200883120313C4000A1633
:101C82008A11E0220A128A1583120313430883166B
:101C920003179B00831203134208831603179A004B
:101CA2008312031341088316031799008312031347
:101CB2004008831603179800270883120313A9000C
:101CC20083160317260883120313A800831603172B
:101CD200250883120313A70083160317240883120F
:101CE2000313A60083160317340883120313AD00EF
:101CF20083160317330883120313AC0083160317EA
:101D0200320883120313AB008316031731088312C0
:101D12000313AA000A128A1501200A128A158312D5
:101D220003132908C3002808C2002708C100260897
:101D3200C00083160317230883120313A900831616
:101D42000317220883120313A8008316031721081E
:101D520083120313A70083160317200883120313A9
:101D6200A60083160317300883120313AD008316EF
:101D720003172F0883120313AC00831603172E08D0
:101D820083120313AB00831603172D088312031368
:101D9200AA000A128A1501200A128A158312031355
:101DA2002908C7002808C6002708C5002608C4005D
:101DB2000A168A11E0220A128A15831203134308B3
:101DC200831603179F008312031342088316031717
:101DD2009E00831203134108831603179D0083128A
:101DE20003134008831603179C002B088312031366
:101DF200C300831603172A0883120313C200831633
:101E02000317290883120313C10083160317280836
:101E120083120313C000831603171B0883120313D4
:101E2200C700831603171A0883120313C60083160A
:101E32000317190883120313C50083160317180822
:101E420083120313C4000A168A11E0220A128A15A9
:101E5200831203134308DF004208DE004108DD005D
:101E62004008DC00831603172B0883120313A90012
:101E7200831603172A0883120313A8008316031775
:101E8200290883120313A700831603172808831255
:101E92000313A60083160317380883120313AD0039
:101EA20083160317370883120313AC008316031734
:101EB200360883120313AB00831603173508831207
:101EC2000313AA000A128A1501200A128A15831224
:101ED20003132908C3002808C2002708C1002608E6
:101EE200C000831603171F0883120313C70083164B
:101EF20003171E0883120313C600831603171D0857
:101F020083120313C500831603171C0883120313DD
:101F1200C4000A168A11E0220A128A1583120313D8
:101F22004308E3004208E2004108E1004008E00003
:101F32000A168A1168250A128A15831203135F088A
:101F4200831603179300831203135E088316031785
:101F52009200831203135D08831603179100831204
:101F620003135C08831603179000130883120313EC
:101F7200EC0083160317120883120313EB00831677
:101F82000317110883120313EA00831603171008BC
:101F920083120313E9000A168A115C200A128A15B9
:101FA200831203136C08831603179700831203131B
:101FB2006B08831603179600831203136A088316AD
:101FC20003179500831203136908831603179400FD
:101FD200170883160313D3008316031716088316F4
:101FE2000313D20083160317150883160313D100B7
:0E1FF20083160317140883160313D00008008B
:102006000A128A11C6270A168A110A168A15892201
:102016000A168A110A168A1553220A168A11831677
:1020260003135908031D182819281228D9010A165E
:102036008A1567220A168A1100300A128A15622347
:102046000A168A11831603135308D8005208D700BC
:102056005108D6005008D5000D300A168A155B22A5
:102066000A168A1183160313580883120313A30052
:1020760083160313570883120313A2008316031350
:10208600560883120313A1008316031355088312FF
:102096000313A0000A168A15B4220A168A110A30FA
:1020A6000A168A155B220A168A1112280A128A1142
:1020B6000C28053084000A168A1500200A168A1193
:1020C60083160313AD000A168A1500200A168A1114
:1020D600AE000A168A1500200A168A11AF000A16E3
:1020E6008A1500200A168A11B0003008F5002F085C
:1020F600F4002E08F3002D08F200831203136C0877
:10210600F9006B08F8006A08F7006908F6000A1675
:102116008A1546250A168A11031C922893289328A5
:10212600093084000A168A1500200A168A118316B9
:102136000313AD000A168A1500200A168A11AE008E
:102146000A168A1500200A168A11AF000A168A1581
:1021560000200A168A11B0003008F5002F08F40096
:102166002E08F3002D08F200831203136C08F90001
:102176006B08F8006A08F7006908F6000A168A155F
:1021860046250A168A11031CC928CA280A290530B9
:1021960084000A168A1500200A168A11831603136C
:1021A600AD000A168A1500200A168A11AE000A1614
:1021B6008A1500200A168A11AF000A168A15002011
:1021C6000A168A11B0003008F5002F08F4002E0810
:1021D600F3002D08F200831203136C08F9006B0854
:1021E600F8006A08F7006908F6000A168A154625F7
:1021F6000A168A110318002901290A2901308316B3
:102206000313CE000030CF000A128A11AE2C0D3017
:1022160084000A168A1500200A168A1183160313EB
:10222600AD000A168A1500200A168A11AE000A1693
:102236008A1500200A168A11AF000A168A15002090
:102246000A168A11B0003008F5002F08F4002E088F
:10225600F3002D08F200831203136C08F9006B08D3
:10226600F8006A08F7006908F6000A168A15462576
:102276000A168A11031C402941297F290930840046
:102286000A168A1500200A168A1183160313AD0052
:102296000A168A1500200A168A11AE000A168A1531
:1022A60000200A168A11AF000A168A1500200A169F
:1022B6008A11B0003008F5002F08F4002E08F3004C
:1022C6002D08F200831203136C08F9006B08F8005E
:1022D6006A08F7006908F6000A168A1546250A16DE
:1022E6008A110318772978297F2902308316031368
:1022F600CE000030CF000729113084000A168A1557
:1023060000200A168A1183160313AD000A168A15D1
:1023160000200A168A11AE000A168A1500200A162F
:102326008A11AF000A168A1500200A168A11B00013
:102336003008F5002F08F4002E08F3002D08F200EF
:10234600831203136C08F9006B08F8006A08F7009B
:102356006908F6000A168A1546250A168A11031C0C
:10236600B529B629F4290D3084000A168A150020ED
:102376000A168A1183160313AD000A168A15002061
:102386000A168A11AE000A168A1500200A168A1144
:10239600AF000A168A1500200A168A11B000300806
:1023A600F5002F08F4002E08F3002D08F200831222
:1023B60003136C08F9006B08F8006A08F70069084F
:1023C600F6000A168A1546250A168A110318EC29FC
:1023D600ED29F429033083160313CE000030CF0015
:1023E6000729153084000A168A1500200A168A1154
:1023F60083160313AD000A168A1500200A168A11E1
:10240600AE000A168A1500200A168A11AF000A16AF
:102416008A1500200A168A11B0003008F5002F0828
:10242600F4002E08F3002D08F200831203136C0843
:10243600F9006B08F8006A08F7006908F6000A1642
:102446008A1546250A168A11031C2A2A2B2A692A66
:10245600113084000A168A1500200A168A1183167E
:102466000313AD000A168A1500200A168A11AE005B
:102476000A168A1500200A168A11AF000A168A154E
:1024860000200A168A11B0003008F5002F08F40063
:102496002E08F3002D08F200831203136C08F900CE
:1024A6006B08F8006A08F7006908F6000A168A152C
:1024B60046250A168A110318612A622A692A0430F7
:1024C60083160313CE000030CF000729193084008D
:1024D6000A168A1500200A168A1183160313AD0000
:1024E6000A168A1500200A168A11AE000A168A15DF
:1024F60000200A168A11AF000A168A1500200A164D
:102506008A11B0003008F5002F08F4002E08F300F9
:102516002D08F200831203136C08F9006B08F8000B
:102526006A08F7006908F6000A168A1546250A168B
:102536008A11031C9F2AA22A0A168A159D2E153077
:1025460084000A168A1500200A168A1183160313B8
:10255600AD000A168A1500200A168A11AE000A1660
:102566008A1500200A168A11AF000A168A1500205D
:102576000A168A11B0003008F5002F08F4002E085C
:10258600F3002D08F200831203136C08F9006B08A0
:10259600F8006A08F7006908F6000A168A15462543
:1025A6000A168A110318D82AD92A9F2A05308316B3
:1025B6000313CE000030CF0007298312031343080C
:1025C6008039FF007F08D0004308C8004807FF0095
:1025D6007F08D200C21FF02AF12AF22A52145208AA
:1025E6000319F62AF72A072B520A031DFB2AFC2A8F
:1025F600042B0030C3000030C2000030C1000030A0
:10260600C000C217C3010F2B0030C3000030C20048
:102616000030C1000030C00047088039FF007F0845
:10262600D100510850060319192B1A2B1B2B5017D2
:102636004708C8004807FF007F08D100C61F242BA3
:10264600252B262B5114510803192A2B2B2B3B2BF8
:10265600510A031D2F2B302B382B0030C7000030BA
:10266600C6000030C5000030C400C617C701432BA2
:102676000030C7000030C6000030C5000030C4007E
:10268600520851020318482B492B8D2B501F4C2BF7
:102696004D2B512B8030FF007F08D0065208FF00DB
:1026A6007F08D3005108FF007F08D2005308FF00BF
:1026B6007F08D1004008FF007F08D3004408FF00D0
:1026C6007F08C0005308FF007F08C4004108FF00D0
:1026D6007F08D3004508FF007F08C1005308FF00AC
:1026E6007F08C5004208FF007F08D3004608FF00A8
:1026F6007F08C2005308FF007F08C6004308FF009A
:102706007F08D3004708FF007F08C3005308FF0077
:102716007F08C700D3015108C800C9014908CB008A
:1027260052084802CA00031CCB034B08803AFF003C
:1027360080307F02031DA12B1A304A02031CA42BF2
:10274600A52BE22B831203134308420441044004E1
:10275600031DAE2BB02B0130B12B0030FF007F08DC
:10276600D3000030C3000030C2000030C10000308A
:10277600C0005108FF007F08D200EA2B531CC42B6F
:10278600C52BCE2B5308C8000310480C0138FF0098
:102796007F08D300D02B0310D30C401CD32BD42B93
:1027A600D52BD3170130C800430DC30CC20CC10C86
:1027B600C00CC80BD72B0130FF007F08D20783124D
:1027C600031351085202031CE92BEA2BC12B501BA1
:1027D600ED2BEE2B392C5208031DF22BF32BFC2B81
:1027E6000030C3000030C2000030C1000030C0001D
:1027F600672D4408C007450803110318013E031955
:10280600052CC107460803110318013E03190C2CB9
:10281600C207470803110318013E0319132CC30707
:10282600431C162C172CED2C531C1A2C1B2C242C59
:102836005308C8000310480C0138FF007F08D30076
:10284600262C0310D30C401C292C2A2C2B2CD317F6
:102856000130C800430DC30CC20CC10CC00CC80B20
:102866002D2C0130FF007F08D207ED2C4308803A5B
:10287600FF004708803A7F02031D4B2C46084202A0
:10288600031D4B2C45084102031D4B2C44084002F6
:1028960003184E2C4F2CA72CFF30C800FF30C90060
:1028A600FF30CA00FF30CB004408CC004508CD00FD
:1028B6004608CE004708CF004008CC024108031C5A
:1028C600410F662C672CCD024208031C420F6C2C6C
:1028D6006D2CCE024308031C430F722C732CCF02BF
:1028E6004C08C8074D0803184D0F7A2C7B2CC907D6
:1028F6004E0803184E0F802C812CCA074F08031868
:102906004F0ACB074B08C3004A08C2004908C1005A
:102916004808C0008030FF007F08D006D309D30ADC
:102926005308031D972C982CB52C0130C007003096
:1029360003180130C107003003180130C207003008
:1029460003180130C307B52C4408C0024508031C10
:10295600450FC1024608031C460FC2024708031C66
:10296600470FC3024308420441044004031DBC2C24
:10297600BD2CE92C5308031DC12CC22CE92C0030B8
:10298600C3000030C2000030C1000030C000672D17
:102996000130C8000310C00DC10DC20DC30DC80B18
:1029A600CD2CD31FD72CD82CD92C4014531CDC2C5F
:1029B600DD2CE02C0314D30DE22C0310D30D5208AA
:1029C6000319E62CE72CE92C0130D202C21FEC2CAD
:1029D600ED2CCB2CD101D31FF12CF22C002D53085A
:1029E6007F390319F72CF82CFB2CD101D10A002DC5
:1029F600401CFE2CFF2C002DF82C51080319042D29
:102A0600052D392D0130C007003003180130C107EC
:102A1600003003180130C207003003180130C30725
:102A2600431C162D172D392D4008C8004108C90032
:102A36004208CA004308CB000130CC004B0DCB0C3A
:102A4600CA0CC90CC80CCC0B212D4B08C3004A0874
:102A5600C2004908C1004808C000520A0319342DB3
:102A6600352D392D0130FF007F08D207520A031990
:102A76003D2D3E2D432D5208031D422D432D512D34
:102A86000030C3000030C2000030C1000030C0007A
:102A96005208031D4F2D502D512DD001521C542D7F
:102AA600552D572DC2175B2D7F30FF007F08C205BD
:102AB6005208C8000310480CFF007F08C300D01F4F
:102AC600652D662D672DC31708008312031363084F
:102AD6008039FF007F0883160313A40083120313B3
:102AE6006308E4006407FF007F0883160313AB0046
:102AF60083120313E21F802D812D842D8316031369
:102B06002B14831603132B0803198A2D8B2D9E2D48
:102B16002B0A031D8F2D902D9A2D0030831203133F
:102B2600E3000030E2000030E1000030E0008312F4
:102B3600E217E301A82D003083120313E3000030EF
:102B4600E2000030E1000030E0005F088039FF005D
:102B56007F0883160313A406831203135F08E40099
:102B66006407FF007F0883160313AC008312031368
:102B7600DE1FBE2DBF2DC22D831603132C14831604
:102B860003132C080319C82DC92DDC2D2C0A031D8F
:102B9600CD2DCE2DD82D003083120313DF0000304B
:102BA600DE000030DD000030DC008312DE17DF01BE
:102BB600E62D003083120313DF000030DE00003004
:102BC600DD000030DC005F085E045D045C04031D6C
:102BD600ED2DEE2D0B2E0030E3000030E20000302C
:102BE600E1000030E0008030E2047F30E304831629
:102BF60003132408FF007F0883120313E30463080A
:102C0600DF006208DE006108DD006008DC00FF2FDF
:102C1600831603132B08031D112E122E1D2E0030B2
:102C260083120313DF000030DE000030DD000030C9
:102C3600DC00FF2F2B0883120313E400E50165086F
:102C4600E700831603132C08831203136402E600BD
:102C5600031CE70366087F3E83160313A500831251
:102C6600031367080318013E003E83160313A600EC
:102C760083120313630883160313A300831203133B
:102C8600620883160313A2008312031361088316D6
:102C96000313A10083120313600883160313A00015
:102CA600003083120313E3000030E2000030E1003D
:102CB6000030E000003083160313AA000030A9009C
:102CC6000030A8000030A700AC01EB2E2C08031939
:102CD6006D2E6E2E9D2E013083120313E400031019
:102CE60083160313A00DA10DA20DA30D83120313CA
:102CF600E40B722E0130E4000310E00DE10DE20D4D
:102D0600E30DE40B7F2E83160313AA1F8B2E8C2E46
:102D16008F2E83120313601401308312E400031014
:102D260083160313A70DA80DA90DAA0D831203136D
:102D3600E40B922E83125F08831603132302031DEE
:102D4600BA2E831203135E08831603132202031D91
:102D5600BA2E831203135D08831603132102031D83
:102D6600BA2E831203135C08831603132002031C76
:102D7600BD2EBE2EE72E2A17831203135C08831678
:102D86000313A002831203135D08031C5D0FCC2EF0
:102D9600CF2E83160313A102831203135E08031CAE
:102DA6005E0FD62ED92E83160313A20283120313A7
:102DB6005F08031C5F0FE02EE32E83160313A302A6
:102DC60083120313831603130130FF007F08AC0739
:102DD6001A302C02031CF02EF12E692E2308220431
:102DE600210420040319F82EF92E232F2714232F4C
:102DF6000130E4000310E00DE10DE20DE30DE40BFC
:102E0600FD2E83160313AA1F092F0A2F0D2F8312D7
:102E16000313601401308312E400031083160313B6
:102E2600A70DA80DA90DAA0D83120313E40B102FED
:102E3600FF3083160313A5070318A60AFF30A6075B
:102E460083120313E21F282F292FFB2E8316031349
:102E5600AC01AA1F2F2F302F5C2FFF3027058312BE
:102E66000313E400FF3083160313280583120313AC
:102E7600E500FF3083160313290583120313E600CA
:102E86007F30831603132A0583120313E7006708AE
:102E96006604650464040319512F522F572F8316B5
:102EA6000313AC01AC0A5C2F601C5A2F5B2F5C2FFE
:102EB600522F831603132C080319622F632F982FA2
:102EC600013083120313E007003003180130E107D5
:102ED600003003180130E207003003180130E30721
:102EE600631C762F772F982F6008E4006108E500B1
:102EF6006208E6006308E7000130E800670DE70CAA
:102F0600E60CE50CE40CE80B812F6708E300660885
:102F1600E2006508E1006408E0000130831603134F
:102F2600A5070318A60A0030A6078316031326086A
:102F3600803AFF0080307F02031DA32FFF30250259
:102F4600031CA62FA72FB72FFF3083160313A50048
:102F56000030A600003083120313E3000030E200C5
:102F66000030E1000030E000831603132608803AA3
:102F7600FF0080307F02031DC22F01302502031897
:102F8600C52FC62FD72F83160313A501A601003020
:102F960083120313E3000030E2000030E10000304A
:102FA600E00083160313A401831603132508FF000C
:102FB6007F08AB002B1CE02FE12FE52F83120313B4
:102FC600E217EB2F7F30FF007F0883120313E20521
:102FD600831603132B0883120313E4000310640CF7
:102FE600FF007F08E300831603132408FF007F0811
:102FF60083120313E304022E080018308A00040823
:10300600840A8207003400340034FA34443400342D
:1030160040341C3445340034803422344534003482
:10302600C034283445340034403435344534003413
:103036000034483445340034803454344534003444
:10304600C0345A3445340034C03473344534003403
:1030560060348634453400340034963445340034C4
:10306600E034AB34453400348034D4344534003451
:10307600D034043446340034E0342B34463400343F
:1030860000347A3446340034F034D23446340034D2
:10309600C8342F3447340034E8347D3447340034A0
:1030A6008C34B9344734003400348C344234003420
:1030B60000340C34423400340034F03441340034EB
:1030C6000034E034413400340034C8344134003430
:1030D6000034A03441340034003498344134003490
:1030E60000349034413400340034703441340034B8
:1030F6000034503441340034003420344134003438
:103106000034E0344034CD34CC34AC344034003474
:103116000034803440340034003440344034CD34FC
:10312600CC340C34403400340034C0343F3466347C
:10313600663466343F3466346634E6343E348F345F
:06314600C234F5343D34F3
:10348E00831203131E080800831203139F149F1840
:10349E00512A522A4E2A0800831203138816EF303F
:1034AE00FF007F0888050800F20083160313981C9E
:1034BE00612A622A5C2A720883120313990008009B
:1034CE00031083120313061C031403186F2A732AA6
:1034DE00831203130614762A8312031306100800B0
:1034EE00F2001030720203187D2A7E2A882AF030EC
:1034FE00FF007F088312031388057208FF007F0800
:10350E008804080077308312031790008312031388
:10351E009011901310131016901610151014831688
:10352E0003138F130C140800831203130C1CA02A10
:10353E00A12AA82A83160313D901D90A83120313C9
:10354E000C100D1EAB2AAC2AAD2A0D1271088A0082
:10355E00700E8300FE0E7E0E0900831203132308E5
:10356E00F5002208F4002108F3002008F2000A16E4
:10357E008A15AC230A168A157208FF007F0883127B
:10358E000313A40024080A168A155B220A168A154C
:10359E000800803083120313D7065B08C3005A0855
:1035AE00C2005908C1005808C0005708C700560885
:1035BE00C6005508C5005408C4000A168A11E02238
:1035CE000A168A15831203134308D7004208D60041
:1035DE004108D5004008D4000800F30073080A160D
:1035EE008A1577220A168A150A168A154B220A168A
:1035FE008A150A168A1547220A168A15FF007F08B1
:10360E00F40080307402031C0D2B0E2B132B7F3015
:10361E00FF007F08F400192B7408031D172B182BBD
:10362E00192BF40174080800FA00F601F70172086C
:10363E00F400F5017408F8007508F9007A1C282BBF
:10364E00292B2F2B7808F6070318F70A7908F707A6
:10365E0001300310F80DF90DFF3E031D302B031042
:10366E00FA0C7A08031D3C2B3D2B252B7708F30013
:10367E007608F2000800FC30831603138700193019
:10368E0099001808DF3998001808013898001808B2
:10369E00FB39980083120313180820389800180875
:1036AE00DF39980018080438980018080238980076
:1036BE00831603131808EF3998001808203898005D
:1036CE00831203131808803898000800F500750C53
:1036DE0083120313031C071003180714720C031C28
:1036EE008710031887147508031D7E2B7F2B892BDB
:1036FE007208031D832B842B892B2030F200CB30D4
:10370E00F300AB2B7508031D8D2B8E2B982B72039C
:10371E00031D922B932B982BF030F2000A30F300FE
:10372E00AB2B7503031D9C2B9D2BA72B7208031D22
:10373E00A12BA22BA72B6C30F2002030F300AB2B69
:10374E00B830F2000B30F30008000310740D750D45
:10375E00FF007F08FB007B08031DB62BB72BC02B89
:10376E000030F5000030F4000030F3000030F200BD
:10377E00252C7208F6007308F7007408F800750817
:10378E00F9001F300310F90CF80CF70CF60CFF3E85
:10379E00031DC92B7608FF007F08FA00F417FF30CF
:1037AE00F205FF30F305FF30F4050030F5059630D5
:1037BE00FB02FB1FE32BE42BFE2B7B08803A973E8C
:1037CE000318EA2BEB2BEC2BB72B01300310F50C67
:1037DE00F40CF30CF20CFF3E031DED2B0130FF0039
:1037EE007F08FB07031DFC2BFD2BEC2B152C20302B
:1037FE007B02031C032C042C102CB72B0130F6007B
:10380E000310F20DF30DF40DF50DF60B072C013030
:10381E00FB027B08031D142C152C052C7A080319AA
:10382E00192C1A2C252CF209F309F409F509F20AC0
:10383E000319F30A0319F40A0319F50A080083168B
:10384E000313C5003608FF007F08F20045080A166C
:10385E008A156D230A168A15730883160313C4007E
:10386E007208C30037080A168A15F4220A168A153A
:10387E00FF007F0883160313C60046080A168A1532
:10388E00AA240A168A15831203136C0883160313CF
:10389E00BE00831203136B0883160313BD0083123D
:1038AE0003136A0883160313BC00831203136908FB
:1038BE0083160313BB003E0883120313EC0083161A
:1038CE0003133D0883120313EB00831603133C0806
:1038DE0083120313EA00831603133B0883120313A8
:1038EE00E90083160313440883120313EE008316B4
:1038FE000313430883120313ED000A168A15EA25F3
:10390E000A168A15831203136C0883160313C2005A
:10391E00831203136B0883160313C1008312031360
:10392E006A0883160313C0008312031369088316F3
:10393E000313BF004208B9004108B8004008B700A1
:10394E003F08B600080083160313B10043308312FC
:10395E000313DF008030DE000030DD000030DC00BD
:10396E004030A900A030A8000030A7000030A6000B
:10397E00831603133108AD00AE01AF01B00130085C
:10398E00F5002F08F4002E08F3002D08F200003089
:10399E000A128A110A270A168A157508831203134A
:1039AE00AD007408AC007308AB007208AA000A12CE
:1039BE008A1501200A168A15831203132908E300BB
:1039CE002808E2002708E1002608E0000A168A11FE
:1039DE0068250A168A15831203135F0883160313CC
:1039EE00B500831203135E0883160313B40083120B
:1039FE0003135D0883160313B300831203135C08CD
:103A0E0083160313B2000030F5000030F4000030CE
:103A1E00F3000030F2003508F9003408F8003308DE
:103A2E00F7003208F6000A168A1546250A168A1578
:103A3E00031C222D232D2D2D3C3083160313B50090
:103A4E002330B400D730B3000A30B200831603130C
:103A5E00350883120313EC00831603133408831204
:103A6E000313EB0083160313330883120313EA00C8
:103A7E0083160313320883120313E9000800003083
:103A8E00720583120313A00000307305A10080306D
:103A9E007405A2007F307505A300230822042104BB
:103AAE002004031D5B2D5C2D642D0030F5000030CD
:103ABE00F4000030F3000030F20000307605A00074
:103ACE0000307705A10080307805A2007F3079059F
:103ADE00A3002308220421042004031D772D782D32
:103AEE00802D0030F9000030F8000030F700003073
:103AFE00F600F51F832D842DA82D0030A000003078
:103B0E00A1000030A2008030A3007208A00273084A
:103B1E00031C730F932D942DA1027408031C740FB4
:103B2E00992D9A2DA2027508031C750F9F2DA02D9D
:103B3E00A3022308F5002208F4002108F300200850
:103B4E00F200F91FAB2DAC2DD02D0030A0000030AF
:103B5E00A1000030A2008030A3007608A0027708F2
:103B6E00031C770FBB2DBC2DA1027808031C780F08
:103B7E00C12DC22DA2027908031C790FC72DC82DA5
:103B8E00A3022308F9002208F8002108F7002008F4
:103B9E00F6008030F5068030F90679087502031DAF
:103BAE00E22D78087402031DE22D77087302031DBF
:103BBE00E22D760872020318E52DE62DE82D03108E
:103BCE00E92D03140800831203136D08F2006E082A
:103BDE00F300F401F50100300A128A110A270A16C1
:103BEE008A15750883160313B4007408B30073089E
:103BFE00B2007208B100403083120313A9000030E6
:103C0E00A8000030A7000030A6006C08AD006B08BD
:103C1E00AC006A08AB006908AA000A128A150120D6
:103C2E000A168A15831203132908D7002808D6000E
:103C3E002708D5002608D4004030DB00A030DA007B
:103C4E000030D9000030D8000A168A15D0220A1684
:103C5E008A15831203135708DF005608DE00550835
:103C6E00DD005408DC004030A900A030A800003070
:103C7E00A7000030A6008316031334088312031323
:103C8E00AD0083160313330883120313AC0083169F
:103C9E000313320883120313AB0083160313310888
:103CAE0083120313AA000A128A1501200A168A1516
:103CBE00831203132908E3002808E2002708E10015
:103CCE002608E0000A168A1168250A168A1583123C
:103CDE0003135F0883160313B000831203135E08E9
:103CEE0083160313AF00831203135D0883160313A9
:103CFE00AE00831203135C0883160313AD00300865
:103D0E0083120313EC00831603132F08831203137D
:103D1E00EB00831603132E0883120313EA00831697
:103D2E0003132D0883120313E90008001D308400CD
:103D3E000A168A1500200A168A1583160313AD007B
:103D4E000A168A1500200A168A15AE000A168A155A
:103D5E0000200A168A15AF000A168A1500200A16C8
:103D6E008A15B0003008F5002F08F4002E08F30075
:103D7E002D08F200831203136C08F9006B08F8008B
:103D8E006A08F7006908F6000A168A1546250A160B
:103D9E008A15031CD32ED42E142F193084000A1624
:103DAE008A1500200A168A1583160313AD000A160B
:103DBE008A1500200A168A15AE000A168A150020EA
:103DCE000A168A15AF000A168A1500200A168A15D9
:103DDE00B0003008F5002F08F4002E08F3002D086F
:103DEE00F200831203136C08F9006B08F8006A08DE
:103DFE00F7006908F6000A168A1546250A168A156E
:103E0E0003180A2F0B2F142F063083160313CE0020
:103E1E000030CF000A128A11AE2C213084000A160F
:103E2E008A1500200A168A1583160313AD000A168A
:103E3E008A1500200A168A15AE000A168A15002069
:103E4E000A168A15AF000A168A1500200A168A1558
:103E5E00B0003008F5002F08F4002E08F3002D08EE
:103E6E00F200831203136C08F9006B08F8006A085D
:103E7E00F7006908F6000A168A1546250A168A15ED
:103E8E00031C4A2F4B2F892F1D3084000A168A15CA
:103E9E0000200A168A1583160313AD000A168A151A
:103EAE0000200A168A15AE000A168A1500200A1678
:103EBE008A15AF000A168A1500200A168A15B00058
:103ECE003008F5002F08F4002E08F3002D08F2003C
:103EDE00831203136C08F9006B08F8006A08F700E8
:103EEE006908F6000A168A1546250A168A15031859
:103EFE00812F822F892F073083160313CE000030B7
:103F0E00CF00112F253084000A168A1500200A16BC
:103F1E008A1583160313AD000A168A1500200A1699
:103F2E008A15AE000A168A1500200A168A15AF00E9
:103F3E000A168A1500200A168A15B0003008F500F8
:103F4E002F08F4002E08F3002D08F200831203133D
:103F5E006C08F9006B08F8006A08F7006908F600AB
:103F6E000A168A1546250A168A15031CBF2FC22F5C
:103F7E000A128A111628213084000A168A1500208A
:103F8E000A168A1583160313AD000A168A15002029
:103F9E000A168A15AE000A168A1500200A168A1508
:103FAE00AF000A168A1500200A168A15B0003008CE
:103FBE00F5002F08F4002E08F3002D08F2008312EE
:103FCE0003136C08F9006B08F8006A08F70069081B
:103FDE00F6000A168A1546250A168A150318F82FB2
:103FEE00F92FBF2F083083160313CE000030CF00F9
:023FFE00112F81
:04400E00F53FFFFF7C
:00000001FF
