:060000000A128A110C280F
:10000800FE00030EF0000A08F1000A168A11E32A1E
:100018000A128A110F2883160313DC0183010A12BE
:100028008A11D32F053084000A168A1100200A127B
:100038008A1183160313A4000A168A1100200A12D3
:100048008A11A5000A168A1100200A128A11A60030
:100058000A168A1100200A128A11A7002708F5003B
:100068002608F4002508F3002408F2002308F90004
:100078002208F8002108F7002008F6000A168A115D
:10008800AB250A128A11031C4A284B284F288316CD
:100098000313C501C601093084000A168A1100201D
:1000A8000A128A1183160313A4000A168A11002063
:1000B8000A128A11A5000A168A1100200A128A114A
:1000C800A6000A168A1100200A128A11A70027081A
:1000D800F5002608F4002508F3002408F200230898
:1000E800F9002208F8002108F7002008F6000A168F
:1000F8008A11AB250A128A11031C83288428C02878
:10010800053084000A168A1100200A128A11831603
:100118000313A4000A168A1100200A128A11A500E6
:100128000A168A1100200A128A11A6000A168A11D4
:1001380000200A128A11A7002708F5002608F400F3
:100148002508F3002408F2002308F9002208F80023
:100158002108F7002008F6000A168A11AB250A12B2
:100168008A110318B828B928C02801308316031348
:10017800C5000030C600842C0D3084000A168A1190
:1001880000200A128A1183160313A4000A168A1182
:1001980000200A128A11A5000A168A1100200A12E4
:1001A8008A11A6000A168A1100200A128A11A700CD
:1001B8002708F5002608F4002508F3002408F200B3
:1001C8002308F9002208F8002108F7002008F600A3
:1001D8000A168A11AB250A128A11031CF428F5287D
:1001E8003129093084000A168A1100200A128A115E
:1001F80083160313A4000A168A1100200A128A1112
:10020800A5000A168A1100200A128A11A6000A16E9
:100218008A1100200A128A11A7002708F50026086B
:10022800F4002508F3002408F2002308F900220846
:10023800F8002108F7002008F6000A168A11AB25F5
:100248000A128A11031829292A293129023083160A
:100258000313C5000030C600842C113084000A1630
:100268008A1100200A128A1183160313A4000A16A1
:100278008A1100200A128A11A5000A168A11002084
:100288000A128A11A6000A168A1100200A128A1177
:10029800A7002708F5002608F4002508F30024081D
:1002A800F2002308F9002208F8002108F7002008C6
:1002B800F6000A168A11AB250A128A11031C652951
:1002C8006629A2290D3084000A168A1100200A1214
:1002D8008A1183160313A4000A168A1100200A1231
:1002E8008A11A5000A168A1100200A128A11A6008E
:1002F8000A168A1100200A128A11A7002708F50099
:100308002608F4002508F3002408F2002308F90061
:100318002208F8002108F7002008F6000A168A11BA
:10032800AB250A128A1103189A299B29A22903309E
:1003380083160313C5000030C600842C15308400D2
:100348000A168A1100200A128A1183160313A400C0
:100358000A168A1100200A128A11A5000A168A11A3
:1003680000200A128A11A6000A168A1100200A1211
:100378008A11A7002708F5002608F4002508F300CD
:100388002408F2002308F9002208F8002108F700E1
:100398002008F6000A168A11AB250A128A11031CD6
:1003A800D629D729132A113084000A168A11002069
:1003B8000A128A1183160313A4000A168A11002050
:1003C8000A128A11A5000A168A1100200A128A1137
:1003D800A6000A168A1100200A128A11A700270807
:1003E800F5002608F4002508F3002408F200230885
:1003F800F9002208F8002108F7002008F6000A167C
:100408008A11AB250A128A1103180B2A0C2A132AFF
:10041800043083160313C5000030C600842C19303D
:1004280084000A168A1100200A128A1183160313FF
:10043800A4000A168A1100200A128A11A5000A16B9
:100448008A1100200A128A11A6000A168A110020B1
:100458000A128A11A7002708F5002608F4002508C3
:10046800F3002408F2002308F9002208F800210804
:10047800F7002008F6000A168A11AB250A128A111D
:10048800031C472A482A842A153084000A168A1130
:1004980000200A128A1183160313A4000A168A116F
:1004A80000200A128A11A5000A168A1100200A12D1
:1004B8008A11A6000A168A1100200A128A11A700BA
:1004C8002708F5002608F4002508F3002408F200A0
:1004D8002308F9002208F8002108F7002008F60090
:1004E8000A168A11AB250A128A1103187C2A7D2A5A
:1004F800842A053083160313C5000030C600842CF7
:100508001D3084000A168A1100200A128A118316E7
:100518000313A4000A168A1100200A128A11A500E2
:100528000A168A1100200A128A11A6000A168A11D0
:1005380000200A128A11A7002708F5002608F400EF
:100548002508F3002408F2002308F9002208F8001F
:100558002108F7002008F6000A168A11AB250A12AE
:100568008A11031CB82AB92AF52A193084000A16F8
:100578008A1100200A128A1183160313A4000A168E
:100588008A1100200A128A11A5000A168A11002071
:100598000A128A11A6000A168A1100200A128A1164
:1005A800A7002708F5002608F4002508F30024080A
:1005B800F2002308F9002208F8002108F7002008B3
:1005C800F6000A168A11AB250A128A110318ED2AB9
:1005D800EE2AF52A063083160313C5000030C6003C
:1005E800842C213084000A168A1100200A128A11EC
:1005F80083160313A4000A168A1100200A128A110E
:10060800A5000A168A1100200A128A11A6000A16E5
:100618008A1100200A128A11A7002708F500260867
:10062800F4002508F3002408F2002308F900220842
:10063800F8002108F7002008F6000A168A11AB25F1
:100648000A128A11031C292B2A2B662B1D308400C1
:100658000A168A1100200A128A1183160313A400AD
:100668000A168A1100200A128A11A5000A168A1190
:1006780000200A128A11A6000A168A1100200A12FE
:100688008A11A7002708F5002608F4002508F300BA
:100698002408F2002308F9002208F8002108F700CE
:1006A8002008F6000A168A11AB250A128A110318C7
:1006B8005E2B5F2B662B073083160313C5000030B3
:1006C800C600842C253084000A168A1100200A12DC
:1006D8008A1183160313A4000A168A1100200A122D
:1006E8008A11A5000A168A1100200A128A11A6008A
:1006F8000A168A1100200A128A11A7002708F50095
:100708002608F4002508F3002408F2002308F9005D
:100718002208F8002108F7002008F6000A168A11B6
:10072800AB250A128A11031C9A2B9B2BD72B21303D
:1007380084000A168A1100200A128A1183160313EC
:10074800A4000A168A1100200A128A11A5000A16A6
:100758008A1100200A128A11A6000A168A1100209E
:100768000A128A11A7002708F5002608F4002508B0
:10077800F3002408F2002308F9002208F8002108F1
:10078800F7002008F6000A168A11AB250A128A110A
:100798000318CF2BD02BD72B083083160313C50093
:1007A8000030C600842C293084000A168A110020E3
:1007B8000A128A1183160313A4000A168A1100204C
:1007C8000A128A11A5000A168A1100200A128A1133
:1007D800A6000A168A1100200A128A11A700270803
:1007E800F5002608F4002508F3002408F200230881
:1007F800F9002208F8002108F7002008F6000A1678
:100808008A11AB250A128A11031C0B2C0C2C482CBC
:10081800253084000A168A1100200A128A118316CC
:100828000313A4000A168A1100200A128A11A500CF
:100838000A168A1100200A128A11A6000A168A11BD
:1008480000200A128A11A7002708F5002608F400DC
:100858002508F3002408F2002308F9002208F8000C
:100868002108F7002008F6000A168A11AB250A129B
:100878008A110318402C412C482C09308316031385
:10088800C5000030C600842C293084000A168A115D
:1008980000200A128A1183160313A4000A168A116B
:1008A80000200A128A11A5000A168A1100200A12CD
:1008B8008A11A6000A168A1100200A128A11A700B6
:1008C8002708F5002608F4002508F3002408F2009C
:1008D8002308F9002208F8002108F7002008F6008C
:1008E8000A168A11AB250A128A1103187C2C7D2C52
:1008F800842C0A3083160313C5000030C600842CEC
:10090800831603134508A40001300310A40DFF3E0D
:10091800031D892C0310240D013E84000A168A1138
:1009280000200A128A11A5000A168A1100200A124C
:100938008A11A6000A168A1100200A128A11A70035
:100948000A168A1100200A128A11A80028088312A0
:100958000313B70083160313270883120313B60083
:1009680083160313260883120313B5008316031393
:10097800250883120313B400831603132308831274
:100988000313BB0083160313220883120313BA0050
:1009980083160313210883120313B9008316031364
:1009A800200883120313B8000A168A11FC220A12BF
:1009B8008A11831203133708D9003608D80035087E
:1009C800D7003408D600831603134508A900013060
:1009D8000310A90DFF3E031DEC2C0310290D013E49
:1009E80084000A168A1100200A128A11AA000A161F
:1009F8008A1100200A128A11AB000A168A110020F7
:100A08000A128A11AC000A168A1100200A128A11E9
:100A1800AD002D0883120313B700831603132C08A7
:100A280083120313B600831603132B0883120313D0
:100A3800B500831603132A0883120313B400831620
:100A480003134508AE0001300310AE0DFF3E031D31
:100A5800282D03102E0D053E84000A168A11002049
:100A68000A128A11AF000A168A1100200A128A1186
:100A7800B0000A168A1100200A128A11B1000A165B
:100A88008A1100200A128A11B20032088312031355
:100A9800BB0083160313310883120313BA008316AD
:100AA8000313300883120313B900831603132F08A6
:100AB80083120313B8000A168A11FC220A128A113B
:100AC800831203133708BF003608BE003508BD007F
:100AD8003408BC00831603134508B3000130031023
:100AE800B30DFF3E031D732D0310330D553E8400D7
:100AF8000A168A1100200A128A11B4000A168A11ED
:100B080000200A128A11B5000A168A1100200A125A
:100B18008A11B6000A168A1100200A128A11B70033
:100B2800370883120313B70083160313360883129A
:100B38000313B60083160313350883120313B50095
:100B480083160313340883120313B40083160313A4
:100B58004508B80001300310B80DFF3E031DAF2D46
:100B68000310380D513E84000A168A1100200A121B
:100B78008A11B9000A168A1100200A128A11BA00CD
:100B88000A168A1100200A128A11BB000A168A1155
:100B980000200A128A11BC003C0883120313BB0010
:100BA800831603133B0883120313BA008316031337
:100BB8003A0883120313B900831603133908831202
:100BC8000313B8000A168A11FC220A128A1183122A
:100BD80003133708C3003608C2003508C1003408BB
:100BE800C0000A128A153A200A128A1183120313C6
:100BF8003F08DD003E08DC003D08DB003C08DA0069
:100C08000A128A159F240A128A118312031359089B
:100C180083160313C00083120313580883160313A3
:100C2800BF0083120313570883160313BE008312F1
:100C38000313560883160313BD004508A4000130AA
:100C48000310A40DFF3E031D242E0310240D513E56
:100C580084000A168A1100200A128A11A5000A16B1
:100C68008A1100200A128A11A6000A168A11002089
:100C78000A128A11A7000A168A1100200A128A117C
:100C8800A800280883120313A30083160313270858
:100C980083120313A2008316031326088312031377
:100CA800A10083160313250883120313A0008316DB
:100CB8000313400883120313A700831603133F0886
:100CC80083120313A600831603133E08831203132B
:100CD800A500831603133D0883120313A4000A1208
:100CE8008A1517220A128A118312031323088316FE
:100CF8000313C40083120313220883160313C300CB
:100D080083120313210883160313C20083120313EB
:100D1800200883160313C100293084000A168A119B
:100D280000200A128A11A4000A168A1100200A1249
:100D38008A11A5000A168A1100200A128A11A60033
:100D48000A168A1100200A128A11A7002708F5003E
:100D58002608F4002508F3002408F2002308F90007
:100D68002208F8002108F7002008F6000A168A1160
:100D7800AB250A128A11031CC22EC32ECD2E423077
:100D880083160313C4008C30C3000030C200003047
:100D9800C100293084000A168A1100200A128A111B
:100DA80083160313A4000A168A1100200A128A1156
:100DB800A5000A168A1100200A128A11A6000A162E
:100DC8008A1100200A128A11A7002708F5002608B0
:100DD800F4002508F3002408F2002308F90022088B
:100DE800F8002108F7002008F6000A168A11AB253A
:100DF8000A128A110318012F022F0C2F3D30831677
:100E08000313C400F530C300C230C2008F30C100E4
:100E1800831603134408A3004308A2004208A10054
:100E28004108A000080083120313A000200803193A
:100E38001E2F1F2F332FF51F222F232F332F720919
:100E4800A2007309A3007409A4007509A500A20AE9
:100E58000319A30A0319A40A0319A50A3B2F750845
:100E6800A5007408A4007308A3007208A2007508FE
:100E7800740473047204031D422F432F4C2F003057
:100E8800F5000030F4000030F3000030F200D22FFB
:100E98009630FF007F08A1005E2F0130FF007F0819
:100EA800A10701300310A50CA40CA30CA20CFF3E53
:100EB800031D562FFE302505031D632F642F512F68
:100EC800802F0130FF007F08A1070130A207003002
:100ED80003180130A307003003180130A4070030BD
:100EE80003180130A50701300310A50CA40CA30CAE
:100EF800A20CFF3E031D782FFF302505031D852F0B
:100F0800862F652F922F0130A1020130F6000310C1
:100F1800A20DA30DA40DA50DF60B8B2FA41B952FC9
:100F2800962F9C2F0230210203189B2F9C2F872F6E
:100F380021189F2FA02FA82FFF30A205FF30A3054F
:100F48007F30A405FF30A5050310A10C2108F60089
:100F5800F701F801F90118300310F60DF70DF80D37
:100F6800F90DFF3E031DB02F7608A2047708A304ED
:100F78007808A4047908A50420080319C42FC52FEC
:100F8800CA2FF51FC82FC92FCA2FA5172508F50086
:100F98002408F4002308F3002208F20008000A16C7
:100FA8008A1197230A128A110A168A11D1220A1263
:100FB8008A110A168A1189220A128A1183160313C2
:100FC8005C08031DE82FE92FE22FDC010A168A11BD
:100FD8009D220A128A1183160313C701C70AC80182
:100FE80000300A168A1127250A128A11E22F0A12DE
:040FF8008A110C2826
:10100000720873040319052806283528F601F60A24
:10101000142801300310F20DF30DFF3E031D0A28C2
:101020000130FF007F08F607F31F1728182809284A
:1010300073087502031D1E2872087402031C212800
:10104000222828287208F4027308031CF503F5020D
:1010500001300310F30CF20CFF3E031D2928013070
:10106000F602031D3428352818287508F300740883
:10107000F20008008312031343088039FF007F0841
:10108000CD004308C4004407FF007F08D400C21FFE
:101090004A284B284C285414540803195028512826
:1010A0006128540A031D552856285E280030C300C5
:1010B0000030C2000030C1000030C000C217C301C0
:1010C00069280030C3000030C2000030C100003089
:1010D000C0003F088039FF007F08CD063F08C400EC
:1010E0004407FF007F08D500BE1F7728782879289D
:1010F0005514550803197D287E288E28550A031D8E
:10110000822883288B280030BF000030BE000030CA
:10111000BD000030BC00BE17BF0196280030BF00E4
:101120000030BE000030BD000030BC003F083E046F
:101130003D043C04031D9D289E28B7280030C300B1
:101140000030C2000030C1000030C0008030C20456
:101150007F30C3044D08FF007F08C3044308BF006D
:101160004208BE004108BD004008BC00162A5408D1
:10117000031DBB28BC28C5280030BF000030BE00BE
:101180000030BD000030BC00162A5408C400C50160
:101190004508C70055084402C600031CC70346089B
:1011A0007F3ECE0047080318013E003ECF004308B3
:1011B000CC004208CB004108CA004008C9000030FA
:1011C000C3000030C2000030C1000030C000003059
:1011D000D3000030D2000030D1000030D000D50163
:1011E0003B2955080319F528F62816290130C400B3
:1011F0000310C90DCA0DCB0DCC0DC40BF82801305E
:10120000C4000310C00DC10DC20DC30DC40B0129D4
:10121000D31F0B290C290D2940140130C4000310E1
:10122000D00DD10DD20DD30DC40B0F293F084C02A8
:10123000031D24293E084B02031D24293D084A02B0
:10124000031D24293C084902031C27292829372982
:1012500053173C08C9023D08031C3D0FCA023E0853
:10126000031C3E0FCB023F08031C3F0FCC02013092
:10127000FF007F08D5071A305502031C4029412979
:10128000F1284C084B044A04490403194829492908
:101290006829501468290130C4000310C00DC10D25
:1012A000C20DC30DC40B4D29D31F572958295929E5
:1012B00040140130C4000310D00DD10DD20DD30D58
:1012C000C40B5B29FF30CE070318CF0AFF30CF07CE
:1012D000C21F6B296C294B29D501D31F7029712995
:1012E0008D29FF305005C400FF305105C500FF3087
:1012F0005205C6007F305305C70047084604450421
:1013000044040319842985298829D501D50A8D2902
:10131000401C8B298C298D29852955080319912971
:101320009229C3290130C007003003180130C107DA
:10133000003003180130C207003003180130C30722
:10134000431CA329A429C3294008C4004108C5009F
:101350004208C6004308C7000130C800470DC70C4B
:10136000C60CC50CC40CC80BAE294708C300460800
:10137000C2004508C1004408C0000130CE07031870
:10138000CF0A0030CF074F08803AFF0080307F023D
:10139000031DCC29FF304E02031CCF29D029DE29A2
:1013A000FF3083120313CE000030CF000030C300A3
:1013B0000030C2000030C1000030C00083120313AF
:1013C0004F08803AFF0080307F02031DE929013079
:1013D0004E020318EC29ED29FA2983120313CE01DA
:1013E000CF010030C3000030C2000030C100003027
:1013F000C000CD01831203134E08FF007F08D40004
:10140000541C032A042A062AC2170A2A7F30FF0026
:101410007F08C2055408C4000310440CFF007F0875
:10142000C3004D08FF007F08C304AE2808008312E4
:10143000031323088039FF007F08B0002308A800A9
:101440002807FF007F08B200A21F272A282A292A7E
:101450003214320803192D2A2E2A3E2A320A031D7D
:10146000322A332A3B2A0030A3000030A200003089
:10147000A1000030A000A217A301462A0030A3005B
:101480000030A2000030A1000030A0002708803901
:10149000FF007F08B100310830060319502A512A95
:1014A000522A30172708A8002807FF007F08B1003C
:1014B000A61F5B2A5C2A5D2A311431080319612AB0
:1014C000622A722A310A031D662A672A6F2A0030AF
:1014D000A7000030A6000030A5000030A400A61729
:1014E000A7017A2A0030A7000030A6000030A5002E
:1014F0000030A4003208310203187F2A802AC42A4F
:10150000301F832A842A882A8030FF007F08B00693
:101510003208FF007F08B3003108FF007F08B200E7
:101520003308FF007F08B1002008FF007F08B300E8
:101530002408FF007F08A0003308FF007F08A400F4
:101540002108FF007F08B3002508FF007F08A100E5
:101550003308FF007F08A5002208FF007F08B300C2
:101560002608FF007F08A2003308FF007F08A600BE
:101570002308FF007F08B3002708FF007F08A300AF
:101580003308FF007F08A700B3013108A800A901B4
:101590002908AB0032082802AA00031CAB032B0861
:1015A000803AFF0080307F02031DD82A1A302A02B9
:1015B000031CDB2ADC2A192B8312031323082204C1
:1015C00021042004031DE52AE72A0130E82A00301F
:1015D000FF007F08B3000030A3000030A2000030FD
:1015E000A1000030A0003108FF007F08B200212BCD
:1015F000331CFB2AFC2A052B3308A8000310280CF7
:101600000138FF007F08B300072B0310B30C201C28
:101610000A2B0B2B0C2BB3170130A800230DA30CA6
:10162000A20CA10CA00CA80B0E2B0130FF007F0810
:10163000B2078312031331083202031C202B212B23
:10164000F82A301B242B252B702B3208031D292B45
:101650002A2B332B0030A3000030A2000030A10061
:101660000030A0009E2C2408A007250803110318B1
:10167000013E03193C2BA107260803110318013E64
:101680000319432BA207270803110318013E03196E
:101690004A2BA307231C4D2B4E2B242C331C512BE0
:1016A000522B5B2B3308A8000310280C0138FF00D5
:1016B0007F08B3005D2B0310B30C201C602B612B43
:1016C000622BB3170130A800230DA30CA20CA10CB0
:1016D000A00CA80B642B0130FF007F08B207242C5C
:1016E0002308803AFF002708803A7F02031D822BDF
:1016F00026082202031D822B25082102031D822BAE
:10170000240820020318852B862BDE2BFF30A8002F
:10171000FF30A900FF30AA00FF30AB002408AC0066
:101720002508AD002608AE002708AF002008AC024F
:101730002108031C210F9D2B9E2BAD022208031CA8
:10174000220FA32BA42BAE022308031C230FA92BCB
:10175000AA2BAF022C08A8072D0803182D0FB12BB8
:10176000B22BA9072E0803182E0FB72BB82BAA07E8
:101770002F0803182F0AAB072B08A3002A08A20082
:101780002908A1002808A0008030FF007F08B006CB
:10179000B309B30A3308031DCE2BCF2BEC2B01303A
:1017A000A007003003180130A107003003180130F2
:1017B000A207003003180130A307EC2B2408A00275
:1017C0002508031C250FA1022608031C260FA202D0
:1017D0002708031C270FA302230822042104200446
:1017E000031DF32BF42B202C3308031DF82BF92BAE
:1017F000202C0030A3000030A2000030A1000030F7
:10180000A0009E2C0130A8000310A00DA10DA20D78
:10181000A30DA80B042CB31F0E2C0F2C102C20147E
:10182000331C132C142C172C0314B30D192C031078
:10183000B30D320803191D2C1E2C202C0130B202CE
:10184000A21F232C242C022CB101B31F282C292CDD
:10185000372C33087F3903192E2C2F2C322CB10151
:10186000B10A372C201C352C362C372C2F2C310864
:1018700003193B2C3C2C702C0130A00700300318BE
:101880000130A107003003180130A207003003180F
:101890000130A307231C4D2C4E2C702C2008A800CF
:1018A0002108A9002208AA002308AB000130AC00DF
:1018B0002B0DAB0CAA0CA90CA80CAC0B582C2B08AC
:1018C000A3002A08A2002908A1002808A000320AC3
:1018D00003196B2C6C2C702C0130FF007F08B207B1
:1018E000320A0319742C752C7A2C3208031D792CBA
:1018F0007A2C882C0030A3000030A2000030A10018
:101900000030A0003208031D862C872C882CB001E3
:10191000321C8B2C8C2C8E2CA217922C7F30FF002B
:101920007F08A2053208A8000310280CFF007F08DA
:10193000A300B01F9C2C9D2C9E2CA3170800831283
:10194000031359088039FF007F08E3005908DE00BF
:101950005E07FF007F08E900D81FAF2CB02CB12C28
:10196000691469080319B52CB62CC52C690A031D26
:10197000BA2CBB2CC32C0030D9000030D80000306A
:10198000D7000030D600D817CD2C0030D900003059
:10199000D8000030D7000030D6005D088039FF0045
:1019A0007F08E3065D08DE005E07FF007F08E800B1
:1019B000DC1FDB2CDC2CDD2C681468080319E12CFF
:1019C000E22CF12C680A031DE62CE72CEF2C0030EA
:1019D000DD000030DC000030DB000030DA00DC1716
:1019E000F92C0030DD000030DC000030DB0000307E
:1019F000DA0068080319FD2CFE2C032D6908031D6D
:101A0000022D032D0C2D0030D9000030D8000030FD
:101A1000D7000030D600FF2F5608FF007F08F200E5
:101A20005C080A168A1145230A128A157308831264
:101A30000313EF007208EE006E08DE00DF01E00124
:101A4000E1016108E7006008E6005F08E5005E0864
:101A5000E4006F08DE00DF01E001E1016108ED0054
:101A60006008EC005F08EB005E08EA005708FF0022
:101A70007F08F2005B080A168A1145230A128A15AC
:101A8000730883120313EF007208EE006E08DE0085
:101A9000DF01E001E1015E08E4075F0803110318BC
:101AA000013E0319542DE507600803110318013E98
:101AB00003195B2DE607610803110318013E0319A2
:101AC000622DE7076F08DE00DF01E001E1015E083B
:101AD000EA075F0803110318013E0319702DEB0795
:101AE000600803110318013E0319772DEC07610804
:101AF00003110318013E03197E2DED075808FF005E
:101B00007F08F2005A080A168A1145230A128A151C
:101B1000730883120313EF007208EE006E08DE00F4
:101B2000DF01E001E1015E08E4075F08031103182B
:101B3000013E03199C2DE507600803110318013EBF
:101B40000319A32DE607610803110318013E0319C9
:101B5000AA2DE7076F08DE00DF01E001E1015E0862
:101B6000EA075F0803110318013E0319B82DEB07BC
:101B7000600803110318013E0319BF2DEC0761082B
:101B800003110318013E0319C62DED070830DE00CE
:101B90000310E40DE50DE60DE70DDE0BC82D57082B
:101BA000FF007F08F2005A080A168A1145230A121C
:101BB0008A15730883120313EF007208EE006E0893
:101BC000DE006F08DF00E001E1015E08E4075F0866
:101BD00003110318013E0319EE2DE50760080311F8
:101BE0000318013E0319F52DE607610803110318D8
:101BF000013E0319FC2DE7075608FF007F08F2009D
:101C00005B080A168A1145230A128A157308831283
:101C10000313EF007208EE006E08DE006F08DF00AD
:101C2000E001E1015E08E4075F0803110318013ECB
:101C300003191B2EE507600803110318013E031961
:101C4000222EE607610803110318013E0319292E0D
:101C5000E7070830DE000310E40DE50DE60DE70DA3
:101C6000DE0B2B2E5608FF007F08F2005A080A16DA
:101C70008A1145230A128A15730883120313EF0091
:101C80007208EE006E08DE006F08DF00E001E1017F
:101C90005E08E4075F0803110318013E0319512E83
:101CA000E507600803110318013E0319582EE607E3
:101CB000610803110318013E03195F2EE707570857
:101CC000FF007F08F2005C080A168A1145230A12F9
:101CD0008A15730883120313EF007208EE006E0872
:101CE000DE006F08DF00E001E1015E08EA075F083F
:101CF00003110318013E03197E2EEB076008031140
:101D00000318013E0319852EEC076108031103181F
:101D1000013E03198C2EED075808FF007F08F200E2
:101D20005B080A168A1145230A128A157308831262
:101D30000313EF007208EE006E08DE006F08DF008C
:101D4000E001E1015E08EA075F0803110318013EA4
:101D50000319AB2EEB07600803110318013E0319AA
:101D6000B22EEC07610803110318013E0319B92EC6
:101D7000ED075808FF007F08F2005C080A168A1178
:101D800045230A128A15730883120313EF007208A1
:101D9000EE006E08DE006F08DF00E001E1010830B0
:101DA0000310DE0DDF0DE00DE10DFF3E031DD02E13
:101DB0005E08EA075F0803110318013E0319E12ECC
:101DC000EB07600803110318013E0319E82EEC0726
:101DD000610803110318013E0319EF2EED07640893
:101DE000DE006508DF006608E0006708E1001830E3
:101DF0000310E10CE00CDF0CDE0CFF3E031DF82E9F
:101E00005E08EA075F0803110318013E0319092F52
:101E1000EB07600803110318013E0319102FEC07AC
:101E2000610803110318013E0319172FED0708304D
:101E3000DE000310E40DE50DE60DE70DDE0B192FB6
:101E400069086807DE00DF01DF0D5E08823EEE00F4
:101E50005F080318013EFF3EEF004B2F0130DE000C
:101E60000310EA0DEB0DEC0DED0DDE0B302FE71F2F
:101E70003A2F3B2F3C2F6A140130DE000310E40D93
:101E8000E50DE60DE70DDE0B3E2FFF30EE070318E4
:101E9000EF0AFF30EF07EC1F4E2F4F2F2E2FE801D8
:101EA000E71F532F542F702FFF306405DE00FF30E3
:101EB0006505DF00FF306605E0007F306705E10063
:101EC000610860045F045E040319672F682F6B2F9D
:101ED000E801E80A702F6A1C6E2F6F2F702F682F91
:101EE00068080319742F752FA62F0130EA070030F8
:101EF00003180130EB07003003180130EC07003005
:101F000003180130ED076D1C862F872FA62F6A0856
:101F1000DE006B08DF006C08E0006D08E1000130B6
:101F2000E200610DE10CE00CDF0CDE0CE20B912F06
:101F30006108ED006008EC005F08EB005E08EA0055
:101F40000130EE070318EF0A0030EF076F08803A00
:101F5000FF0080307F02031DAF2FFF306E02031C95
:101F6000B22FB32FBE2F7F3083120313ED008030CA
:101F7000EC000030EB000030EA00F32F8312031373
:101F80006F08803AFF0080307F02031DC92F0130A7
:101F90006E020318CC2FCD2FD92F003083120313DC
:101FA000ED000030EC000030EB000030EA00E3010F
:101FB000F32F831203136E08FF007F08E900FF3040
:101FC000EA05FF30EB057F30EC050030ED05691CBC
:101FD000EA2FEB2FEC2FEC176908DE0003105E0CE4
:101FE000FF007F08ED006308FF007F08ED046D0827
:101FF000D9006C08D8006B08D7006A08D600080022
:1020000010308A000408840A820700340034003447
:10201000FA344434003440341C34453400348034C1
:10202000223445340034C03428344534003440343C
:102030003534453400340034483445340034803479
:10204000543445340034C0345A3445340034C03438
:1020500073344534003460348634453400340034FD
:10206000963445340034E034AB34453400348034A5
:10207000D43445340034D034043446340034E034AD
:102080002B344634003400347A3446340034F0348F
:10209000D23446340034C8342F3447340034E83462
:1020A0007D34473400348C34B93447340034003440
:1020B0008C344234003400340C3442340034003464
:1020C000F034413400340034E0344134003400341E
:1020D000C834413400340034A03441340034003476
:1020E00098344134003400349034413400340034A6
:1020F00070344134003400345034413400340034FE
:102100002034413400340034E0344034CD34CC3415
:10211000AC34403400340034803440340034003473
:1021200040344034CD34CC340C34403400340034AA
:10213000C0343F346634663466343F3466346634C3
:10214000E6343E348F34C234F5343D3420344E34DA
:08215000203400340A3400348D
:1024FA00831203131E080800831203139F149F18E4
:10250A00872A882A842A0800831203138816EF3040
:10251A00FF007F0888050800F20083160313981C41
:10252A00972A982A922A720883120313990008009C
:10253A00031083120313061C03140318A52AA92ADD
:10254A00831203130614AC2A83120313061008001D
:10255A00F200103072020318B32AB42ABE2AF030ED
:10256A00FF007F088312031388057208FF007F08A3
:10257A0088040800F30073080A168A11AD220A16A5
:10258A008A110A168A1181220A168A110A168A11D2
:10259A007D220A168A1108007730831203179000E9
:1025AA00831203139011901310131016901610151E
:1025BA001014831603138F130C14080083120313C9
:1025CA000C1CE82AE92AF02A83160313DC01DC0A28
:1025DA00831203130C100D1EF32AF42AF52A0D1286
:1025EA0071088A00700E8300FE0E7E0E090080308C
:1025FA0083120313B7063B08A3003A08A20039085E
:10260A00A1003808A0003708A7003608A600350838
:10261A00A5003408A4000A128A1517220A168A117C
:10262A00831203132308B7002208B6002108B50055
:10263A002008B4000800F500F301F401372B7308F1
:10264A00750784000A168A1100200A168A110A16CA
:10265A008A1191220A168A110130F3070318F40A23
:10266A000030F4077308750784000A168A110020DF
:10267A000A168A11003A031D432B442B242B080007
:10268A00FA00F601F7017208F400F5017408F8007F
:10269A007508F9007A1C522B532B592B7808F60728
:1026AA000318F70A7908F70701300310F80DF90D36
:1026BA00FF3E031D5A2B0310FA0C7A08031D662BE2
:1026CA00672B4F2B7708F3007608F2000800FC30DE
:1026DA00831603138700193099001808DF39980008
:1026EA001808013898001808FB3998008312031358
:1026FA001808203898001808DF3998001808043894
:10270A009800180802389800831603131808EF393E
:10271A009800180820389800831203131808803884
:10272A009800080083160313950183160317860180
:10273A00FE30831603138600303090000C301005EB
:10274A00F2000C307206031DAB2BAC2BA32B8316A5
:10275A0003178801FF30831603138500C0308800F1
:10276A000A168A116C230A168A1101308316031776
:10277A0085000130831203139F0060308316031310
:10278A009F009D01831203179301603093009317F2
:10279A00183094000800F500750C83120313031C0B
:1027AA00071003180714720C031C871003188714E8
:1027BA007508031DE12BE22BEC2B7208031DE62B97
:1027CA00E72BEC2B2030F200CB30F300092C7508F4
:1027DA00031DF02BF12BFB2B7203031DF52BF62B9C
:1027EA00FB2BF030F2000A30F300092C7503031DAD
:1027FA00FF2B002C092C7208031D042C052C092C14
:10280A006C30F2002030F3000800F601F70172087C
:10281A0073040319112C122C492CF801F80A202CE4
:10282A0001300310F20DF30DFF3E031D162C01308B
:10283A00FF007F08F807F31F232C242C152C0130E6
:10284A000310F60DF70DFF3E031D252C73087502C4
:10285A00031D312C72087402031C342C352C3C2CB9
:10286A007208F4027308031CF503F50276140130AA
:10287A000310F30CF20CFF3E031D3D2C0130F8024D
:10288A00031D482C492C242C7708F3007608F20003
:10289A000800FB00433083120313BF008030BE00E0
:1028AA000030BD000030BC004030D900A030D80054
:1028BA000030D7000030D6007B0883160313A4002B
:1028CA00A501A601A7012708F5002608F400250896
:1028DA00F3002408F20000300A128A1117270A1698
:1028EA008A11750883120313DD007408DC0073086B
:1028FA00DB007208DA000A128A159F240A168A1166
:10290A00831203135908C3005808C2005708C100AC
:10291A005608C0000A128A153A200A168A1183122A
:10292A0003133F0883160313A300831203133E08FD
:10293A0083160313A200831203133D08831603139D
:10294A00A100831203133C0883160313A000080096
:10295A000310740D750DFF007F08FB007B08031D33
:10296A00B72CB82CC12C0030F5000030F400003030
:10297A00F3000030F200262D7208F6007308F70003
:10298A007408F8007508F9001F300310F90CF80CE8
:10299A00F70CF60CFF3E031DCA2C7608FF007F08D1
:1029AA00FA00F417FF30F205FF30F305FF30F405A3
:1029BA000030F5059630FB02FB1FE42CE52CFF2CBA
:1029CA007B08803A973E0318EB2CEC2CED2CB82CA4
:1029DA0001300310F50CF40CF30CF20CFF3E031D4E
:1029EA00EE2C0130FF007F08FB07031DFD2CFE2C97
:1029FA00ED2C162D20307B02031C042D052D112DE4
:102A0A00B82C0130F6000310F20DF30DF40DF50D9C
:102A1A00F60B082D0130FB027B08031D152D162D20
:102A2A00062D7A0803191A2D1B2D262DF209F309F2
:102A3A00F409F509F20A0319F30A0319F40A031946
:102A4A00F50A080083160313D6004708FF007F081B
:102A5A00F20056080A168A11D0230A168A11730838
:102A6A0083160313D5007208D40048080A168A117F
:102A7A00BF220A168A11FF007F0883160313D700A4
:102A8A0057080A168A114E240A168A118316031346
:102A9A002308CF002208CE002108CD002008CC0050
:102AAA004F08A3004E08A2004D08A1004C08A00040
:102ABA005508A5005408A4000A168A114F260A16BA
:102ACA008A11831603132308D3002208D20021088F
:102ADA00D1002008D0005308A3005208A2005108D0
:102AEA00A1005008A0000A128A1116200A168A119B
:102AFA00831603132308DB002208DA002108D90011
:102B0A002008D8005B08A3005A08A2005908A100AF
:102B1A005808A0000A168A11FC260A168A11A13042
:102B2A000A168A1120230A168A11A5300A168A1152
:102B3A0020230A168A11831603135B08CA005A084F
:102B4A00C9005908C8005808C700080000307205B3
:102B5A0083120313A00000307305A10080307405AE
:102B6A00A2007F307505A300230822042104200453
:102B7A00031DC02DC12DC92D0030F5000030F40011
:102B8A000030F3000030F20000307605A00000307B
:102B9A007705A10080307805A2007F307905A3006F
:102BAA002308220421042004031DDC2DDD2DE52D3C
:102BBA000030F9000030F8000030F7000030F6006D
:102BCA00F51FE82DE92D0D2E0030A0000030A100E0
:102BDA000030A2008030A3007208A0027308031C10
:102BEA00730FF82DF92DA1027408031C740FFE2D22
:102BFA00FF2DA2027508031C750F042E052EA302D1
:102C0A002308F5002208F4002108F3002008F20046
:102C1A00F91F102E112E352E0030A0000030A10011
:102C2A000030A2008030A3007608A0027708031CB7
:102C3A00770F202E212EA1027808031C780F262E4A
:102C4A00272EA2027908031C790F2C2E2D2EA302FF
:102C5A002308F9002208F8002108F7002008F600E6
:102C6A008030F5068030F90679087502031D472E73
:102C7A0078087402031D472E77087302031D472E36
:102C8A007608720203184A2E4B2E4D2E03104E2E32
:102C9A0003140800831603132408F2002508F3001E
:102CAA00F401F50100300A128A1117270A168A114F
:102CBA00750883160313A9007408A8007308A700EF
:102CCA007208A600403083120313D9000030D800DE
:102CDA000030D7000030D60083160313230883126E
:102CEA000313DD0083160313220883120313DC0087
:102CFA0083160313210883120313DB0083160313BD
:102D0A00200883120313DA000A128A159F240A166E
:102D1A008A11831203135908B7005808B6005708D6
:102D2A00B5005608B4004030BB00A030BA000030ED
:102D3A00B9000030B8000A168A11FC220A168A1154
:102D4A00831203133708BF003608BE003508BD00DA
:102D5A003408BC004030D900A030D8000030D70079
:102D6A000030D60083160313290883120313DD00EB
:102D7A0083160313280883120313DC008316031334
:102D8A00270883120313DB00831603132608831212
:102D9A000313DA000A128A159F240A168A1183126B
:102DAA0003135908C3005808C2005708C10056083F
:102DBA00C0000A128A153A200A168A1183120313CE
:102DCA003F0883160313A300831203133E088316D6
:102DDA000313A200831203133D0883160313A100F1
:102DEA00831203133C0883160313A0000800423021
:102DFA0083120313D900C830D8000030D70000303E
:102E0A00D60083160313230883120313DD008316E7
:102E1A000313220883120313DC0083160313210809
:102E2A0083120313DB008316031320088312031390
:102E3A00DA000A128A159F240A168A1183120313CA
:102E4A00590883160313A300831203135808831621
:102E5A000313A20083120313570883160313A10056
:102E6A0083120313560883160313A0002308F500E0
:102E7A002208F4002108F3002008F2000A168A1139
:102E8A00AD240A168A11730883160313A500720863
:102E9A00A4001030F2002730F3002508F5002408BA
:102EAA00F4000A128A1500200A168A11730883167A
:102EBA000313A5007208A400E830F2000330F300FF
:102ECA002508F5002408F4000A168A110A240A16AD
:102EDA008A117208303EFF007F0883160313A80088
:102EEA0028080A168A1191220A168A11E830F20075
:102EFA000330F300831603132508F5002408F400B1
:102F0A000A128A1500200A168A11730883160313F7
:102F1A00A5007208A4006430F2000030F30025080E
:102F2A00F5002408F4000A168A110A240A168A11DE
:102F3A007208303EFF007F0883160313A900290890
:102F4A000A168A1191220A168A112E300A168A1135
:102F5A0091220A168A116430F2000030F3008316B7
:102F6A0003132508F5002408F4000A128A15002024
:102F7A000A168A11730883160313A5007208A4009F
:102F8A000A30F2000030F3002508F5002408F400A6
:102F9A000A168A110A240A168A117208303EFF009C
:102FAA007F0883160313AA002A080A168A11912297
:102FBA000A168A110A30F2000030F300831603134E
:102FCA002508F5002408F4000A128A1500200A16BA
:102FDA008A11730883160313A5007208A400240833
:102FEA00303EFF007F08AB002B080A168A11912297
:062FFA000A168A1108000E
:04400E00F53FFFFF7C
:00000001FF
