:060000000A128A110C280F
:10000800FE00030EF0000A08F1000A168A15012BFB
:100018000A128A110F2883160313EB0183010A16AB
:100028008A15D92E83160313C100A130FF007F085B
:10003800AE007A2F253044060319232824283028B7
:100048004408FF00410884007F08831380000130C2
:10005800FF007F08C1077A2FB501B601B301B401CB
:10006800200884000A168A1500200A128A110A1626
:100078008A1105200A128A11031C4328442884285F
:1000880083160313B501B6010A30F2000030F300FD
:10009800831603133608F5003508F4000A168A1586
:1000A8005F230A128A11730883160313B6007208B5
:1000B800B500200884000A168A1500200A128A1141
:1000C800D03EA500FF3003180030A6002508B5076C
:1000D8000318B60A2608B6070130FF007F08A007F4
:1000E800200884000A168A1500200A128A110A16A6
:1000F8008A1105200A128A1103188328842848289F
:1001080083160313200884000A168A1500200A1291
:100118008A112E3A031D91289228D72834170130C6
:10012800FF007F08A007C201C301C6280A30F200F9
:100138000030F300831603134308F5004208F40067
:100148000A168A155F230A128A1173088316031385
:10015800C3007208C200200884000A168A1500200D
:100168000A128A11D03EA500FF3003180030A600FD
:100178002508C2070318C30A2608C3070130FF0071
:100188007F08A007200884000A168A1500200A1292
:100198008A110A168A1105200A128A110318D5280D
:1001A800D6289A28DD28C201C3013416DD28341563
:1001B800F928013083160313A007FF3020078400B5
:1001C8000A168A1500200A128A11C400A500A60181
:1001D8002608003A0319F1287A2F2508003A03194E
:1001E8008C2F663A0319DB287A2F00303305A500D7
:1001F80007303405A6002508260403190429052913
:10020800B72E341E082909290D290630C2000030EE
:10021800C3002E08840083130008BD00840A000868
:10022800BE00840A0008BF00840A0008C000043029
:10023800FF007F08AE074008F5003F08F4003E08BD
:10024800F3003D08F2000030F9000030F8000030FB
:10025800F7000030F6000A168A155C270A128A1180
:100268000318372938295529831603134008F50040
:100278003F08F4003E08F3003D08F2000A168A150C
:10028800A4220A128A11750883160313C000740881
:10029800BF007308BE007208BD000330B30400300D
:1002A800B40483160313BB01BC014008F5003F08E2
:1002B800F4003E08F3003D08F2000030F900003079
:1002C800F8000030F7000030F6000A168A158F246F
:1002D8000A128A11031871297229622A03108316D7
:1002E80003133F0D400D823EBB00FF300318003062
:1002F800BC00FF30BB070318BC0AFF30BC07033043
:10030800F2000030F3003C08F5003B08F4000A1640
:100318008A155F230A128A11730883160313BC0017
:100328007208BB000A30F8000030F9003C08FB00F6
:100338003B08FA000A168A15F4250A128A11790868
:1003480083160313BC007808BB00BC1FAC29AD2979
:10035800B329FF30BB070318BC0AFF30BC073B03B7
:10036800FF3A0A128A1540210A128A1183120313CE
:10037800410883160313BA00831203134008831637
:100388000313B900831203133F0883160313B8003D
:10039800831203133E0883160313B7004008831221
:1003A8000313A700831603133F0883120313A60041
:1003B800831603133E0883120313A5008316031341
:1003C8003D0883120313A400831603133A0883120B
:1003D8000313AB0083160313390883120313AA000F
:1003E80083160313380883120313A9008316031313
:1003F800370883120313A8000A128A159F240A12C9
:100408008A1183120313270883160313BA00831271
:100418000313260883160313B90083120313250850
:1004280083160313B80083120313240883160313D7
:10043800B7003A08F5003908F4003808F30037081F
:10044800F2003F30F9008030F8000030F70000304B
:10045800F6000A168A155C270A128A110318352A2B
:10046800362A3F2AFF3083160313BB070318BC0A3A
:10047800FF30BC07622A831603133A08F5003908CF
:10048800F4003808F3003708F2004130F900203052
:10049800F8000030F7000030F6000A168A155C27CD
:1004A8000A128A11031C592A5A2A622A0130831611
:1004B8000313BB070318BC0A0030BC0783160313D9
:1004C8004308803AFF0080307F02031D6D2A0D30FB
:1004D80042020318702A712AB82A831603134208A5
:1004E8000A168A116D230A128A118312031341080E
:1004F800D5004008D4003F08D3003E08D200831638
:100508000313400883120313D900831603133F080B
:1005180083120313D800831603133E0883120313B0
:10052800D700831603133D0883120313D6000A1657
:100538008A1178250A128A11831203135508831623
:100548000313C00083120313540883160313BF0058
:1005580083120313530883160313BE008312031375
:10056800520883160313BD00831603133C08803A10
:10057800FF0080307F02031DC32A0A303B020318A4
:10058800C62AC72A182B831603134008F5003F080C
:10059800F4003E08F3003D08F2000030F900003096
:1005A800F8000030F7000030F6000A168A158F248C
:1005B8000A128A110318E12AE22A8A2B83160313E6
:1005C800400883120313D400831603133F088312D1
:1005D8000313D300831603133E0883120313D200B8
:1005E800831603133D0883120313D1000A168A15D4
:1005F8005D260A128A118312031354085304520405
:100608005104031D082B092B8A2B831603133C085E
:10061800803AFF0080307F02031D142B02303B021A
:10062800031C172B182B8A2B831603133A08F50083
:100638003908F4003808F3003708F2004030F900B0
:100648008930F8007030F7005F30F6000A168A1516
:100658005C270A128A110318322B332B3C2BF730F4
:1006680083160313BB070318BC0AFF30BC07442BCF
:10067800F83083160313BB070318BC0AFF30BC0706
:100688003B080A128A1540210A128A1183120313A1
:10069800410883160313BA00831203134008831614
:1006A8000313B900831203133F0883160313B8001A
:1006B800831203133E0883160313B7004008F5009E
:1006C8003F08F4003E08F3003D08F2003A08F9003C
:1006D8003908F8003808F7003708F6000A128A15B2
:1006E80082200A128A11750883160313B20074084F
:1006F800B1007308B0007208AF000030C0000030CD
:10070800BF000030BE000030BD000E2C831603135E
:10071800400883120313D400831603133F0883127F
:100728000313D300831603133E0883120313D20066
:10073800831603133D0883120313D1000A168A1582
:100748005D260A128A1183120313540883160313B1
:10075800B20083120313530883160313B1008312E4
:100768000313520883160313B000831203135108AE
:1007780083160313AF003208F5003108F40030087F
:10078800F3002F08F20000300A168A1117200A1207
:100798008A11750883120313E9007408E8007308C6
:1007A800E7007208E6008316031340088312031358
:1007B800ED00831603133F0883120313EC0083161E
:1007C80003133E0883120313EB00831603133D083B
:1007D80083120313EA000A168A153B230A128A11A8
:1007E80083120313690883160313C00083120313CB
:1007F800680883160313BF00831203136708831660
:100808000313BE0083120313660883160313BD0087
:10081800BB01BC01C401C40A4408A500013003108F
:10082800A50DFF3E031D132C0310250D693E840002
:100838000A168A1500200A128A11A6000A168A15B5
:1008480000200A128A11A7000A168A1500200A1227
:100858008A11A8000A168A1500200A128A11A9000E
:1008680029083202031D422C28083102031D422C9C
:1008780027083002031D422C26082F020318452C96
:10088800462C472C512C0130FF007F08C4070A3042
:100898004406031D502C512C102C44084207A50077
:1008A80043080318430AA6003B082507A7003C088D
:1008B80003183C0A2607A8002708B5022808031CC5
:1008C800B603B6024208430403196B2C6C2C722C35
:1008D800FF30B5070318B60AFF30B60703303305F3
:1008E800A50000303405A6002508260403197D2C30
:1008F8007E2C932CFF30B5070318B60AFF30B607D5
:10090800932C2030FF0083160313410884007F08CE
:10091800831380000130FF007F08C1077E2C360852
:10092800803AFF0080307F02031D9C2C0130350285
:1009380003189F2CA02C852C033083160313330532
:10094800A50000303405A600250826040319AD2C9F
:10095800AE2C202D2D30FF00410884007F08831322
:1009680080000130FF007F08C107202D4408A50042
:1009780001300310A50DFF3E031DBD2C0310250DEE
:10098800693E84000A168A1500200A128A11F200AC
:100998000A168A1500200A128A11F3000A168A1507
:1009A80000200A128A11F4000A168A1500200A1279
:1009B8008A11F5003208F9003108F8003008F7000C
:1009C8002F08F6000A168A158C250A128A1175084E
:1009D80083160313BA007408B9007308B8007208C4
:1009E800B7000030F5000030F4000030F3000A30A2
:1009F800F2003A08F9003908F8003808F700370813
:100A0800F6000A168A15DF240A128A117508831659
:100A18000313BA007408B9007308B8007208B70065
:100A28003708303EFF00410884007F0883138000A8
:100A38000130FF007F08C1070130C402440A031DCA
:100A4800262D272DBA2C3B2D3030FF00831603139B
:100A5800410884007F08831380000130FF007F086D
:100A6800C107FF30BB070318BC0AFF30BC073C08AE
:100A7800803AFF0080307F02031D442D01303B0285
:100A88000318472D482D282D831603134308803A51
:100A9800FF0080307F02031D532D09304202031CE2
:100AA800562D572D5E2D0830FF007F08831603133F
:100AB800C400642D831603134208FF007F08C40096
:100AC8004408A500A6012508C2022608031CC30382
:100AD800C30244080319712D722D7D2D2E30FF009D
:100AE800410884007F08831380000130FF007F08DD
:100AF800C10744080A128A1540210A128A11831272
:100B08000313410883160313AD008312031340082F
:100B180083160313AC00831203133F0883160313D1
:100B2800AB00831203133E0883160313AA002D0893
:100B380083120313AB00831603132C0883120313C9
:100B4800AA00831603132B0883120313A900831624
:100B580003132A0883120313A800831603134008FB
:100B680083120313A700831603133F08831203138A
:100B7800A600831603133E0883120313A5008316E9
:100B880003133D0883120313A4000A128A159F2435
:100B98000A128A11831203132708D4002608D300E7
:100BA8002508D2002408D1000A168A155D260A12E3
:100BB8008A1183120313540883160313B200831295
:100BC8000313530883160313B10083120313520847
:100BD80083160313B00083120313510883160313FB
:100BE800AF00972E4408A50001300310A50DFF3E65
:100BF800031DF92D0310250D693E84000A168A1578
:100C080000200A128A11F2000A168A1500200A1218
:100C18008A11F3000A168A1500200A128A11F400B4
:100C28000A168A1500200A128A11F5003208F900FE
:100C38003108F8003008F7002F08F6000A168A1560
:100C48008C250A128A11750883160313BA007408D2
:100C5800B9007308B8007208B7000030F50000301A
:100C6800F4000030F3000A30F2003A08F9003908BD
:100C7800F8003808F7003708F6000A168A15DF2446
:100C88000A128A11750883160313BA007408B9008A
:100C98007308B8007208B7003708303EFF004108F3
:100CA80084007F08831380000130FF007F08C1079C
:100CB8004408A50001300310A50DFF3E031D5F2E5B
:100CC8000310250D693E84000A168A1500200A12B1
:100CD8008A11F2000A168A1500200A128A11F300F6
:100CE8000A168A1500200A128A11F4000A168A15B3
:100CF80000200A128A11F5003208F9003108F800BC
:100D08003008F7002F08F6000A168A15DF240A12A1
:100D18008A11750883160313B2007408B1007308AA
:100D2800B0007208AF000130C402440A031D9D2EB2
:100D38009E2EF62DB02E3030FF00410884007F082B
:100D4800831380000130FF007F08C107FF30C2070E
:100D58000318C30AFF30C30742084304031DB52E16
:100D6800B62E9F2E7A2F42084304031DBC2EBD2E9B
:100D7800CB2E3208310430042F04031DC42EC52E97
:100D8800CB2E0130C2070318C30A0030C30743083B
:100D9800803A803C031DD22E420844020318D52E07
:100DA800D62EDD2E831603134208FF007F08C400E9
:100DB800F52E831603134308803AA50080302502D8
:100DC800031DE82E440842020318EB2EEC2EF52EE4
:100DD800831603134408A500A6012508C2002608A7
:100DE800C30083160313350836040319FC2EFD2EA1
:100DF8000F2F03303305A50000303405A600250861
:100E080026040319082F092F0F2FFF30B5070318E1
:100E1800B60AFF30B607341F122F132F2E2F4308A0
:100E2800803AA5003608803A2502031D1D2F350893
:100E380042020318202F212F2A2F8316031342085A
:100E4800B5024308031CB603B6022E2F83160313FC
:100E5800B501B6013608803A803C031D352F3508A8
:100E680044020318382F392F452F831603134408DB
:100E7800A500A6012508B5022608031CB603B6027C
:100E8800492F83160313B501B60135083604031933
:100E98004E2F4F2F662F2030FF00410884007F0817
:100EA800831380000130FF007F08C107FF30B507BA
:100EB8000318B60AFF30B60735083604031D652F38
:100EC800662F4F2F03303305A50000303405A600E8
:100ED800250826040319712F722F7A2F2D30FF0051
:100EE800410884007F08831380002B280130A00765
:100EF800FF30200784000A168A1500200A128A117A
:100F0800FF007F08C4004408031D8B2F8C2F1E2868
:100F180041088400831380010800403083120313C2
:100F2800A7000030A6000030A5000030A4008316FA
:100F380003133D0883120313AB00831603133C0805
:100F480083120313AA00831603133B0883120313A7
:100F5800A900831603133A0883120313A8000A1280
:100F68008A159F240A128A11831203132708E9009D
:100F78002608E8002508E7002408E6004030ED00D0
:100F8800A030EC000030EB000030EA000A168A15A9
:100F98003B230A128A118312031369088316031369
:100FA800A30083120313680883160313A200831295
:100FB8000313670883160313A1008312031366083B
:100FC80083160313A0004130A700BC30A6000030F0
:100FD800A5000030A4000A168A1190210A128A116D
:100FE800831603132308BD002208BC002108BB0098
:060FF8002008BA00080009
:1010060083160313CA004A08BE00BF01C001C1010E
:101016004108F5004008F4003F08F3003E08F200DE
:1010260000300A168A1117200A128A1575088316C7
:101036000313C9007408C8007308C7007208C60005
:101046004330A3007F30A2000030A1000030A00092
:10105600403083120313A700A030A6000030A5007D
:101066000030A40083160313490883120313AB0050
:1010760083160313480883120313AA008316031367
:10108600470883120313A900831603134608831225
:101096000313A8000A128A159F240A128A158312BE
:1010A6000313270883160313A700831203132608C6
:1010B60083160313A600831203132508831603134E
:1010C600A50083120313240883160313A4000A162B
:1010D6008A1190210A128A15831603132308C50064
:1010E6002208C4002108C3002008C2004508BD002C
:1010F6004408BC004308BB004208BA0008000310BD
:10110600740D750DFF007F0883120313A5002508D3
:10111600031D8E288F2898280030F5000030F40033
:101126000030F3000030F2003F290310780D790DEE
:10113600FF007F08A4002408031DA228A328A428D2
:101146008F28F417FF30F205FF30F305FF30F40562
:101156000030F505F817FF30F605FF30F705FF30CC
:10116600F8050030F9050030A3000030A200003079
:10117600A1000030A0007F30A502A0302407FA00AD
:101186007A08A5022030FF007F08A4000130FA008B
:101196000310A00DA10DA20DA30DFA0BCB28790803
:1011A6007502031DE02878087402031DE0287708FD
:1011B6007302031DE02876087202031CE328E42864
:1011C600F3287608F2027708031C770FF3027808F3
:1011D600031C780FF4027908031C790FF50220141A
:1011E6000130FA000310F20DF30DF40DF50DFA0BB4
:1011F600F5280130A402031D01290229C928A51FCB
:101206000529062920292508803A9F3E03180C291E
:101216000D290E298F2801300310A30CA20CA10C56
:10122600A00CFF3E031D0F290130FF007F08A50714
:10123600031D1E291F290E29372920302502031CCC
:101246002529262932298F280130FA000310A00DFE
:10125600A10DA20DA30DFA0B29290130A50225081F
:10126600031D3629372927292308F5002208F4000B
:101276002108F3002008F200080083120313D000AF
:10128600D01F46294729F42AD009D00A5008803AA7
:10129600123E031C4F295029382A0A30F800003024
:1012A600F9005008F400F501F41BF5036430F20070
:1012B6000030F3000A168A1533250A128A157308B8
:1012C600FB007208FA000A168A15F4250A128A1516
:1012D600780883120313C20001300310C20DFF3ECB
:1012E600031D70290310420D593E84000A168A1503
:1012F60000200A128A15C3000A168A1500200A124F
:101306008A15C4000A168A1500200A128A15C50015
:101316000A168A1500200A128A15C6004608A70072
:101326004508A6004408A5004308A4006430F80058
:101336000030F9005008FA00FB01FA1BFB030A16FD
:101346008A15F4250A128A15780883120313C70032
:1013560001300310C70DFF3E031DAC290310470DD6
:101366007D3E84000A168A1500200A128A15C800D6
:101376000A168A1500200A128A15C9000A168A1545
:1013860000200A128A15CA000A168A1500200A12B7
:101396008A15CB004B08AB004A08AA004908A900E9
:1013A6004808A8000A128A159F240A128A15831271
:1013B60003132708CF002608CE002508CD002408F1
:1013C600CC000A30F2000030F3005008F400F501BA
:1013D600F41BF5030A168A1533250A128A157208B4
:1013E60083120313C20001300310C20DFF3E031D1A
:1013F600F7290310420D353E84000A168A1500208F
:101406000A128A15C3000A168A1500200A128A15BE
:10141600C4000A168A1500200A128A15C5000A1683
:101426008A1500200A128A15C6004608A700450834
:10143600A6004408A5004308A4004F08AB004E08C8
:10144600AA004D08A9004C08A8000A128A159F2474
:101456000A128A15831203132708C1002608C00042
:101466002508BF002408BE009E2C5008803A753E11
:10147600031C3E2A3F2AC72A0A30F2000030F30036
:101486005008F400F501F41BF5030A168A153325F6
:101496000A128A15720883120313C2000130031060
:1014A600C20DFF3E031D522A0310420D353E840035
:1014B6000A168A1500200A128A15C3000A168A150A
:1014C60000200A128A15C4000A168A1500200A127C
:1014D6008A15C5000A168A1500200A128A15C60042
:1014E6004608A7004508A6004408A5004308A4002E
:1014F6000A30F8000030F9005008FA00FB01FA1B28
:10150600FB030A168A15F4250A128A15780883122F
:101516000313C70001300310C70DFF3E031D8E2ABB
:101526000310470D593E84000A168A1500200A1238
:101536008A15C8000A168A1500200A128A15C900DB
:101546000A168A1500200A128A15CA000A168A1572
:1015560000200A128A15CB004B08AB004A08AA00E5
:101566004908A9004808A8000A128A159F240A12E9
:101576008A15831203132708C1002608C000250810
:10158600BF002408BE009E2C5008C2000130031084
:10159600C20DFF3E031DCA2A0310420D353E8400CC
:1015A6000A168A1500200A128A15C3000A168A1519
:1015B60000200A128A15C4000A168A1500200A128B
:1015C6008A15C5000A168A1500200A128A15C60051
:1015D6004608C1004508C0004408BF004308BE00D5
:1015E6009E2C5008803A123E031CFA2AFB2AE32B53
:1015F6000A30F8000030F9005008F400F501F41B39
:10160600F5036430F2000030F3000A168A1533251C
:101616000A128A157308FB007208FA000A168A1560
:10162600F4250A128A15780883120313C2000130C2
:101636000310C20DFF3E031D1B2B0310420D253E5A
:1016460084000A168A1500200A128A15C3000A1693
:101656008A1500200A128A15C4000A168A15002067
:101666000A128A15C5000A168A1500200A128A155A
:10167600C6004608A7004508A6004408A50043087A
:10168600A4006430F8000030F9005008FA00FB01AD
:10169600FA1BFB030A168A15F4250A128A1578081E
:1016A60083120313C70001300310C70DFF3E031D4D
:1016B600572B0310470D493E84000A168A15002051
:1016C6000A128A15C8000A168A1500200A128A15F7
:1016D600C9000A168A1500200A128A15CA000A16B7
:1016E6008A1500200A128A15CB004B08AB004A085F
:1016F600AA004908A9004808A8000A128A159F24CA
:101706000A128A15831203132708CF002608CE0073
:101716002508CD002408CC000A30F2000030F30082
:101726005008F400F501F41BF5030A168A15332553
:101736000A128A15720883120313C20001300310BD
:10174600C20DFF3E031DA22B0310420D013E840075
:101756000A168A1500200A128A15C3000A168A1567
:1017660000200A128A15C4000A168A1500200A12D9
:101776008A15C5000A168A1500200A128A15C6009F
:101786004608A7004508A6004408A5004308A4008B
:101796004F08AB004E08AA004D08A9004C08A80047
:1017A6000A128A159F240A128A1583120313270820
:1017B600C1002608C0002508BF002408BE009E2CD4
:1017C6005008803A753E031CE92BEA2B722C0A302E
:1017D600F2000030F3005008F400F501F41BF503A5
:1017E6000A168A1533250A128A15720883120313FC
:1017F600C20001300310C20DFF3E031DFD2B031076
:10180600420D013E84000A168A1500200A128A1526
:10181600C3000A168A1500200A128A15C4000A1681
:101826008A1500200A128A15C5000A168A15002094
:101836000A128A15C6004608A7004508A6004408ED
:10184600A5004308A4000A30F8000030F90050084B
:10185600FA00FB01FA1BFB030A168A15F4250A1285
:101866008A15780883120313C70001300310C70DC9
:10187600FF3E031D392C0310470D253E84000A1632
:101886008A1500200A128A15C8000A168A15002031
:101896000A128A15C9000A168A1500200A128A1524
:1018A600CA000A168A1500200A128A15CB004B08B0
:1018B600AB004A08AA004908A9004808A8000A126D
:1018C6008A159F240A128A15831203132708C1005A
:1018D6002608C0002508BF002408BE009E2C50081C
:1018E600C20001300310C20DFF3E031D752C03100C
:1018F600420D013E84000A168A1500200A128A1536
:10190600C3000A168A1500200A128A15C4000A1690
:101916008A1500200A128A15C5000A168A150020A3
:101926000A128A15C6004608C1004508C0004408C8
:10193600BF004308BE00080083120313270880393E
:10194600FF007F08B1002708AC002C07FF007F08C6
:10195600B700A61FAF2CB02CB12C371437080319CB
:10196600B52CB62CC52C370A031DBA2CBB2CC32CA0
:101976000030A7000030A6000030A5000030A4000B
:10198600A617CD2C0030A7000030A6000030A50019
:101996000030A4002B088039FF007F08B1062B0811
:1019A600AC002C07FF007F08B600AA1FDB2CDC2C3E
:1019B600DD2C361436080319E12CE22CF12C360AFC
:1019C600031DE62CE72CEF2C0030AB000030AA00FC
:1019D6000030A9000030A800AA17F92C0030AB008F
:1019E6000030AA000030A9000030A800360803190C
:1019F600FD2CFE2C032D3708031D022D032D0C2D67
:101A06000030A7000030A6000030A5000030A4007A
:101A1600FF2F2408FF007F08F2002A080A168A15FD
:101A260084230A128A15730883120313BD007208F1
:101A3600BC003C08AC00AD01AE01AF012F08B500FB
:101A46002E08B4002D08B3002C08B2003D08AC00E7
:101A5600AD01AE01AF012F08BB002E08BA002D085C
:101A6600B9002C08B8002508FF007F08F2002908F5
:101A76000A168A1584230A128A1573088312031319
:101A8600BD007208BC003C08AC00AD01AE01AF0160
:101A96002C08B2072D0803110318013E0319542D13
:101AA600B3072E0803110318013E03195B2DB40773
:101AB6002F0803110318013E0319622DB5073D08CF
:101AC600AC00AD01AE01AF012C08B8072D0803111B
:101AD6000318013E0319702DB9072E0803110318C8
:101AE600013E0319772DBA072F0803110318013E8B
:101AF60003197E2DBB072608FF007F08F200280881
:101B06000A168A1584230A128A1573088312031388
:101B1600BD007208BC003C08AC00AD01AE01AF01CF
:101B26002C08B2072D0803110318013E03199C2D3A
:101B3600B3072E0803110318013E0319A32DB4079A
:101B46002F0803110318013E0319AA2DB5073D08F6
:101B5600AC00AD01AE01AF012C08B8072D0803118A
:101B66000318013E0319B82DB9072E0803110318EF
:101B7600013E0319BF2DBA072F0803110318013EB2
:101B86000319C62DBB070830AC000310B20DB30D08
:101B9600B40DB50DAC0BC82D2508FF007F08F2006B
:101BA60028080A168A1584230A128A1573088312CE
:101BB6000313BD007208BC003C08AC003D08AD0034
:101BC600AE01AF012C08B2072D0803110318013E20
:101BD6000319EE2DB3072E0803110318013E03194E
:101BE600F52DB4072F0803110318013E0319FC2D28
:101BF600B5072408FF007F08F20029080A168A158F
:101C060084230A128A15730883120313BD0072080F
:101C1600BC003C08AC003D08AD00AE01AF012C088D
:101C2600B2072D0803110318013E03191B2EB30733
:101C36002E0803110318013E0319222EB4072F089C
:101C460003110318013E0319292EB5070830AC000D
:101C56000310B20DB30DB40DB50DAC0B2B2E24082D
:101C6600FF007F08F20028080A168A1584230A1244
:101C76008A15730883120313BD007208BC003C0862
:101C8600AC003D08AD00AE01AF012C08B2072D082F
:101C960003110318013E0319512EB3072E08031131
:101CA6000318013E0319582EB4072F080311031811
:101CB600013E03195F2EB5072508FF007F08F200D5
:101CC6002A080A168A1584230A128A1573088312AB
:101CD6000313BD007208BC003C08AC003D08AD0013
:101CE600AE01AF012C08B8072D0803110318013EF9
:101CF60003197E2EB9072E0803110318013E031996
:101D0600852EBA072F0803110318013E03198C2EDE
:101D1600BB072608FF007F08F20029080A168A1565
:101D260084230A128A15730883120313BD007208EE
:101D3600BC003C08AC003D08AD00AE01AF012C086C
:101D4600B8072D0803110318013E0319AB2EB90776
:101D56002E0803110318013E0319B22EBA072F08E5
:101D660003110318013E0319B92EBB072608FF000D
:101D76007F08F2002A080A168A1584230A128A1591
:101D8600730883120313BD007208BC003C08AC0044
:101D96003D08AD00AE01AF0108300310AC0DAD0D2E
:101DA600AE0DAF0DFF3E031DD02E2C08B8072D0833
:101DB60003110318013E0319E12EB9072E0803117A
:101DC6000318013E0319E82EBA072F08031103185A
:101DD600013E0319EF2EBB073208AC003308AD00F5
:101DE6003408AE003508AF0018300310AF0CAE0C47
:101DF600AD0CAC0CFF3E031DF82E2C08B8072D08C1
:101E060003110318013E0319092FB9072E08031100
:101E16000318013E0319102FBA072F0803110318E0
:101E2600013E0319172FBB070830AC000310B20D93
:101E3600B30DB40DB50DAC0B192F37083607AC0032
:101E4600AD01AD0D2C08823EBC002D080318013EE5
:101E5600FF3EBD004B2F0130AC000310B80DB90D8D
:101E6600BA0DBB0DAC0B302FB51F3A2F3B2F3C2FB5
:101E760038140130AC000310B20DB30DB40DB50D1E
:101E8600AC0B3E2FFF30BC070318BD0AFF30BD0761
:101E9600BA1F4E2F4F2F2E2FB601B51F532F542F7B
:101EA600702FFF303205AC00FF303305AD00FF3038
:101EB6003405AE007F303505AF002F082E042D0403
:101EC6002C040319672F682F6B2FB601B60A702FE3
:101ED600381C6E2F6F2F702F682F36080319742F3A
:101EE600752FA62F0130B807003003180130B90747
:101EF600003003180130BA07003003180130BB0761
:101F06003B1C862F872FA62F3808AC003908AD005A
:101F16003A08AE003B08AF000130B0002F0DAF0C01
:101F2600AE0CAD0CAC0CB00B912F2F08BB002E08DD
:101F3600BA002D08B9002C08B8000130BC070318F8
:101F4600BD0A0030BD073D08803AFF0080307F02A1
:101F5600031DAF2FFF303C02031CB22FB32FBE2F41
:101F66007F3083120313BB008030BA000030B90003
:101F76000030B800F32F831203133D08803AFF00A8
:101F860080307F02031DC92F01303C020318CC2F7D
:101F9600CD2FD92F003083120313BB000030BA00B7
:101FA6000030B9000030B800B101F32F83120313DB
:101FB6003C08FF007F08B700FF30B805FF30B905C1
:101FC6007F30BA050030BB05371CEA2FEB2FEC2F0C
:101FD600BA173708AC0003102C0CFF007F08BB00B3
:101FE6003108FF007F08BB043B08A7003A08A6009B
:101FF6003908A5003808A400080083120313071047
:1020060087140800F300F2013A30730203180C2813
:102016000D28152830307302031C122813281528A2
:10202600F201F20A720C080083120313A0002008C2
:1020360003191E281F283328F51F22282328332892
:102046007209A2007309A3007409A4007509A5000A
:10205600A20A0319A30A0319A40A0319A50A3B280D
:102066007508A5007408A4007308A3007208A200EE
:102076007508740473047204031D422843284C280F
:102086000030F5000030F4000030F3000030F200BC
:10209600D2289630FF007F08A1005E280130FF009D
:1020A6007F08A10701300310A50CA40CA30CA20CF9
:1020B600FF3E031D5628FE302505031D63286428B0
:1020C600512880280130FF007F08A1070130A207B0
:1020D600003003180130A307003003180130A407AD
:1020E600003003180130A50701300310A50CA40C1D
:1020F600A30CA20CFF3E031D7828FF302505031D07
:1021060085288628652892280130A1020130F6002C
:102116000310A20DA30DA40DA50DF60B8B28A41B71
:10212600952896289C280230210203189B289C2873
:10213600872821189F28A028A828FF30A205FF304D
:10214600A3057F30A405FF30A5050310A10C2108C7
:10215600F600F701F801F90118300310F60DF70D36
:10216600F80DF90DFF3E031DB0287608A204770886
:10217600A3047808A4047908A50420080319C42830
:10218600C528CA28F51FC828C928CA28A51725089A
:10219600F5002408F4002308F3002208F2000800E2
:1021A600720883120313A0007308A1007408A2002A
:1021B6000310210D220DFF007F08A8002808031D2B
:1021C600E528E628EF280030F5000030F40000305E
:1021D600F3000030F2008F297608A0007708A100EE
:1021E6007808A2000310210D220DFF007F08A7002A
:1021F6002708031DFF2800290129E628F317FF30C9
:10220600F205FF30F3050030F405F717FF30F60549
:10221600FF30F7050030F8050030A6000030A500B5
:102226000030A4000030A3007F30A80298302707B2
:10223600A0002008A8021830FF007F08A700013080
:10224600A0000310A30DA40DA50DA60DA00B242917
:1022560078087402031D352977087302031D352992
:1022660076087202031C3829392944297608F202B5
:102276007708031C770FF3027808031C780AF40228
:10228600231401300310F20DF30DF40DFF3E031D70
:1022960045290130A702031D512952292229A81FC9
:1022A6005529562970292808803A973E03185C2933
:1022B6005D295E29E62801300310A60CA50CA40CA6
:1022C600A30CFF3E031D5F290130FF007F08A8070E
:1022D600031D6E296F295E29872918302802031CE1
:1022E600752976298229E6280130A0000310A30D5E
:1022F600A40DA50DA60DA00B79290130A80228086A
:10230600031D8629872977292608F5002508F40064
:102316002408F3002308F200080083160313270895
:102326008039FF007F08B1002708A8002807FF00B2
:102336007F08B800A61FA029A129A22938143808A9
:102346000319A629A729B729380A031DAB29AC29E1
:10235600B4290030A7000030A6000030A5000030E8
:10236600A400A617A701BF290030A7000030A600C9
:102376000030A5000030A40023088039FF007F0844
:10238600B1062308A8002807FF007F08B900A21F8E
:10239600CD29CE29CF29391439080319D329D429AF
:1023A600E429390A031DD829D929E1290030A300D7
:1023B6000030A2000030A1000030A000A217A30147
:1023C600EC290030A3000030A2000030A10000304C
:1023D600A0002308220421042004031DF329F42964
:1023E6000D2A0030A7000030A6000030A5000030FE
:1023F600A4008030A6047F30A7043108FF007F08C0
:10240600A7042708A3002608A2002508A10024087F
:10241600A0006C2B3808031D112A122A1B2A003033
:10242600A3000030A2000030A1000030A0006C2BF9
:102436003808A800A9012908AB0039082802AA0013
:10244600031CAB032A087F3EB2002B080318013E8B
:10245600003EB3002708B0002608AF002508AE00EE
:102466002408AD000030A7000030A6000030A5000B
:102476000030A4000030B7000030B6000030B500D0
:102486000030B400B901912A390803194B2A4C2AA5
:102496006C2A0130A8000310AD0DAE0DAF0DB00DC6
:1024A600A80B4E2A0130A8000310A40DA50DA60DF9
:1024B600A70DA80B572AB71F612A622A632A24147C
:1024C6000130A8000310B40DB50DB60DB70DA80B5D
:1024D600652A23083002031D7A2A22082F02031DCB
:1024E6007A2A21082E02031D7A2A20082D02031CAF
:1024F6007D2A7E2A8D2A37172008AD022108031C63
:10250600210FAE022208031C220FAF022308031C70
:10251600230FB0020130FF007F08B9071A303902D5
:10252600031C962A972A472A30082F042E042D04C6
:1025360003199E2A9F2ABE2A3414BE2A0130A800F7
:102546000310A40DA50DA60DA70DA80BA32AB71F52
:10255600AD2AAE2AAF2A24140130A8000310B40D08
:10256600B50DB60DB70DA80BB12AFF30B20703188B
:10257600B30AFF30B307A61FC12AC22AA12AB9018E
:10258600B71FC62AC72AE32AFF303405A800FF3042
:102596003505A900FF303605AA007F303705AB00A8
:1025A6002B082A04290428040319DA2ADB2ADE2A3E
:1025B600B901B90AE32A241CE12AE22AE32ADB2A22
:1025C60039080319E72AE82A192B0130A407003035
:1025D60003180130A507003003180130A6070030A4
:1025E60003180130A707271CF92AFA2A192B2408F1
:1025F600A8002508A9002608AA002708AB00013074
:10260600AC002B0DAB0CAA0CA90CA80CAC0B042B24
:102616002B08A7002A08A6002908A5002808A40058
:102626000130B2070318B30A0030B3073308803A03
:10263600FF0080307F02031D222BFF303202031C75
:10264600252B262B342BFF3083160313B2000030C4
:10265600B3000030A7000030A6000030A50000300F
:10266600A400831603133308803AFF0080307F02EC
:10267600031D3F2B013032020318422B432B502BF4
:1026860083160313B201B3010030A7000030A60081
:102696000030A5000030A400B101831603133208F0
:1026A600FF007F08B800381C592B5A2B5C2BA61745
:1026B600602B7F30FF007F08A6053808A8000310AE
:1026C600280CFF007F08A7003108FF007F08A70439
:1026D600042A080083120313D1006E305102031C32
:1026E600752B762B832C3F30A7000030A6000030D8
:1026F600A5000030A4006430F7000030F80051084F
:10270600C200C3014208F9004308FA000A168A15F6
:1027160049240A168A11770883120313C40001306C
:102726000310C40DFF3E031D932B0310440D7D3E85
:1027360084000A168A1500200A168A11C5000A1690
:102746008A1500200A168A11C6000A168A15002064
:102756000A168A11C7000A168A1500200A168A1157
:10276600C8004808AB004708AA004608A900450863
:10277600A8000A128A159F240A168A1183120313C7
:102786002708D0002608CF002508CE002408CD0053
:102796000A30F7000030F8005108C200C3014208B1
:1027A600F4004308F5006430F2000030F3000A1626
:1027B6008A150F240A168A117308FA007208F9009E
:1027C6000A168A1549240A168A11770883120313F2
:1027D600C40001300310C40DFF3E031DED2B031092
:1027E600440D593E84000A168A1500200A168A11DD
:1027F600C5000A168A1500200A168A11C6000A168E
:102806008A1500200A168A11C7000A168A150020A2
:102816000A168A11C8004808A7004708A6004608F5
:10282600A5004508A4005008AB004F08AA004E08B2
:10283600A9004D08A8000A128A159F240A168A11B3
:10284600831203132708CC002608CB002508CA00EC
:102856002408C9000A30F2000030F3005108C20013
:10286600C3014208F4004308F5000A168A150F242E
:102876000A168A11720883120313C400013003106A
:10288600C40DFF3E031D422C0310440D353E84004B
:102896000A168A1500200A168A11C5000A168A1514
:1028A60000200A168A11C6000A168A1500200A1682
:1028B6008A11C7000A168A1500200A168A11C8004E
:1028C6004808A7004708A6004608A5004508A40032
:1028D6004C08AB004B08AA004A08A9004908A80002
:1028E6000A128A159F240A168A11831203132708CF
:1028F600C1002608C0002508BF002408BE00772DA9
:102906000B305102031C882C892C342D3F30A70034
:102916000030A6000030A5000030A4000A30F70001
:102926000030F8005108C200C3014208F90043080C
:10293600FA000A168A1549240A168A11770883129C
:102946000313C40001300310C40DFF3E031DA62C63
:102956000310440D593E84000A168A1500200A16F3
:102966008A11C5000A168A1500200A168A11C600A1
:102976000A168A1500200A168A11C7000A168A1531
:1029860000200A168A11C8004808AB004708AA00AA
:102996004608A9004508A8000A128A159F240A16A7
:1029A6008A11831203132708D0002608CF002508B2
:1029B600CE002408CD000A30F2000030F3005108A2
:1029C600C200C3014208F4004308F5000A168A153E
:1029D6000F240A168A11720883120313C4000130E9
:1029E6000310C40DFF3E031DF32C0310440D353EAA
:1029F60084000A168A1500200A168A11C5000A16CE
:102A06008A1500200A168A11C6000A168A150020A1
:102A16000A168A11C7000A168A1500200A168A1194
:102A2600C8004808A7004708A6004608A5004508AC
:102A3600A4005008AB004F08AA004E08A9004D0894
:102A4600A8000A128A159F240A168A1183120313F4
:102A56002708C1002608C0002508BF002408BE00BC
:102A6600772D3F30A7000030A6000030A5000030CB
:102A7600A4005108C20001300310C20DFF3E031D21
:102A86003F2D0310420D353E84000A168A1500209C
:102A96000A168A11C3000A168A1500200A168A1118
:102AA600C4000A168A1500200A168A11C5000A16DD
:102AB6008A1500200A168A11C6004608AB0045088A
:102AC600AA004408A9004308A8000A128A159F24F0
:102AD6000A168A11831203132708C1002608C000AC
:102AE6002508BF002408BE000800831203135508FA
:102AF6008039FF007F08E2005508DA005A07FF0018
:102B06007F08E400D41F882D892D8A2D641464085B
:102B160003198E2D8F2D9F2D640A031D932D942D41
:102B26009C2D0030D5000030D4000030D30000309A
:102B3600D200D417D501A72D0030D5000030D4001F
:102B46000030D3000030D20059088039FF007F08DA
:102B5600E300630862060319B12DB22DB32D621787
:102B66005908DA005A07FF007F08E300D81FBC2D7A
:102B7600BD2DBE2D631463080319C22DC32DD32D9D
:102B8600630A031DC72DC82DD02D0030D900003093
:102B9600D8000030D7000030D600D817D901DB2D79
:102BA6000030D9000030D8000030D7000030D60001
:102BB600640863020318E02DE12D252E621FE42D23
:102BC600E52DE92D8030FF007F08E2066408FF004E
:102BD6007F08E5006308FF007F08E4006508FF0042
:102BE6007F08E3005208FF007F08E5005608FF0053
:102BF6007F08D2006508FF007F08D6005308FF0053
:102C06007F08E5005708FF007F08D3006508FF002E
:102C16007F08D7005408FF007F08E5005808FF002A
:102C26007F08D4006508FF007F08D8005508FF001C
:102C36007F08E5005908FF007F08D5006508FF00FA
:102C46007F08D900E5016308DA00DB015B08DD00D7
:102C560064085A02DC00031CDD035D08803AFF00AD
:102C660080307F02031D392E1A305C02031C3C2E75
:102C76003D2E7A2E8312031355085404530452042E
:102C8600031D462E482E0130492E0030FF007F08D6
:102C9600E5000030D5000030D4000030D30000300D
:102CA600D2006308FF007F08E400822E651C5C2EBC
:102CB6005D2E662E6508DA0003105A0C0138FF00F7
:102CC6007F08E500682E0310E50C521C6B2E6C2E57
:102CD6006D2EE5170130DA00550DD50CD40CD30C4A
:102CE600D20CDA0B6F2E0130FF007F08E407831247
:102CF600031363086402031C812E822E592E621B65
:102D0600852E862ED12E6408031D8A2E8B2E942E98
:102D16000030D5000030D4000030D3000030D2009F
:102D2600FF2F5608D207570803110318013E03194F
:102D36009D2ED307580803110318013E0319A42E2C
:102D4600D407590803110318013E0319AB2ED50702
:102D5600551CAE2EAF2E852F651CB22EB32EBC2E63
:102D66006508DA0003105A0C0138FF007F08E500F9
:102D7600BE2E0310E50C521CC12EC22EC32EE51723
:102D86000130DA00550DD50CD40CD30CD20CDA0B6D
:102D9600C52E0130FF007F08E407852F5508803ACD
:102DA600FF005908803A7F02031DE32E580854029B
:102DB600031DE32E57085302031DE32E5608520245
:102DC6000318E62EE72E3F2FFF30DA00FF30DB0038
:102DD600FF30DC00FF30DD005608DE005708DF005C
:102DE6005808E0005908E1005208DE025308031CA7
:102DF600530FFE2EFF2EDF025408031C540F042F20
:102E0600052FE0025508031C550F0A2F0B2FE10270
:102E16005E08DA075F0803185F0F122F132FDB0710
:102E260060080318600F182F192FDC0761080318B4
:102E3600610ADD075D08D5005C08D4005B08D30095
:102E46005A08D2008030FF007F08E206E509E50A4D
:102E56006508031D2F2F302F4D2F0130D20700306C
:102E660003180130D307003003180130D4070030AF
:102E760003180130D5074D2F5608D2025708031CF8
:102E8600570FD3025808031C580FD4025908031CC5
:102E9600590FD5025508540453045204031D542FE8
:102EA600552F812F6508031D592F5A2F812F00306A
:102EB600D5000030D4000030D3000030D200FF2F00
:102EC6000130DA000310D20DD30DD40DD50DDA0B77
:102ED600652FE51F6F2F702F712F5214651C742FED
:102EE600752F782F0314E50D7A2F0310E50D64086E
:102EF60003197E2F7F2F812F0130E402D41F842FE8
:102F0600852F632FE301E51F892F8A2F982F6508E8
:102F16007F3903198F2F902F932FE301E30A982F00
:102F2600521C962F972F982F902F630803199C2FCA
:102F36009D2FD12F0130D207003003180130D3075F
:102F4600003003180130D407003003180130D507CC
:102F5600551CAE2FAF2FD12F5208DA005308DB00D5
:102F66005408DC005508DD000130DE005D0DDD0C87
:102F7600DC0CDB0CDA0CDE0BB92F5D08D5005C0827
:102F8600D4005B08D3005A08D200640A0319CC2F78
:102F9600CD2FD12F0130FF007F08E407640A031903
:102FA600D52FD62FDB2F6408031DDA2FDB2FE92F51
:102FB6000030D5000030D4000030D3000030D200FD
:102FC6006408031DE72FE82FE92FE201641CEC2FAC
:102FD600ED2FEF2FD417F32F7F30FF007F08D40596
:102FE6006408DA0003105A0CFF007F08D500E21FC0
:102FF600FD2FFE2FFF2FD517080018308A00040872
:10300600840A820700340034003480343F340034AC
:1030160000342034413400340034C834423400349F
:1030260000347A344434003440341C34463400349A
:103036005034C3344734003424347434493480342F
:10304600963418344B342034BC34BE344C342834D3
:103056006B346E344E34F934023415345034EC3457
:103066007834AD346034CA34F234493471340034BF
:10307600003480343F34CD34CC34CC343D340A343F
:10308600D73423343C346F34123483343A3417340F
:10309600B734D1343834AC34C53427343734BD343E
:1030A6003734863435349534BF34D63433347734B4
:1030B600CC342B3432345F34703489343034FF34BA
:1030C600E634DB342E340834E5343C341E346034C4
:1030D6004234A2340D3401340034003400340A344E
:1030E6000034003400346434003400340034E834EE
:1030F6000334003400341034273400340034A03450
:10310600863401340034403442340F340034803481
:103116009634983400340034E134F5340534003400
:10312600CA349A343B345234653473346934733454
:10313600743461346E346334653420342534323467
:103146002E343234663420344F3468346D342034AF
:043156000A34003403
:10352000831203131E080800831203139F149F18AD
:103530009A2A9B2A972A0800831203138816EF30D1
:10354000FF007F088805080075087404730472047E
:103550000319AB2AAC2AAE2A8030F5060800F20027
:1035600083160313981CB52AB62AB02A7208831250
:10357000031399000800031083120313061C03149D
:103580000318C32AC72A831203130614CA2A8312F4
:10359000031306100800F200103072020318D12A3B
:1035A000D22ADC2AF030FF007F088312031388053B
:1035B0007208FF007F0888040800F30073080A16E9
:1035C0008A15CB220A168A150A168A1594220A161B
:1035D0008A150A168A1590220A168A15080077306D
:1035E000831203179000831203139011901310138A
:1035F0001016901610151014831603138F130C1445
:103600000800831203130C1C062B072B0E2B8316AA
:103610000313EB01EB0A831203130C100D1E112B85
:10362000122B132B0D1271088A00700E8300FE0EF0
:103630007E0E0900F600F401F5012F2B74087607C1
:10364000F3007308840000080A168A15AF220A16D0
:103650008A150130F4070318F50A0030F5077408DD
:103660007607F3007308840083130008031D392BC9
:103670003A2B1E2B0800803083120313E9066D08D5
:10368000D5006C08D4006B08D3006A08D200690822
:10369000D9006808D8006708D7006608D6000A165F
:1036A0008A1178250A168A15831203135508E90032
:1036B0005408E8005308E7005208E6000800F60145
:1036C000F701721C642B652B6B2B7408F60703182B
:1036D000F70A7508F70701300310F40DF50DFF3EEA
:1036E000031D6C2B01300310F30CF20CFF3E031D85
:1036F000732B72087304031D7E2B7F2B612B7708BD
:10370000F3007608F2000800FA00F601F7017208EB
:10371000F400F5017408F8007508F9007A1C912B83
:10372000922B982B7808F6070318F70A7908F70701
:1037300001300310F80DF90DFF3E031D992B031006
:10374000FA0C7A08031DA52BA62B8E2B7708F30005
:103750007608F2000800FF30831603138700193043
:1037600099001808DF3998001808013898001808DF
:10377000FB399800831203131808203898001808A2
:10378000DF399800180804389800180802389800A3
:10379000831603131808EF3998001808203898008A
:1037A0008312031318088038980008008316031347
:1037B0009501831603178601FE30831603138600D6
:1037C000303090000C301005F2000C307206031DF2
:1037D000EA2BEB2BE22B831603178801FF308316AD
:1037E00003138500C03088000A168A15AB230A1619
:1037F0008A150130831603178500013083120313E5
:103800009F006030831603139F009D0183120317EE
:1038100093016030930093171830940008007208E9
:1038200073040319142C152C442CF601F60A232CCE
:1038300001300310F20DF30DFF3E031D192C013072
:10384000FF007F08F607F31F262C272C182C73087F
:103850007502031D2D2C72087402031C302C312CB0
:10386000372C7208F4027308031CF503F5020130CB
:103870000310F30CF20CFF3E031D382C0130F6024E
:10388000031D432C442C272C7508F3007408F20008
:10389000080083120313A001A1017708780403191B
:1038A000522C532C8A2CA201A20A612C0130031045
:1038B000F70DF80DFF3E031D572C0130FF007F0868
:1038C000A207F81F642C652C562C01300310A00DA4
:1038D000A10DFF3E031D662C78087A02031D722C91
:1038E00077087902031C752C762C7D2C7708F90259
:1038F0007808031CFA03FA02201401300310F80CB4
:10390000F70CFF3E031D7E2C0130A202031D892C03
:103910008A2C652C2108F8002008F70008000030E8
:10392000720583120313A00000307305A1008030DC
:103930007405A2007F307505A3002308220421042A
:103940002004031DA42CA52CAD2C0030F500003064
:10395000F4000030F3000030F20000307605A000E3
:1039600000307705A10080307805A2007F3079050E
:10397000A3002308220421042004031DC02CC12C11
:10398000C92C0030F9000030F8000030F70000309A
:10399000F60079087506031DD72C78087406031DF8
:1039A000D72C77087306031DD72C760872060319E7
:1039B000DA2CDB2CDD2C0310DE2C03140800750838
:1039C0007404730472040319E62CE72C2A2DFB01FE
:1039D000FB0AF72C0130FA000310F20DF30DF40D81
:1039E000F50DFA0BEC2C0130FF007F08FB07F51FEB
:1039F000FA2CFB2CEA2C75087902031D092D74089A
:103A00007802031D092D73087702031D092D720822
:103A10007602031C0C2D0D2D1B2D7208F602730867
:103A2000031C730FF7027408031C740FF802750867
:103A3000031C750FF90201300310F50CF40CF30CA4
:103A4000F20CFF3E031D1C2D0130FB02031D292D2E
:103A50002A2DFB2C7908F5007808F4007708F3008C
:103A60007608F2000800F701F51F372D382D3F2D9D
:103A7000F409F509F40A0319F50AF701F70AF31F27
:103A8000422D432D482DF209F309F20A0319F30AD6
:103A90007208730403194D2D4E2D7D2DF601F60A83
:103AA0005C2D01300310F20DF30DFF3E031D522D6E
:103AB0000130FF007F08F607F31F5F2D602D512DA9
:103AC00073087502031D662D72087402031C692DAC
:103AD0006A2D702D7208F4027308031CF503F502B9
:103AE00001300310F30CF20CFF3E031D712D013069
:103AF000F602031D7C2D7D2D602D77080319812D85
:103B0000822D872DF409F509F40A0319F50A7508C1
:103B1000F3007408F2000800003083120313A300BE
:103B20000030A2000030A1000030A000750874042D
:103B30007304720403199D2D9E2DEB2DA401A40A7C
:103B4000AE2D0130FA000310F20DF30DF40DF50D5A
:103B5000FA0BA32D0130FF007F08A407F51FB12D3C
:103B6000B22DA12D0130FA000310A00DA10DA20D60
:103B7000A30DFA0BB42D75087902031DC92D740825
:103B80007802031DC92D73087702031DC92D720821
:103B90007602031CCC2DCD2DDC2D7208F6027308A5
:103BA000031C730FF7027408031C740FF8027508E6
:103BB000031C750FF902201401300310F50CF40CEE
:103BC000F30CF20CFF3E031DDD2D0130A402031D9A
:103BD000EA2DEB2DB22D2308F5002208F400210870
:103BE000F3002008F200080083120313A101F91F5B
:103BF000FA2DFB2D022EF809F909F80A0319F90A22
:103C0000A101A10AFB1F052E062E0F2EFA09FB09A2
:103C1000FA0A0319FB0A0130FF007F08A106A2017E
:103C2000A301780879040319162E172E4E2EA00131
:103C3000A00A252E01300310F80DF90DFF3E031DDB
:103C40001B2E0130FF007F08A007F91F282E292E08
:103C50001A2E01300310A20DA30DFF3E031D2A2EC4
:103C600079087B02031D362E78087A02031C392E50
:103C70003A2E412E7808FA027908031CFB03FB0256
:103C8000221401300310F90CF80CFF3E031D422EE4
:103C90000130A002031D4D2E4E2E292E210803199E
:103CA000522E532E582EA209A309A20A0319A30AC1
:103CB0002308F9002208F8000800031083120313F8
:103CC000530D540DFF007F08DA005A08031D692EBA
:103CD0006A2E732E0030D4000030D3000030D200A2
:103CE0000030D100D82E5108D5005208D600530814
:103CF000D7005408D8001F300310D80CD70CD60CAE
:103D0000D50CFF3E031D7C2E5508FF007F08D9000F
:103D1000D317FF30D105FF30D205FF30D305003077
:103D2000D4059630DA02DA1F962E972EB12E5A0855
:103D3000803A973E03189D2E9E2E9F2E6A2E0130AC
:103D40000310D40CD30CD20CD10CFF3E031DA02EBB
:103D50000130FF007F08DA07031DAF2EB02E9F2E23
:103D6000C82E20305A02031CB62EB72EC32E6A2E40
:103D70000130D5000310D10DD20DD30DD40DD50BCC
:103D8000BA2E0130DA025A08031DC72EC82EB82EEB
:103D900059080319CC2ECD2ED82ED109D209D3091A
:103DA000D409D10A0319D20A0319D30A0319D40A70
:103DB00008000A168A15D6230A168A150A168A15C5
:103DC000EF220A168A150A168A159C220A168A15E7
:103DD0000A168A1100200A168A15831603136B0827
:103DE000031DF32EF42EED2EEB010A168A15BB22CD
:103DF0000A168A1500300A168A15DD220A168A1557
:103E0000FF007F0883160313EA0001300A168A15A3
:103E1000DD220A168A1502300A168A15DD220A16D4
:103E20008A1503300A168A15DD220A168A158316AA
:103E300003136A080A128A1503200A168A158316C4
:103E400003133D08E9003C08E8003B08E7003A0896
:103E5000E6006908BD006808BC006708BB0066088A
:103E6000BA000A128A1191270A168A1583160313BB
:103E70003D08E5003C08E4003B08E3003A08E200A6
:103E80009130FF007F08A0006508A4006408A3002B
:103E90006308A2006208A100CB300A128A11162022
:103EA0000A168A15CB300A168A151A230A168A159D
:103EB000ED2E0A128A110C280030720583120313AA
:103EC000A00000307305A10080307405A2007F308F
:103ED0007505A3002308220421042004031D712F6B
:103EE000722F7A2F0030F5000030F4000030F3001C
:103EF0000030F20000307605A00000307705A10008
:103F000080307805A2007F307905A30023082204C1
:103F100021042004031D8D2F8E2F962F0030F900D1
:103F20000030F8000030F7000030F600F51F992F40
:103F30009A2FBE2F0030A0000030A1000030A20058
:103F40008030A3007208A0027308031C730FA92F0E
:103F5000AA2FA1027408031C740FAF2FB02FA20266
:103F60007508031C750FB52FB62FA3022308F500A3
:103F70002208F4002108F3002008F200F91FC12FE5
:103F8000C22FE62F0030A0000030A1000030A200B8
:103F90008030A3007608A0027708031C770FD12F8A
:103FA000D22FA1027808031C780FD72FD82FA20296
:103FB0007908031C790FDD2FDE2FA3022308F900F7
:103FC0002208F8002108F7002008F6008030F506E6
:103FD0008030F90679087502031DF82F78087402FD
:103FE000031DF82F77087302031DF82F760872025D
:103FF0000318FB2FFC2FFE2F0310FF2F03140800C4
:04400E00F53FFFFF7C
:00000001FF
