:060000000A128A110C280F
:10000800FE00030EF0000A08F1000A168A154C29B2
:100018000A128A110F2883160317900183010A1602
:100028008A15CE29293084000A168A1100200A125E
:100038008A1183160313A4000A168A1100200A12D3
:100048008A11A5000A168A1100200A128A11A60030
:100058000A168A1100200A128A11A7002708F5003B
:100068002608F4002508F3002408F2002308F90004
:100078002208F8002108F7002008F6000A168A115D
:10008800CF200A128A11031C4A284B2887282530BA
:1000980084000A168A1100200A128A118316031393
:1000A800A4000A168A1100200A128A11A5000A164D
:1000B8008A1100200A128A11A6000A168A11002045
:1000C8000A128A11A7002708F5002608F400250857
:1000D800F3002408F2002308F9002208F800210898
:1000E800F7002008F6000A168A11CF200A128A1192
:1000F80003187F2880288728093083160313C50032
:100108000030C600862C2D3084000A168A11002083
:100118000A128A1183160313A4000A168A110020F2
:100128000A128A11A5000A168A1100200A128A11D9
:10013800A6000A168A1100200A128A11A7002708A9
:10014800F5002608F4002508F3002408F200230827
:10015800F9002208F8002108F7002008F6000A161E
:100168008A11CF200A128A11031CBB28BC28F82840
:10017800293084000A168A1100200A128A1183166F
:100188000313A4000A168A1100200A128A11A50076
:100198000A168A1100200A128A11A6000A168A1164
:1001A80000200A128A11A7002708F5002608F40083
:1001B8002508F3002408F2002308F9002208F800B3
:1001C8002108F7002008F6000A168A11CF200A1223
:1001D8008A110318F028F128F8280A308316031327
:1001E800C5000030C600862C313084000A168A11FA
:1001F80000200A128A1183160313A4000A168A1112
:1002080000200A128A11A5000A168A1100200A1273
:100218008A11A6000A168A1100200A128A11A7005C
:100228002708F5002608F4002508F3002408F20042
:100238002308F9002208F8002108F7002008F60032
:100248000A168A11CF200A128A11031C2C292D297B
:1002580069292D3084000A168A1100200A128A1191
:1002680083160313A4000A168A1100200A128A11A1
:10027800A5000A168A1100200A128A11A6000A1679
:100288008A1100200A128A11A7002708F5002608FB
:10029800F4002508F3002408F2002308F9002208D6
:1002A800F8002108F7002008F6000A168A11CF2066
:1002B8000A128A1103186129622969290B308316E9
:1002C8000313C5000030C600862C353084000A169A
:1002D8008A1100200A128A1183160313A4000A1631
:1002E8008A1100200A128A11A5000A168A11002014
:1002F8000A128A11A6000A168A1100200A128A1107
:10030800A7002708F5002608F4002508F3002408AC
:10031800F2002308F9002208F8002108F700200855
:10032800F6000A168A11CF200A128A11031C9D2989
:100338009E29DA29313084000A168A1100200A120F
:100348008A1183160313A4000A168A1100200A12C0
:100358008A11A5000A168A1100200A128A11A6001D
:100368000A168A1100200A128A11A7002708F50028
:100378002608F4002508F3002408F2002308F900F1
:100388002208F8002108F7002008F6000A168A114A
:10039800CF200A128A110318D229D329DA290C305E
:1003A80083160313C5000030C600862C393084003C
:1003B8000A168A1100200A128A1183160313A40050
:1003C8000A168A1100200A128A11A5000A168A1133
:1003D80000200A128A11A6000A168A1100200A12A1
:1003E8008A11A7002708F5002608F4002508F3005D
:1003F8002408F2002308F9002208F8002108F70071
:100408002008F6000A168A11CF200A128A11031C46
:100418000E2A0F2A4B2A353084000A168A1100202A
:100428000A128A1183160313A4000A168A110020DF
:100438000A128A11A5000A168A1100200A128A11C6
:10044800A6000A168A1100200A128A11A700270896
:10045800F5002608F4002508F3002408F200230814
:10046800F9002208F8002108F7002008F6000A160B
:100478008A11CF200A128A110318432A442A4B2AC8
:100488000D3083160313C5000030C600862C3D309E
:1004980084000A168A1100200A128A11831603138F
:1004A800A4000A168A1100200A128A11A5000A1649
:1004B8008A1100200A128A11A6000A168A11002041
:1004C8000A128A11A7002708F5002608F400250853
:1004D800F3002408F2002308F9002208F800210894
:1004E800F7002008F6000A168A11CF200A128A118E
:1004F800031C7F2A802ABC2A393084000A168A11F4
:1005080000200A128A1183160313A4000A168A11FE
:1005180000200A128A11A5000A168A1100200A1260
:100528008A11A6000A168A1100200A128A11A70049
:100538002708F5002608F4002508F3002408F2002F
:100548002308F9002208F8002108F7002008F6001F
:100558000A168A11CF200A128A110318B42AB52A5A
:10056800BC2A0E3083160313C5000030C600862C43
:10057800413084000A168A1100200A128A11831653
:100588000313A4000A168A1100200A128A11A50072
:100598000A168A1100200A128A11A6000A168A1160
:1005A80000200A128A11A7002708F5002608F4007F
:1005B8002508F3002408F2002308F9002208F800AF
:1005C8002108F7002008F6000A168A11CF200A121F
:1005D8008A11031CF02AF12A2D2B3D3084000A16BB
:1005E8008A1100200A128A1183160313A4000A161E
:1005F8008A1100200A128A11A5000A168A11002001
:100608000A128A11A6000A168A1100200A128A11F3
:10061800A7002708F5002608F4002508F300240899
:10062800F2002308F9002208F8002108F700200842
:10063800F6000A168A11CF200A128A110318252BF0
:10064800262B2D2B0F3083160313C5000030C60050
:10065800862C453084000A168A1100200A128A1155
:1006680083160313A4000A168A1100200A128A119D
:10067800A5000A168A1100200A128A11A6000A1675
:100688008A1100200A128A11A7002708F5002608F7
:10069800F4002508F3002408F2002308F9002208D2
:1006A800F8002108F7002008F6000A168A11CF2062
:1006B8000A128A11031C612B622B9E2B4130840085
:1006C8000A168A1100200A128A1183160313A4003D
:1006D8000A168A1100200A128A11A5000A168A1120
:1006E80000200A128A11A6000A168A1100200A128E
:1006F8008A11A7002708F5002608F4002508F3004A
:100708002408F2002308F9002208F8002108F7005D
:100718002008F6000A168A11CF200A128A11031837
:10072800962B972B9E2B103083160313C500003091
:10073800C600862C493084000A168A1100200A1245
:100748008A1183160313A4000A168A1100200A12BC
:100758008A11A5000A168A1100200A128A11A60019
:100768000A168A1100200A128A11A7002708F50024
:100778002608F4002508F3002408F2002308F900ED
:100788002208F8002108F7002008F6000A168A1146
:10079800CF200A128A11031CD22BD32B0F2C4530E1
:1007A80084000A168A1100200A128A11831603137C
:1007B800A4000A168A1100200A128A11A5000A1636
:1007C8008A1100200A128A11A6000A168A1100202E
:1007D8000A128A11A7002708F5002608F400250840
:1007E800F3002408F2002308F9002208F800210881
:1007F800F7002008F6000A168A11CF200A128A117B
:100808000318072C082C0F2C113083160313C5006E
:100818000030C600862C4D3084000A168A1100204C
:100828000A128A1183160313A4000A168A110020DB
:100838000A128A11A5000A168A1100200A128A11C2
:10084800A6000A168A1100200A128A11A700270892
:10085800F5002608F4002508F3002408F200230810
:10086800F9002208F8002108F7002008F6000A1607
:100878008A11CF200A128A11031C432C442C802C85
:10088800493084000A168A1100200A128A11831638
:100898000313A4000A168A1100200A128A11A5005F
:1008A8000A168A1100200A128A11A6000A168A114D
:1008B80000200A128A11A7002708F5002608F4006C
:1008C8002508F3002408F2002308F9002208F8009C
:1008D8002108F7002008F6000A168A11CF200A120C
:1008E8008A110318782C792C802C12308316031364
:1008F800C5000030C600862C133083160313C500CC
:100908000030C6004508A40001300310A40DFF3EC6
:10091800031D892C0310240D013E84000A168A1138
:1009280000200A128A11A5000A168A1100200A124C
:100938008A11A6000A168A1100200A128A11A70035
:100948000A168A1100200A128A11A80028088312A0
:100958000313B70083160313270883120313B60083
:1009680083160313260883120313B5008316031393
:10097800250883120313B400831603132308831274
:100988000313BB0083160313220883120313BA0050
:1009980083160313210883120313B9008316031364
:1009A800200883120313B8000A168A1585210A1233
:1009B8008A11831203133708D9003608D80035087E
:1009C800D7003408D600831603134508A900013060
:1009D8000310A90DFF3E031DEC2C0310290D013E49
:1009E80084000A168A1100200A128A11AA000A161F
:1009F8008A1100200A128A11AB000A168A110020F7
:100A08000A128A11AC000A168A1100200A128A11E9
:100A1800AD002D0883120313B700831603132C08A7
:100A280083120313B600831603132B0883120313D0
:100A3800B500831603132A0883120313B400831620
:100A480003134508AE0001300310AE0DFF3E031D31
:100A5800282D03102E0D053E84000A168A11002049
:100A68000A128A11AF000A168A1100200A128A1186
:100A7800B0000A168A1100200A128A11B1000A165B
:100A88008A1100200A128A11B20032088312031355
:100A9800BB0083160313310883120313BA008316AD
:100AA8000313300883120313B900831603132F08A6
:100AB80083120313B8000A168A1585210A128A11AF
:100AC800831203133708BF003608BE003508BD007F
:100AD8003408BC00831603134508B3000130031023
:100AE800B30DFF3E031D732D0310330D553E8400D7
:100AF8000A168A1100200A128A11B4000A168A11ED
:100B080000200A128A11B5000A168A1100200A125A
:100B18008A11B6000A168A1100200A128A11B70033
:100B2800370883120313B70083160313360883129A
:100B38000313B60083160313350883120313B50095
:100B480083160313340883120313B40083160313A4
:100B58004508B80001300310B80DFF3E031DAF2D46
:100B68000310380D513E84000A168A1100200A121B
:100B78008A11B9000A168A1100200A128A11BA00CD
:100B88000A168A1100200A128A11BB000A168A1155
:100B980000200A128A11BC003C0883120313BB0010
:100BA800831603133B0883120313BA008316031337
:100BB8003A0883120313B900831603133908831202
:100BC8000313B8000A168A1585210A128A1183129E
:100BD80003133708C3003608C2003508C1003408BB
:100BE800C0000A128A153A200A128A1183120313C6
:100BF8003F08DD003E08DC003D08DB003C08DA0069
:100C08000A128A159F240A128A118312031359089B
:100C180083160313C00083120313580883160313A3
:100C2800BF0083120313570883160313BE008312F1
:100C38000313560883160313BD004508A4000130AA
:100C48000310A40DFF3E031D242E0310240D513E56
:100C580084000A168A1100200A128A11A5000A16B1
:100C68008A1100200A128A11A6000A168A11002089
:100C78000A128A11A7000A168A1100200A128A117C
:100C8800A800280883120313A30083160313270858
:100C980083120313A2008316031326088312031377
:100CA800A10083160313250883120313A0008316DB
:100CB8000313400883120313A700831603133F0886
:100CC80083120313A600831603133E08831203132B
:100CD800A500831603133D0883120313A4000A1208
:100CE8008A1517220A128A118312031323088316FE
:100CF8000313C40083120313220883160313C300CB
:100D080083120313210883160313C20083120313EB
:100D1800200883160313C1004230F5008C30F4001C
:100D28000030F3000030F2004408F9004308F800EE
:100D38004208F7004108F6000A168A11CF200A1265
:100D48008A110318A82EA92EB42E42308316031335
:100D5800C4008C30C3000030C2000030C100D92E5E
:100D6800831603134408F5004308F4004208F3000F
:100D78004108F2003D30F900F530F800C230F700C4
:100D88008F30F6000A168A11CF200A128A1103182A
:100D9800CE2ECF2ED92E3D3083160313C400F53046
:100DA800C300C230C2008F30C10083160313440849
:100DB800A3004308A2004208A1004108A0000800BF
:100DC80083160313CD004708FF007F08F2004D0883
:100DD8000A168A1554220A128A11730883160313F5
:100DE800DB007208DA005B0883120313A100831684
:100DF80003135A0883120313A0000A168A156124E4
:100E08000A128A11B7300A168A15A9210A128A11FC
:100E18008316031348080A168A1565210A128A11CF
:100E2800FF007F0883160313DC005C08CB00CC01AD
:100E38004B0883120313A000831603134C08831274
:100E48000313A1000A168A1561240A128A11A13017
:100E58000A168A15A9210A128A11831603135C0837
:100E68000A168A1564250A128A11831603132308A1
:100E7800D1002208D0002108CF002008CE00510858
:100E8800A3005008A2004F08A1004E08A0000A16AF
:100E98008A1173210A128A11BB300A168A15A921F0
:100EA8000A128A11831603135108A3005008A200DE
:100EB8004F08A1004E08A0005B08A5005A08A4002E
:100EC8000A168A158F260A128A1183160313230815
:100ED800D9002208D8002108D7002008D6005908D0
:100EE800A3005808A2005708A1005608A0000A1637
:100EF8008A1173210A128A11B2300A168A15A92199
:100F08000A128A11831603135908A3005808A2006D
:100F18005708A1005608A0000A168A1192250A123D
:100F28008A11831603132308D5002208D400210848
:100F3800D3002008D2005508F5005408F4005308DF
:100F4800F3005208F2000A168A15E7230A128A11DA
:100F5800730883120313A1007208A0000A168A15E9
:100F680061240A128A11AD300A168A15A9210A12BB
:100F78008A11831603135508CA005408C900530878
:100F8800C8005208C7000800FC3083160313870006
:100F9800193099001808DF399800180801389800A6
:100FA8001808FB3998008312031318082038980092
:100FB8001808DF399800180804389800180802380B
:100FC8009800831603131808EF399800180820387A
:100FD8009800831203131808803898000800F2005C
:100FE80083160313981CF92FFA2FF42F7208831213
:060FF8000313990008003C
:10100000720873040319052806283528F601F60A24
:10101000142801300310F20DF30DFF3E031D0A28C2
:101020000130FF007F08F607F31F1728182809284A
:1010300073087502031D1E2872087402031C212800
:10104000222828287208F4027308031CF503F5020D
:1010500001300310F30CF20CFF3E031D2928013070
:10106000F602031D3428352818287508F300740883
:10107000F20008008312031343088039FF007F0841
:10108000CD004308C4004407FF007F08D400C21FFE
:101090004A284B284C285414540803195028512826
:1010A0006128540A031D552856285E280030C300C5
:1010B0000030C2000030C1000030C000C217C301C0
:1010C00069280030C3000030C2000030C100003089
:1010D000C0003F088039FF007F08CD063F08C400EC
:1010E0004407FF007F08D500BE1F7728782879289D
:1010F0005514550803197D287E288E28550A031D8E
:10110000822883288B280030BF000030BE000030CA
:10111000BD000030BC00BE17BF0196280030BF00E4
:101120000030BE000030BD000030BC003F083E046F
:101130003D043C04031D9D289E28B7280030C300B1
:101140000030C2000030C1000030C0008030C20456
:101150007F30C3044D08FF007F08C3044308BF006D
:101160004208BE004108BD004008BC00162A5408D1
:10117000031DBB28BC28C5280030BF000030BE00BE
:101180000030BD000030BC00162A5408C400C50160
:101190004508C70055084402C600031CC70346089B
:1011A0007F3ECE0047080318013E003ECF004308B3
:1011B000CC004208CB004108CA004008C9000030FA
:1011C000C3000030C2000030C1000030C000003059
:1011D000D3000030D2000030D1000030D000D50163
:1011E0003B2955080319F528F62816290130C400B3
:1011F0000310C90DCA0DCB0DCC0DC40BF82801305E
:10120000C4000310C00DC10DC20DC30DC40B0129D4
:10121000D31F0B290C290D2940140130C4000310E1
:10122000D00DD10DD20DD30DC40B0F293F084C02A8
:10123000031D24293E084B02031D24293D084A02B0
:10124000031D24293C084902031C27292829372982
:1012500053173C08C9023D08031C3D0FCA023E0853
:10126000031C3E0FCB023F08031C3F0FCC02013092
:10127000FF007F08D5071A305502031C4029412979
:10128000F1284C084B044A04490403194829492908
:101290006829501468290130C4000310C00DC10D25
:1012A000C20DC30DC40B4D29D31F572958295929E5
:1012B00040140130C4000310D00DD10DD20DD30D58
:1012C000C40B5B29FF30CE070318CF0AFF30CF07CE
:1012D000C21F6B296C294B29D501D31F7029712995
:1012E0008D29FF305005C400FF305105C500FF3087
:1012F0005205C6007F305305C70047084604450421
:1013000044040319842985298829D501D50A8D2902
:10131000401C8B298C298D29852955080319912971
:101320009229C3290130C007003003180130C107DA
:10133000003003180130C207003003180130C30722
:10134000431CA329A429C3294008C4004108C5009F
:101350004208C6004308C7000130C800470DC70C4B
:10136000C60CC50CC40CC80BAE294708C300460800
:10137000C2004508C1004408C0000130CE07031870
:10138000CF0A0030CF074F08803AFF0080307F023D
:10139000031DCC29FF304E02031CCF29D029DE29A2
:1013A000FF3083120313CE000030CF000030C300A3
:1013B0000030C2000030C1000030C00083120313AF
:1013C0004F08803AFF0080307F02031DE929013079
:1013D0004E020318EC29ED29FA2983120313CE01DA
:1013E000CF010030C3000030C2000030C100003027
:1013F000C000CD01831203134E08FF007F08D40004
:10140000541C032A042A062AC2170A2A7F30FF0026
:101410007F08C2055408C4000310440CFF007F0875
:10142000C3004D08FF007F08C304AE2808008312E4
:10143000031323088039FF007F08B0002308A800A9
:101440002807FF007F08B200A21F272A282A292A7E
:101450003214320803192D2A2E2A3E2A320A031D7D
:10146000322A332A3B2A0030A3000030A200003089
:10147000A1000030A000A217A301462A0030A3005B
:101480000030A2000030A1000030A0002708803901
:10149000FF007F08B100310830060319502A512A95
:1014A000522A30172708A8002807FF007F08B1003C
:1014B000A61F5B2A5C2A5D2A311431080319612AB0
:1014C000622A722A310A031D662A672A6F2A0030AF
:1014D000A7000030A6000030A5000030A400A61729
:1014E000A7017A2A0030A7000030A6000030A5002E
:1014F0000030A4003208310203187F2A802AC42A4F
:10150000301F832A842A882A8030FF007F08B00693
:101510003208FF007F08B3003108FF007F08B200E7
:101520003308FF007F08B1002008FF007F08B300E8
:101530002408FF007F08A0003308FF007F08A400F4
:101540002108FF007F08B3002508FF007F08A100E5
:101550003308FF007F08A5002208FF007F08B300C2
:101560002608FF007F08A2003308FF007F08A600BE
:101570002308FF007F08B3002708FF007F08A300AF
:101580003308FF007F08A700B3013108A800A901B4
:101590002908AB0032082802AA00031CAB032B0861
:1015A000803AFF0080307F02031DD82A1A302A02B9
:1015B000031CDB2ADC2A192B8312031323082204C1
:1015C00021042004031DE52AE72A0130E82A00301F
:1015D000FF007F08B3000030A3000030A2000030FD
:1015E000A1000030A0003108FF007F08B200212BCD
:1015F000331CFB2AFC2A052B3308A8000310280CF7
:101600000138FF007F08B300072B0310B30C201C28
:101610000A2B0B2B0C2BB3170130A800230DA30CA6
:10162000A20CA10CA00CA80B0E2B0130FF007F0810
:10163000B2078312031331083202031C202B212B23
:10164000F82A301B242B252B702B3208031D292B45
:101650002A2B332B0030A3000030A2000030A10061
:101660000030A0009E2C2408A007250803110318B1
:10167000013E03193C2BA107260803110318013E64
:101680000319432BA207270803110318013E03196E
:101690004A2BA307231C4D2B4E2B242C331C512BE0
:1016A000522B5B2B3308A8000310280C0138FF00D5
:1016B0007F08B3005D2B0310B30C201C602B612B43
:1016C000622BB3170130A800230DA30CA20CA10CB0
:1016D000A00CA80B642B0130FF007F08B207242C5C
:1016E0002308803AFF002708803A7F02031D822BDF
:1016F00026082202031D822B25082102031D822BAE
:10170000240820020318852B862BDE2BFF30A8002F
:10171000FF30A900FF30AA00FF30AB002408AC0066
:101720002508AD002608AE002708AF002008AC024F
:101730002108031C210F9D2B9E2BAD022208031CA8
:10174000220FA32BA42BAE022308031C230FA92BCB
:10175000AA2BAF022C08A8072D0803182D0FB12BB8
:10176000B22BA9072E0803182E0FB72BB82BAA07E8
:101770002F0803182F0AAB072B08A3002A08A20082
:101780002908A1002808A0008030FF007F08B006CB
:10179000B309B30A3308031DCE2BCF2BEC2B01303A
:1017A000A007003003180130A107003003180130F2
:1017B000A207003003180130A307EC2B2408A00275
:1017C0002508031C250FA1022608031C260FA202D0
:1017D0002708031C270FA302230822042104200446
:1017E000031DF32BF42B202C3308031DF82BF92BAE
:1017F000202C0030A3000030A2000030A1000030F7
:10180000A0009E2C0130A8000310A00DA10DA20D78
:10181000A30DA80B042CB31F0E2C0F2C102C20147E
:10182000331C132C142C172C0314B30D192C031078
:10183000B30D320803191D2C1E2C202C0130B202CE
:10184000A21F232C242C022CB101B31F282C292CDD
:10185000372C33087F3903192E2C2F2C322CB10151
:10186000B10A372C201C352C362C372C2F2C310864
:1018700003193B2C3C2C702C0130A00700300318BE
:101880000130A107003003180130A207003003180F
:101890000130A307231C4D2C4E2C702C2008A800CF
:1018A0002108A9002208AA002308AB000130AC00DF
:1018B0002B0DAB0CAA0CA90CA80CAC0B582C2B08AC
:1018C000A3002A08A2002908A1002808A000320AC3
:1018D00003196B2C6C2C702C0130FF007F08B207B1
:1018E000320A0319742C752C7A2C3208031D792CBA
:1018F0007A2C882C0030A3000030A2000030A10018
:101900000030A0003208031D862C872C882CB001E3
:10191000321C8B2C8C2C8E2CA217922C7F30FF002B
:101920007F08A2053208A8000310280CFF007F08DA
:10193000A300B01F9C2C9D2C9E2CA3170800831283
:10194000031359088039FF007F08E3005908DE00BF
:101950005E07FF007F08E900D81FAF2CB02CB12C28
:10196000691469080319B52CB62CC52C690A031D26
:10197000BA2CBB2CC32C0030D9000030D80000306A
:10198000D7000030D600D817CD2C0030D900003059
:10199000D8000030D7000030D6005D088039FF0045
:1019A0007F08E3065D08DE005E07FF007F08E800B1
:1019B000DC1FDB2CDC2CDD2C681468080319E12CFF
:1019C000E22CF12C680A031DE62CE72CEF2C0030EA
:1019D000DD000030DC000030DB000030DA00DC1716
:1019E000F92C0030DD000030DC000030DB0000307E
:1019F000DA0068080319FD2CFE2C032D6908031D6D
:101A0000022D032D0C2D0030D9000030D8000030FD
:101A1000D7000030D600FF2F5608FF007F08F200E5
:101A20005C080A168A15F4210A128A1573088312B3
:101A30000313EF007208EE006E08DE00DF01E00124
:101A4000E1016108E7006008E6005F08E5005E0864
:101A5000E4006F08DE00DF01E001E1016108ED0054
:101A60006008EC005F08EB005E08EA005708FF0022
:101A70007F08F2005B080A168A15F4210A128A15FB
:101A8000730883120313EF007208EE006E08DE0085
:101A9000DF01E001E1015E08E4075F0803110318BC
:101AA000013E0319542DE507600803110318013E98
:101AB00003195B2DE607610803110318013E0319A2
:101AC000622DE7076F08DE00DF01E001E1015E083B
:101AD000EA075F0803110318013E0319702DEB0795
:101AE000600803110318013E0319772DEC07610804
:101AF00003110318013E03197E2DED075808FF005E
:101B00007F08F2005A080A168A15F4210A128A156B
:101B1000730883120313EF007208EE006E08DE00F4
:101B2000DF01E001E1015E08E4075F08031103182B
:101B3000013E03199C2DE507600803110318013EBF
:101B40000319A32DE607610803110318013E0319C9
:101B5000AA2DE7076F08DE00DF01E001E1015E0862
:101B6000EA075F0803110318013E0319B82DEB07BC
:101B7000600803110318013E0319BF2DEC0761082B
:101B800003110318013E0319C62DED070830DE00CE
:101B90000310E40DE50DE60DE70DDE0BC82D57082B
:101BA000FF007F08F2005A080A168A15F4210A126B
:101BB0008A15730883120313EF007208EE006E0893
:101BC000DE006F08DF00E001E1015E08E4075F0866
:101BD00003110318013E0319EE2DE50760080311F8
:101BE0000318013E0319F52DE607610803110318D8
:101BF000013E0319FC2DE7075608FF007F08F2009D
:101C00005B080A168A15F4210A128A1573088312D2
:101C10000313EF007208EE006E08DE006F08DF00AD
:101C2000E001E1015E08E4075F0803110318013ECB
:101C300003191B2EE507600803110318013E031961
:101C4000222EE607610803110318013E0319292E0D
:101C5000E7070830DE000310E40DE50DE60DE70DA3
:101C6000DE0B2B2E5608FF007F08F2005A080A16DA
:101C70008A15F4210A128A15730883120313EF00E0
:101C80007208EE006E08DE006F08DF00E001E1017F
:101C90005E08E4075F0803110318013E0319512E83
:101CA000E507600803110318013E0319582EE607E3
:101CB000610803110318013E03195F2EE707570857
:101CC000FF007F08F2005C080A168A15F4210A1248
:101CD0008A15730883120313EF007208EE006E0872
:101CE000DE006F08DF00E001E1015E08EA075F083F
:101CF00003110318013E03197E2EEB076008031140
:101D00000318013E0319852EEC076108031103181F
:101D1000013E03198C2EED075808FF007F08F200E2
:101D20005B080A168A15F4210A128A1573088312B1
:101D30000313EF007208EE006E08DE006F08DF008C
:101D4000E001E1015E08EA075F0803110318013EA4
:101D50000319AB2EEB07600803110318013E0319AA
:101D6000B22EEC07610803110318013E0319B92EC6
:101D7000ED075808FF007F08F2005C080A168A1574
:101D8000F4210A128A15730883120313EF007208F4
:101D9000EE006E08DE006F08DF00E001E1010830B0
:101DA0000310DE0DDF0DE00DE10DFF3E031DD02E13
:101DB0005E08EA075F0803110318013E0319E12ECC
:101DC000EB07600803110318013E0319E82EEC0726
:101DD000610803110318013E0319EF2EED07640893
:101DE000DE006508DF006608E0006708E1001830E3
:101DF0000310E10CE00CDF0CDE0CFF3E031DF82E9F
:101E00005E08EA075F0803110318013E0319092F52
:101E1000EB07600803110318013E0319102FEC07AC
:101E2000610803110318013E0319172FED0708304D
:101E3000DE000310E40DE50DE60DE70DDE0B192FB6
:101E400069086807DE00DF01DF0D5E08823EEE00F4
:101E50005F080318013EFF3EEF004B2F0130DE000C
:101E60000310EA0DEB0DEC0DED0DDE0B302FE71F2F
:101E70003A2F3B2F3C2F6A140130DE000310E40D93
:101E8000E50DE60DE70DDE0B3E2FFF30EE070318E4
:101E9000EF0AFF30EF07EC1F4E2F4F2F2E2FE801D8
:101EA000E71F532F542F702FFF306405DE00FF30E3
:101EB0006505DF00FF306605E0007F306705E10063
:101EC000610860045F045E040319672F682F6B2F9D
:101ED000E801E80A702F6A1C6E2F6F2F702F682F91
:101EE00068080319742F752FA62F0130EA070030F8
:101EF00003180130EB07003003180130EC07003005
:101F000003180130ED076D1C862F872FA62F6A0856
:101F1000DE006B08DF006C08E0006D08E1000130B6
:101F2000E200610DE10CE00CDF0CDE0CE20B912F06
:101F30006108ED006008EC005F08EB005E08EA0055
:101F40000130EE070318EF0A0030EF076F08803A00
:101F5000FF0080307F02031DAF2FFF306E02031C95
:101F6000B22FB32FBE2F7F3083120313ED008030CA
:101F7000EC000030EB000030EA00F32F8312031373
:101F80006F08803AFF0080307F02031DC92F0130A7
:101F90006E020318CC2FCD2FD92F003083120313DC
:101FA000ED000030EC000030EB000030EA00E3010F
:101FB000F32F831203136E08FF007F08E900FF3040
:101FC000EA05FF30EB057F30EC050030ED05691CBC
:101FD000EA2FEB2FEC2FEC176908DE0003105E0CE4
:101FE000FF007F08ED006308FF007F08ED046D0827
:101FF000D9006C08D8006B08D7006A08D600080022
:1020000010308A000408840A820700340034003447
:10201000FA344434003440341C34453400348034C1
:10202000223445340034C03428344534003440343C
:102030003534453400340034483445340034803479
:10204000543445340034C0345A3445340034C03438
:1020500073344534003460348634453400340034FD
:10206000963445340034E034AB34453400348034A5
:10207000D43445340034D034043446340034E034AD
:102080002B344634003400347A3446340034F0348F
:10209000D23446340034C8342F3447340034E83462
:1020A0007D34473400348C34B93447340034003440
:1020B0008C344234003400340C3442340034003464
:1020C000F034413400340034E0344134003400341E
:1020D000C834413400340034A03441340034003476
:1020E00098344134003400349034413400340034A6
:1020F00070344134003400345034413400340034FE
:102100002034413400340034E0344034CD34CC3415
:10211000AC34403400340034803440340034003473
:1021200040344034CD34CC340C34403400340034AA
:10213000C0343F346634663466343F3466346634C3
:10214000E6343E348F34C234F5343D3420344E34DA
:1021500075346D3465347234693471347534653472
:102160002034003420344E3420340A3400342034F7
:102170005234633420340034203452342034003458
:082180002034563420340034F1
:10218E00831203138816EF30FF007F0888050800BE
:10219E000030720583120313A00000307305A100F6
:1021AE0080307405A2007F307505A3002308220439
:1021BE0021042004031DE428E528ED280030F50055
:1021CE000030F4000030F3000030F20000307605ED
:1021DE00A00000307705A10080307805A2007F3086
:1021EE007905A3002308220421042004031D0029DD
:1021FE00012909290030F9000030F8000030F700FD
:10220E000030F600F51F0C290D2931290030A000F1
:10221E000030A1000030A2008030A3007208A0029E
:10222E007308031C730F1C291D29A1027408031CBB
:10223E00740F22292329A2027508031C750F282961
:10224E002929A3022308F5002208F4002108F3002F
:10225E002008F200F91F3429352959290030A00031
:10226E000030A1000030A2008030A3007608A0024A
:10227E007708031C770F44294529A1027808031C0F
:10228E00780F4A294B29A2027908031C790F50298D
:10229E005129A3022308F9002208F8002108F700AB
:1022AE002008F6008030F5068030F90679087502B0
:1022BE00031D6B2978087402031D6B2977087302BE
:1022CE00031D6B297608720203186E296F29712976
:1022DE000310722903140800423083120313D9002D
:1022EE00C830D8000030D7000030D6008316031354
:1022FE00230883120313DD008316031322088312AF
:10230E000313DC0083160313210883120313DB006F
:10231E0083160313200883120313DA000A128A1598
:10232E009F240A168A118312031359088316031366
:10233E00A30083120313580883160313A2008312FB
:10234E000313570883160313A100831203135608B1
:10235E0083160313A0002308F5002208F4002108B9
:10236E00F3002008F2000A168A15E7230A168A11CE
:10237E00730883160313A5007208A4000030F5003D
:10238E000130F4008630F300A030F2002408F6008D
:10239E002508F700F801F9010A168A15F2250A1622
:1023AE008A117208303EFF007F0883160313A600C1
:1023BE0026080A128A11F3270A168A110030F50030
:1023CE000130F4008630F300A030F20083160313C0
:1023DE002408F6002508F700F801F9010A168A15F7
:1023EE00DD240A168A11730883160313A5007208DA
:1023FE00A4001030F2002730F3002508F500240861
:10240E00F4000A168A1593220A168A117208303EB3
:10241E00FF007F0883160313A70027080A128A11EC
:10242E00F3270A168A111030F2002730F3008316B4
:10243E0003132508F5002408F4000A128A1500205B
:10244E000A168A11730883160313A5007208A400D6
:10245E00E830F2000330F3002508F5002408F400FC
:10246E000A168A1593220A168A117208303EFF0048
:10247E007F0883160313A80028080A128A11F3276F
:10248E000A168A11E830F2000330F30083160313A4
:10249E002508F5002408F4000A128A1500200A16F1
:1024AE008A11730883160313A5007208A400643002
:1024BE00F2000030F3002508F5002408F4000A1697
:1024CE008A1593220A168A117208303EFF007F0881
:1024DE0083160313A90029080A128A11F3270A1674
:1024EE008A116430F2000030F300831603132508BE
:1024FE00F5002408F4000A128A1500200A168A1123
:10250E00730883160313A5007208A4000A30F200A4
:10251E000030F3002508F5002408F4000A168A1589
:10252E0093220A168A117208303EFF007F08831626
:10253E000313AA002A080A128A11F3270A168A110F
:10254E000A30F2000030F300831603132508F5005D
:10255E002408F4000A128A1500200A168A1173083C
:10256E0083160313A5007208A4002408303EFF0052
:10257E007F08AB002B080A128A11F3270A168A115C
:10258E0008001D3084000A168A1100200A168A11CE
:10259E0083160313A4000A168A1100200A168A1144
:1025AE00A5000A168A1100200A168A11A6000A161C
:1025BE008A1100200A168A11A7002708F50026089E
:1025CE00F4002508F3002408F2002308F90022087D
:1025DE00F8002108F7002008F6000A168A11CF200D
:1025EE000A168A11031CFC2AFD2A3B2B1930840083
:1025FE000A168A1100200A168A1183160313A400E4
:10260E000A168A1100200A168A11A5000A168A11C6
:10261E0000200A168A11A6000A168A1100200A1630
:10262E008A11A7002708F5002608F4002508F300F4
:10263E002408F2002308F9002208F8002108F70008
:10264E002008F6000A168A11CF200A168A110318DE
:10265E00312B322B3B2B063083160313C500003073
:10266E00C6000A128A11862C213084000A168A119D
:10267E0000200A168A1183160313A4000A168A1163
:10268E0000200A168A11A5000A168A1100200A16C1
:10269E008A11A6000A168A1100200A168A11A700AE
:1026AE002708F5002608F4002508F3002408F20098
:1026BE002308F9002208F8002108F7002008F60088
:1026CE000A168A11CF200A168A11031C6F2B702B43
:1026DE00AC2B1D3084000A168A1100200A168A11AE
:1026EE0083160313A4000A168A1100200A168A11F3
:1026FE00A5000A168A1100200A168A11A6000A16CB
:10270E008A1100200A168A11A7002708F50026084C
:10271E00F4002508F3002408F2002308F90022082B
:10272E00F8002108F7002008F6000A168A11CF20BB
:10273E000A168A110318A42BA52BAC2B073083166F
:10274E000313C5000030C600382B253084000A164E
:10275E008A1100200A168A1183160313A4000A1682
:10276E008A1100200A168A11A5000A168A11002065
:10277E000A168A11A6000A168A1100200A168A1154
:10278E00A7002708F5002608F4002508F300240802
:10279E00F2002308F9002208F8002108F7002008AB
:1027AE00F6000A168A11CF200A168A11031CE02B96
:1027BE00E32B0A128A111628213084000A168A1178
:1027CE0000200A168A1183160313A4000A168A1112
:1027DE0000200A168A11A5000A168A1100200A1670
:1027EE008A11A6000A168A1100200A168A11A7005D
:1027FE002708F5002608F4002508F3002408F20047
:10280E002308F9002208F8002108F7002008F60036
:10281E000A168A11CF200A168A110318172C182CA3
:10282E00E02B083083160313C5000030C600382B8A
:10283E0083160313E200C7016208FF007F08C80079
:10284E0000300A128A11E4260A168A11831603131F
:10285E004A08E6004908E5004808E4004708E30096
:10286E00C701C70A6208FF007F08C80000300A12BD
:10287E008A11E4260A168A11831603134A08EA00FF
:10288E004908E9004808E8004708E700C701620860
:10289E00FF007F08C80001300A128A11E4260A16CA
:1028AE008A11831603134A08EE004908ED00480802
:1028BE00EC004708EB006608F5006508F4006408B4
:1028CE00F3006308F2004230F9008C30F80000305B
:1028DE00F7000030F6000A168A15D7220A168A115A
:1028EE00031C7A2C7B2C852C003083160313E600F8
:1028FE000030E5000030E4000030E30083160313DF
:10290E006A08F5006908F4006808F3006708F20029
:10291E004230F9008C30F8000030F7000030F6003D
:10292E000A168A15D7220A168A11031C9F2CA02C70
:10293E00AA2C003083160313EA000030E9000030A1
:10294E00E8000030E700831603136E08F5006D08EB
:10295E00F4006C08F3006B08F2004230F9008C3082
:10296E00F8000030F7000030F6000A168A15D7225C
:10297E000A168A11031CC42CC52CCF2C00308316CA
:10298E000313EE000030ED000030EC000030EB00E1
:10299E00831603136A08F5006908F4006808F3004B
:1029AE006708F2006608F9006508F8006408F70089
:1029BE006308F6000A168A11CF200A168A11031828
:1029CE00E92CEA2C102D831603136E08F5006D0802
:1029DE00F4006C08F3006B08F2006608F900650855
:1029EE00F8006408F7006308F6000A168A11CF2073
:1029FE000A168A110318042D052D102D83160313A4
:102A0E006608E0006508DF006408DE006308DD008C
:102A1E00912D831603136E08F5006D08F4006C08F3
:102A2E00F3006B08F2006A08F9006908F8006808FC
:102A3E00F7006708F6000A168A11CF200A168A11C7
:102A4E0003182A2D2B2D512D831603136608F5001E
:102A5E006508F4006408F3006308F2006A08F900E0
:102A6E006908F8006808F7006708F6000A168A1168
:102A7E00CF200A168A110318452D462D512D831687
:102A8E0003136A08E0006908DF006808DE006708C3
:102A9E00DD00912D831603136A08F5006908F40012
:102AAE006808F3006708F2006E08F9006D08F80078
:102ABE006C08F7006B08F6000A168A11CF200A166A
:102ACE008A1103186B2D6C2D912D83160313660836
:102ADE00F5006508F4006408F3006308F2006E0860
:102AEE00F9006D08F8006C08F7006B08F6000A167E
:102AFE008A11CF200A168A110318862D872D912D43
:102B0E00831603136E08E0006D08DF006C08DE000C
:102B1E006B08DD000800053084000A168A110020BB
:102B2E000A168A1183160313A4000A168A110020AE
:102B3E000A168A11A5000A168A1100200A168A1191
:102B4E00A6000A168A1100200A168A11A700270865
:102B5E00F5002608F4002508F3002408F2002308E7
:102B6E00F9002208F8002108F7002008F6000A16DE
:102B7E008A11CF200A168A11031CC62DC72DC72D08
:102B8E00093084000A168A1100200A168A1183164B
:102B9E000313A4000A168A1100200A168A11A50032
:102BAE000A168A1100200A168A11A6000A168A1120
:102BBE0000200A168A11A7002708F5002608F4003F
:102BCE002508F3002408F2002308F9002208F80073
:102BDE002108F7002008F6000A168A11CF200A16DF
:102BEE008A11031CFB2DFC2D3A2E053084000A168B
:102BFE008A1100200A168A1183160313A4000A16DE
:102C0E008A1100200A168A11A5000A168A110020C0
:102C1E000A168A11A6000A168A1100200A168A11AF
:102C2E00A7002708F5002608F4002508F30024085D
:102C3E00F2002308F9002208F8002108F700200806
:102C4E00F6000A168A11CF200A168A110318302EA2
:102C5E00312E3A2E013083160313C5000030C60004
:102C6E000A128A11862C0D3084000A168A11002051
:102C7E000A168A1183160313A4000A168A1100205D
:102C8E000A168A11A5000A168A1100200A168A1140
:102C9E00A6000A168A1100200A168A11A700270814
:102CAE00F5002608F4002508F3002408F200230896
:102CBE00F9002208F8002108F7002008F6000A168D
:102CCE008A11CF200A168A11031C6E2E6F2EAB2E80
:102CDE00093084000A168A1100200A168A118316FA
:102CEE000313A4000A168A1100200A168A11A500E1
:102CFE000A168A1100200A168A11A6000A168A11CF
:102D0E0000200A168A11A7002708F5002608F400ED
:102D1E002508F3002408F2002308F9002208F80021
:102D2E002108F7002008F6000A168A11CF200A168D
:102D3E008A110318A32EA42EAB2E02308316031372
:102D4E00C5000030C600372E113084000A168A11D5
:102D5E0000200A168A1183160313A4000A168A117C
:102D6E0000200A168A11A5000A168A1100200A16DA
:102D7E008A11A6000A168A1100200A168A11A700C7
:102D8E002708F5002608F4002508F3002408F200B1
:102D9E002308F9002208F8002108F7002008F600A1
:102DAE000A168A11CF200A168A11031CDF2EE02E76
:102DBE001C2F0D3084000A168A1100200A168A1163
:102DCE0083160313A4000A168A1100200A168A110C
:102DDE00A5000A168A1100200A168A11A6000A16E4
:102DEE008A1100200A168A11A7002708F500260866
:102DFE00F4002508F3002408F2002308F900220845
:102E0E00F8002108F7002008F6000A168A11CF20D4
:102E1E000A168A110318142F152F1C2F0330831630
:102E2E000313C5000030C600372E153084000A1675
:102E3E008A1100200A168A1183160313A4000A169B
:102E4E008A1100200A168A11A5000A168A1100207E
:102E5E000A168A11A6000A168A1100200A168A116D
:102E6E00A7002708F5002608F4002508F30024081B
:102E7E00F2002308F9002208F8002108F7002008C4
:102E8E00F6000A168A11CF200A168A11031C502F3B
:102E9E00512F8D2F113084000A168A1100200A1628
:102EAE008A1183160313A4000A168A1100200A162B
:102EBE008A11A5000A168A1100200A168A11A60088
:102ECE000A168A1100200A168A11A7002708F50093
:102EDE002608F4002508F3002408F2002308F90060
:102EEE002208F8002108F7002008F6000A168A11B9
:102EFE00CF200A168A110318852F862F8D2F0430A6
:102F0E0083160313C5000030C600372E1930840017
:102F1E000A168A1100200A168A1183160313A400BA
:102F2E000A168A1100200A168A11A5000A168A119D
:102F3E0000200A168A11A6000A168A1100200A1607
:102F4E008A11A7002708F5002608F4002508F300CB
:102F5E002408F2002308F9002208F8002108F700DF
:102F6E002008F6000A168A11CF200A168A11031CB1
:102F7E00C12FC42F0A168A11C82A153084000A16CA
:102F8E008A1100200A168A1183160313A4000A164A
:102F9E008A1100200A168A11A5000A168A1100202D
:102FAE000A168A11A6000A168A1100200A168A111C
:102FBE00A7002708F5002608F4002508F3002408CA
:102FCE00F2002308F9002208F8002108F700200873
:102FDE00F6000A168A11CF200A168A110318F82F46
:102FEE00F92FC12F053083160313C5000030C6001C
:022FFE00372E6C
:10321800831203131E080800831203139F149F18B8
:103228001629172913290800031083120313061CF3
:1032380003140318202924298312031306142729A9
:103248008312031306100800F200103072020318EC
:103258002E292F293929F030FF007F088312031304
:1032680088057208FF007F088804080077308312F9
:103278000317900083120313901190131013101664
:10328800901610151014831603138F130C140800CE
:10329800831203130C1C5129522959298316031729
:1032A8009001900A831203130C100D1E5C295D29EE
:1032B8005E290D1271088A00700E8300FE0E7E0EC4
:1032C8000900F30073080A168A1528210A168A15B8
:1032D8000A168A1510210A168A150A168A150C214B
:1032E8000A168A15FF007F08F40080307402031C58
:1032F8007E297F2983297F30FF007F08F400740826
:103308000800803083120313B7063B08A3003A086D
:10331800A2003908A1003808A0003708A70036081D
:10332800A6003508A5003408A4000A128A15172239
:103338000A168A15831203132308B7002208B60059
:103348002108B5002008B4000800F500F301F401D5
:10335800C0297308750784000A168A1100200A1606
:103368008A150A128A11F3270A168A150130F307FB
:103378000318F40A0030F4077308750784000A1666
:103388008A1100200A168A15003A031DCC29CD2976
:10339800AD2908000A168A151B220A168A150A166C
:1033A8008A153A210A168A150A168A11C7200A169A
:1033B8008A15831603171008031DE329E429DD295C
:1033C80090010A168A1518210A168A1500300A165D
:1033D8008A111F240A168A15DD290A128A110C2857
:1033E800FA00F601F7017208F400F5017408F80014
:1033F8007508F9007A1C012A022A082A7808F607B3
:103408000318F70A7908F70701300310F80DF90DCA
:10341800FF3E031D092A0310FA0C7A08031D152A1A
:10342800162AFE297708F3007608F20008008316AA
:1034380003139501831603178601FE3083160313C1
:103448008600303090000C301005F2000C30720607
:10345800031D2F2A302A272A831603178801FF30D5
:10346800831603138500C03088000A128A11C82702
:103478000A168A1501308316031785000130831256
:1034880003139F006030831603139F009D0183126E
:1034980003179301603093009317183094000800C5
:1034A800F500750C83120313031C07100318071487
:1034B800720C031C8710031887147508031D652AEE
:1034C800662A702A7208031D6A2A6B2A702A20301D
:1034D800F200CB30F300922A7508031D742A752A6E
:1034E8007F2A7203031D792A7A2A7F2AF030F20094
:1034F8000A30F300922A7503031D832A842A8E2A30
:103508007208031D882A892A8E2A6C30F20020301E
:10351800F300922AB830F2000B30F3000800F601ED
:10352800F7017208730403199A2A9B2AD22AF80110
:10353800F80AA92A01300310F20DF30DFF3E031D0E
:103548009F2A0130FF007F08F807F31FAC2AAD2A35
:103558009E2A01300310F60DF70DFF3E031DAE2A1B
:1035680073087502031DBA2A72087402031CBD2A67
:10357800BE2AC52A7208F4027308031CF503F50273
:10358800761401300310F30CF20CFF3E031DC62A1B
:103598000130F802031DD12AD22AAD2A7708F30098
:1035A8007608F20008000030720583120313A000A9
:1035B80000307305A10080307405A2007F307505C6
:1035C800A3002308220421042004031DEC2AED2A69
:1035D800F52A0030F5000030F4000030F300003028
:1035E800F20000307605A00000307705A100803099
:1035F8007805A2007F307905A3002308220421045E
:103608002004031D082B092B112B0030F900003072
:10361800F8000030F7000030F60079087506031D41
:103628001F2B78087406031D1F2B77087306031DCC
:103638001F2B760872060319222B232B252B031028
:10364800262B03140800F701F51F2B2B2C2B332BEB
:10365800F409F509F40A0319F50AF701F70AF31F43
:10366800362B372B3C2BF209F309F20A0319F30A1C
:10367800720873040319412B422B712BF601F60AC9
:10368800502B01300310F20DF30DFF3E031D462BA6
:103698000130FF007F08F607F31F532B542B452BEF
:1036A80073087502031D5A2B72087402031C5D2BE4
:1036B8005E2B642B7208F4027308031CF503F502F1
:1036C80001300310F30CF20CFF3E031D652B013093
:1036D800F602031D702B712B542B77080319752BD9
:1036E800762B7B2BF409F509F40A0319F50A7508FA
:1036F800F3007408F2000800F701F31F842B852BF0
:103708008C2BF209F309F20A0319F30AF701F70AF5
:10371800F51F8F2B902B992BF409F509F40A03193F
:10372800F50A0130FF007F08F706F801F901720871
:1037380073040319A02BA12BD82BF601F60AAF2B83
:1037480001300310F20DF30DFF3E031DA52B0130D0
:10375800FF007F08F607F31FB22BB32BA42B013011
:103768000310F80DF90DFF3E031DB42B7308750205
:10377800031DC02B72087402031CC32BC42BCB2B54
:103788007208F4027308031CF503F502781401307B
:103798000310F30CF20CFF3E031DCC2B0130F60294
:1037A800031DD72BD82BB32B77080319DC2BDD2B64
:1037B800E22BF809F909F80A0319F90A7908F3005C
:1037C8007808F20008000310740D750DFF007F08DB
:1037D800FB007B08031DF12BF22BFB2B0030F500BF
:1037E8000030F4000030F3000030F200602C720862
:1037F800F6007308F7007408F8007508F9001F3020
:103808000310F90CF80CF70CF60CFF3E031D042C02
:103818007608FF007F08FA00F417FF30F205FF3042
:10382800F305FF30F4050030F5059630FB02FB1F69
:103838001E2C1F2C392C7B08803A973E0318252C08
:10384800262C272CF22B01300310F50CF40CF30C6A
:10385800F20CFF3E031D282C0130FF007F08FB07F8
:10386800031D372C382C272C502C20307B02031CAE
:103878003E2C3F2C4B2CF22B0130F6000310F20D9E
:10388800F30DF40DF50DF60B422C0130FB027B080D
:10389800031D4F2C502C402C7A080319542C552CFE
:1038A800602CF209F309F409F509F20A0319F30A7D
:1038B8000319F40A0319F50A0800831203132008F0
:1038C800FF007F08A4006430F2000030F3002408F1
:1038D800A200A3012208F4002308F5000A168A159D
:1038E80080230A168A157208303EFF007F0883126B
:1038F8000313A60026080A128A11F3270A168A1546
:103908006430F2000030F300831203132408A2008D
:10391800A3012208F4002308F5000A168A152723B4
:103928000A168A157208FF007F0883120313A40081
:103938000A30F2000030F3002408A200A301220894
:10394800F4002308F5000A168A1580230A168A153A
:103958007208303EFF007F0883120313A700270870
:103968000A128A11F3270A168A150A30F200003063
:10397800F300831203132408A200A3012208F40011
:103988002308F5000A168A1527230A168A157208CD
:10399800FF007F0883120313A4002408303EFF00B1
:1039A8007F08A80028080A128A11F3270A168A1520
:1039B800080083120313A101F91FE32CE42CF12C56
:1039C800F609F709F809F909F60A0319F70A0319B4
:1039D800F80A0319F90AA101A10AF51FF42CF52C1C
:1039E800002DF209F309F409F509F20A0319F30A9B
:1039F8000319F40A0319F50A7508740473047204A8
:103A08000319072D082D4B2DA001A00A182D0130F0
:103A1800FA000310F20DF30DF40DF50DFA0B0D2D50
:103A28000130FF007F08A007F51F1B2D1C2D0B2D53
:103A380075087902031D2A2D74087802031D2A2DA2
:103A480073087702031D2A2D72087602031C2D2D98
:103A58002E2D3C2D7208F6027308031C730FF70213
:103A68007408031C740FF8027508031C750FF9021B
:103A780001300310F50CF40CF30CF20CFF3E031D9F
:103A88003D2D0130A002031D4A2D4B2D1C2D210870
:103A980003194F2D502D5B2DF609F709F809F9097F
:103AA800F60A0319F70A0319F80A0319F90A790833
:103AB800F5007808F4007708F3007608F2000800AB
:103AC80083160313A800433083120313BF0080300A
:103AD800BE000030BD000030BC004030D900A0302E
:103AE800D8000030D7000030D6008316031328080A
:103AF800A400A501A601A7012708F5002608F400DF
:103B08002508F3002408F20000300A168A15442715
:103B18000A168A15750883120313DD007408DC0081
:103B28007308DB007208DA000A128A159F240A1645
:103B38008A15831203135908C3005808C20057088E
:103B4800C1005608C0000A128A153A200A168A15BA
:103B5800831203133F0883160313AC008312031365
:103B68003E0883160313AB00831203133D08831624
:103B78000313AA00831203133C0883160313A90036
:103B88000030F5000030F4000030F3000030F2009F
:103B98002C08F9002B08F8002A08F7002908F60075
:103BA8000A168A11CF200A168A15031CDC2DDD2D72
:103BB800E72D3C3083160313AC002330AB00D7301D
:103BC800AA000A30A900831603132C08A3002B08A7
:103BD800A2002A08A1002908A000080083120313E4
:103BE800A101F51FF82DF92D062EF209F309F409A4
:103BF800F509F20A0319F30A0319F40A0319F50A75
:103C0800A101A10AF91F092E0A2E192EF609F70992
:103C1800F809F909F60A0319F70A0319F80A031942
:103C2800F90A0130FF007F08A1060030A500003026
:103C3800A4000030A3000030A200750874047304C7
:103C480072040319282E292E762EA001A00A392ED7
:103C58000130FA000310F20DF30DF40DF50DFA0B17
:103C68002E2E0130FF007F08A007F51F3C2E3D2EA9
:103C78002C2E0130FA000310A20DA30DA40DA50DE2
:103C8800FA0B3F2E75087902031D542E740878022A
:103C9800031D542E73087702031D542E72087602F2
:103CA800031C572E582E672E7208F6027308031C41
:103CB800730FF7027408031C740FF8027508031CCD
:103CC800750FF902221401300310F50CF40CF30CF3
:103CD800F20CFF3E031D682E0130A002031D752E55
:103CE800762E3D2E210803197A2E7B2E862EA209C8
:103CF800A309A409A509A20A0319A30A0319A40A76
:103D08000319A50A2508F5002408F4002308F30080
:103D18002208F2000800831603132408F20025087D
:103D2800F300F401F50100300A168A1544270A1633
:103D38008A15750883160313AD007408AC00730860
:103D4800AB007208AA00403083120313D900003078
:103D5800D8000030D7000030D6008316031323089C
:103D680083120313DD00831603132208831203133F
:103D7800DC0083160313210883120313DB00831668
:103D88000313200883120313DA000A128A159F24EA
:103D98000A168A15831203135908B7005808B60083
:103DA8005708B5005608B4004030BB00A030BA0030
:103DB8000030B9000030B8000A168A1585210A16A5
:103DC8008A15831203133708BF003608BE0035086A
:103DD800BD003408BC004030D900A030D800003005
:103DE800D7000030D600831603132D08831203135F
:103DF800DD00831603132C0883120313DC008316DB
:103E080003132B0883120313DB00831603132A08FA
:103E180083120313DA000A128A159F240A168A15D8
:103E2800831203135908C3005808C2005708C10079
:103E38005608C0000A128A153A200A168A158312F3
:103E480003133F0883160313A900831203133E08C4
:103E580083160313A800831203133D088316031364
:103E6800A700831203133C0883160313A60029082E
:103E7800A3002808A2002708A1002608A00008001F
:103E880083120313A000200803194B2F4C2F602F17
:103E9800F51F4F2F502F602F7209A2007309A3003E
:103EA8007409A4007509A500A20A0319A30A031935
:103EB800A40A0319A50A682F7508A5007408A400A8
:103EC8007308A3007208A2007508740473047204CE
:103ED800031D6F2F702F792F0030F5000030F4008C
:103EE8000030F3000030F200FF2F9630FF007F080B
:103EF800A1008B2F0130FF007F08A10701300310BC
:103F0800A50CA40CA30CA20CFF3E031D832FFE30AE
:103F18002505031D902F912F7E2FAD2F0130FF0017
:103F28007F08A1070130A207003003180130A3075A
:103F3800003003180130A407003003180130A5072A
:103F480001300310A50CA40CA30CA20CFF3E031D0A
:103F5800A52FFF302505031DB22FB32F922FBF2F9A
:103F68000130A1020130F6000310A20DA30DA40D2B
:103F7800A50DF60BB82FA41BC22FC32FC92F0230D3
:103F880021020318C82FC92FB42F2118CC2FCD2FE9
:103F9800D52FFF30A205FF30A3057F30A405FF30E1
:103FA800A5050310A10C2108F600F701F801F90195
:103FB80018300310F60DF70DF80DF90DFF3E031D2F
:103FC800DD2F7608A2047708A3047808A4047908EA
:103FD800A50420080319F12FF22FF72FF51FF52F4D
:103FE800F62FF72FA5172508F5002408F400230855
:083FF800F3002208F2000800AA
:04400E00F53FFFFF7C
:00000001FF
