:060000000A128A110C280F
:10000800FE00030EF0000A08F1000A128A15112DED
:100018000A128A110F2883120313EC0183010A12B2
:100028008A11142F8312031329088039FF007F08CF
:10003800B3002908AE002E07FF007F08B900A81FEB
:100048002628272828283914390803192C282D2868
:100058003C28390A031D312832283A280030A900E3
:100068000030A8000030A7000030A600A8174428D8
:100078000030A9000030A8000030A7000030A6001A
:100088002D088039FF007F08B3062D08AE002E0723
:10009800FF007F08B800AC1F522853285428381492
:1000A80038080319582859286828380A031D5D2874
:1000B8005E2866280030AD000030AC000030AB0090
:1000C8000030AA00AC1770280030AD000030AC003A
:1000D8000030AB000030AA003808031974287528CE
:1000E8007A283908031D79287A2883280030A9003E
:1000F8000030A8000030A7000030A600762B2608A4
:10010800FF007F08F2002C080A128A154B250A12F4
:100118008A11730883120313BF007208BE003E08D9
:10012800AE00AF01B001B1013108B7003008B60028
:100138002F08B5002E08B4003F08AE00AF01B0018B
:10014800B1013108BD003008BC002F08BB002E08E3
:10015800BA002708FF007F08F2002B080A128A1548
:100168004B250A128A11730883120313BF00720801
:10017800BE003E08AE00AF01B001B1012E08B407C1
:100188002F0803110318013E0319CB28B5073008BF
:1001980003110318013E0319D228B60731080311C9
:1001A8000318013E0319D928B7073F08AE00AF016D
:1001B800B001B1012E08BA072F0803110318013E38
:1001C8000319E728BB07300803110318013E031978
:1001D800EE28BC07310803110318013E0319F5285E
:1001E800BD072808FF007F08F2002A080A128A15AE
:1001F8004B250A128A11730883120313BF00720871
:10020800BE003E08AE00AF01B001B1012E08B40730
:100218002F0803110318013E03191329B5073008E5
:1002280003110318013E03191A29B60731080311EF
:100238000318013E03192129B7073F08AE00AF0193
:10024800B001B1012E08BA072F0803110318013EA7
:1002580003192F29BB07300803110318013E03199E
:100268003629BC07310803110318013E03193D293B
:10027800BD070830AE000310B40DB50DB60DB70DAF
:10028800AE0B3F292708FF007F08F2002A080A1250
:100298008A154B250A128A11730883120313BF00AB
:1002A8007208BE003E08AE003F08AF00B001B101C1
:1002B8002E08B4072F0803110318013E03196529F6
:1002C800B507300803110318013E03196C29B60756
:1002D800310803110318013E03197329B7072608CB
:1002E800FF007F08F2002B080A128A154B250A1214
:1002F8008A11730883120313BF007208BE003E08F8
:10030800AE003F08AF00B001B1012E08B4072F08B6
:1003180003110318013E03199229B5073008031188
:100328000318013E03199929B60731080311031868
:10033800013E0319A029B7070830AE000310B40D19
:10034800B50DB60DB70DAE0BA2292608FF007F0824
:10035800F2002A080A128A154B250A128A11730814
:1003680083120313BF007208BE003E08AE003F08A8
:10037800AF00B001B1012E08B4072F08031103180C
:10038800013E0319C829B507300803110318013EB7
:100398000319CF29B607310803110318013E0319C1
:1003A800D629B7072708FF007F08F2002C080A1291
:1003B8008A154B250A128A11730883120313BF008A
:1003C8007208BE003E08AE003F08AF00B001B101A0
:1003D8002E08BA072F0803110318013E0319F5293F
:1003E800BB07300803110318013E0319FC29BC0799
:1003F800310803110318013E0319032ABD07280811
:10040800FF007F08F2002B080A128A154B250A12F2
:100418008A11730883120313BF007208BE003E08D6
:10042800AE003F08AF00B001B1012E08BA072F088F
:1004380003110318013E0319222ABB0730080311D0
:100448000318013E0319292ABC07310803110318B0
:10045800013E0319302ABD072808FF007F08F20073
:100468002C080A128A154B250A128A11730883125E
:100478000313BF007208BE003E08AE003F08AF007D
:10048800B001B10108300310AE0DAF0DB00DB10DC4
:10049800FF3E031D472A2E08BA072F080311031829
:1004A800013E0319582ABB07300803110318013EFF
:1004B80003195F2ABC07310803110318013E031909
:1004C800662ABD073408AE003508AF003608B0000C
:1004D8003708B10018300310B10CB00CAF0CAE0CDB
:1004E800FF3E031D6F2A2E08BA072F0803110318B1
:1004F800013E0319802ABB07300803110318013E87
:100508000319872ABC07310803110318013E031990
:100518008E2ABD070830AE000310B40DB50DB60D18
:10052800B70DAE0B902A39083807AE00AF01AF0DF2
:100538002E08823EBE002F080318013EFF3EBF0072
:10054800C22A0130AE000310BA0DBB0DBC0DBD0DA3
:10055800AE0BA72AB71FB12AB22AB32A3A14013020
:10056800AE000310B40DB50DB60DB70DAE0BB52A20
:10057800FF30BE070318BF0AFF30BF07BC1FC52ADC
:10058800C62AA52AB801B71FCA2ACB2AE72AFF30EC
:100598003405AE00FF303505AF00FF303605B0003A
:1005A8007F303705B100310830042F042E040319B9
:1005B800DE2ADF2AE22AB801B80AE72A3A1CE52A25
:1005C800E62AE72ADF2A38080319EB2AEC2A1D2B2A
:1005D8000130BA07003003180130BB070030031898
:1005E8000130BC07003003180130BD073D1CFD2A4F
:1005F800FE2A1D2B3A08AE003B08AF003C08B000AD
:100608003D08B1000130B200310DB10CB00CAF0C97
:10061800AE0CB20B082B3108BD003008BC002F0807
:10062800BB002E08BA000130BE070318BF0A00300D
:10063800BF073F08803AFF0080307F02031D262B4A
:10064800FF303E02031C292B2A2B352B7F308312C7
:100658000313BD008030BC000030BB000030BA007E
:100668006A2B831203133F08803AFF0080307F0211
:10067800031D402B01303E020318432B442B502B03
:10068800003083120313BD000030BC000030BB00F3
:100698000030BA00B3016A2B831203133E08FF002F
:1006A8007F08B900FF30BA05FF30BB057F30BC05B5
:1006B8000030BD05391C612B622B632BBC17390830
:1006C800AE0003102E0CFF007F08BD003308FF00AA
:1006D8007F08BD043D08A9003C08A8003B08A70006
:1006E8003A08A60008008312031347088039FF0060
:1006F8007F08D1004708C8004807FF007F08D800D6
:10070800C61F872B882B892B5814580803198D2B43
:100718008E2B9E2B580A031D922B932B9B2B00305C
:10072800C7000030C6000030C5000030C400C6173E
:10073800C701A62B0030C7000030C6000030C50036
:100748000030C40043088039FF007F08D106430801
:10075800C8004807FF007F08D900C21FB42BB52B7B
:10076800B62B591459080319BA2BBB2BCB2B590A92
:10077800031DBF2BC02BC82B0030C3000030C200A4
:100788000030C1000030C000C217C301D32B0030B5
:10079800C3000030C2000030C1000030C000430870
:1007A800420441044004031DDA2BDB2BF42B0030F8
:1007B800C7000030C6000030C5000030C4008030DB
:1007C800C6047F30C7045108FF007F08C7044708E4
:1007D800C3004608C2004508C1004408C000532DA4
:1007E8005808031DF82BF92B022C0030C3000030E9
:1007F800C2000030C1000030C000532D5808C800A6
:10080800C9014908CB0059084802CA00031CCB0398
:100818004A087F3ED2004B080318013E003ED30031
:100828004708D0004608CF004508CE004408CD0050
:100838000030C7000030C6000030C5000030C400DA
:100848000030D7000030D6000030D5000030D4008A
:10085800D901782C59080319322C332C532C013028
:10086800C8000310CD0DCE0DCF0DD00DC80B352C03
:100878000130C8000310C40DC50DC60DC70DC80B47
:100888003E2CD71F482C492C4A2C44140130C80050
:100898000310D40DD50DD60DD70DC80B4C2C43081D
:1008A8005002031D612C42084F02031D612C4108B0
:1008B8004E02031D612C40084D02031C642C652C5C
:1008C800742C57174008CD024108031C410FCE0273
:1008D8004208031C420FCF024308031C430FD002F7
:1008E8000130FF007F08D9071A305902031C7D2CFC
:1008F8007E2C2E2C50084F044E044D040319852CD1
:10090800862CA52C5414A52C0130C8000310C40D46
:10091800C50DC60DC70DC80B8A2CD71F942C952C56
:10092800962C44140130C8000310D40DD50DD60DF3
:10093800D70DC80B982CFF30D2070318D30AFF3005
:10094800D307C61FA82CA92C882CD901D71FAD2CDA
:10095800AE2CCA2CFF305405C800FF305505C9001D
:10096800FF305605CA007F305705CB004B084A04B4
:10097800490448040319C12CC22CC52CD901D90A31
:10098800CA2C441CC82CC92CCA2CC22C59080319BF
:10099800CE2CCF2C002D0130C407003003180130B5
:1009A800C507003003180130C607003003180130AE
:1009B800C707471CE02CE12C002D4408C800450857
:1009C800C9004608CA004708CB000130CC004B0DCF
:1009D800CB0CCA0CC90CC80CCC0BEB2C4B08C700B1
:1009E8004A08C6004908C5004808C4000130D207B3
:1009F8000318D30A0030D3075308803AFF00803029
:100A08007F02031D092DFF305202031C0C2D0D2DF2
:100A18001B2DFF3083120313D2000030D3000030A7
:100A2800C7000030C6000030C5000030C400831283
:100A380003135308803AFF0080307F02031D262DE0
:100A4800013052020318292D2A2D372D8312031342
:100A5800D201D3010030C7000030C6000030C50005
:100A68000030C400D101831203135208FF007F082D
:100A7800D800581C402D412D432DC617472D7F30D7
:100A8800FF007F08C6055808C8000310480CFF007F
:100A98007F08C7005108FF007F08C704EB2B080038
:100AA800443083120313A9007A30A8000030A7004D
:100AB8000030A6004308AD004208AC004108AB0076
:100AC8004008AA000A128A1116200A128A118312F3
:100AD80003132908C3002808C2002708C1002608F4
:100AE800C0004308F5004208F4004108F30040083C
:100AF800F2000A128A150A270A128A117308831249
:100B08000313C5007208C4001030F2002730F30048
:100B18004508F5004408F4000A128A1510260A123E
:100B28008A117208303EFF007F0883120313C70042
:100B380047080A128A15BF240A128A111030F200D7
:100B48002730F300831203134508F5004408F40026
:100B58000A128A15D6250A128A11730883120313FA
:100B6800C5007208C400E830F2000330F3004508FD
:100B7800F5004408F4000A128A1510260A128A1190
:100B88007208303EFF007F0883120313C80048082C
:100B98000A128A15BF240A128A11E830F2000330BB
:100BA800F300831203134508F5004408F4000A1201
:100BB8008A15D6250A128A11730883120313C500F1
:100BC8007208C4006430F2000030F3004508F500F4
:100BD8004408F4000A128A1510260A128A117208AB
:100BE800303EFF007F0883120313C9002E300A121B
:100BF8008A15BF240A128A118312031349080A129C
:100C08008A15BF240A128A116430F2000030F300FA
:100C1800831203134508F5004408F4000A128A15E4
:100C2800D6250A128A11730883120313C5007208A5
:100C3800C4000A30F2000030F3004508F50044080B
:100C4800F4000A128A1510260A128A117208303E18
:100C5800FF007F0883120313CA004A080A128A1584
:100C6800BF240A128A110A30F2000030F3008312FE
:100C780003134508F5004408F4000A128A15D6251E
:100C88000A128A11730883120313C5007208C4007C
:100C98004408303EFF007F08CB004B080A128A1533
:100CA800BF240A128A11080083120313A000200827
:100CB80003195F2E602E742EF51F632E642E742E7A
:100CC8007209A2007309A3007409A4007509A5009C
:100CD800A20A0319A30A0319A40A0319A50A7C2E58
:100CE8007508A5007408A4007308A3007208A20080
:100CF8007508740473047204031D832E842E8D2ECC
:100D08000030F5000030F4000030F3000030F2004D
:100D1800132F9630FF007F08A1009F2E0130FF009F
:100D28007F08A10701300310A50CA40CA30CA20C8A
:100D3800FF3E031D972EFE302505031DA42EA52E6C
:100D4800922EC12E0130FF007F08A1070130A207B3
:100D5800003003180130A307003003180130A4073E
:100D6800003003180130A50701300310A50CA40CAE
:100D7800A30CA20CFF3E031DB92EFF302505031D51
:100D8800C62EC72EA62ED32E0130A1020130F600A2
:100D98000310A20DA30DA40DA50DF60BCC2EA41BBC
:100DA800D62ED72EDD2E023021020318DC2EDD2EA2
:100DB800C82E2118E02EE12EE92EFF30A205FF30C3
:100DC800A3057F30A405FF30A5050310A10C210859
:100DD800F600F701F801F90118300310F60DF70DC8
:100DE800F80DF90DFF3E031DF12E7608A2047708D1
:100DF800A3047808A4047908A50420080319052F7A
:100E0800062F0B2FF51F092F0A2F0B2FA5172508C3
:100E1800F5002408F4002308F3002208F200080073
:100E28000A128A159D250A128A110A128A15FF24A8
:100E38000A128A110A128A11F6270A128A110A124C
:100E48008A15B2240A128A11831203136C08031D2F
:100E58002E2F2F2F282FEC010A128A15CB240A12C5
:100E68008A1100300A128A15ED240A128A11FF002D
:100E78007F0883120313EB0001300A128A15ED2450
:100E88000A128A1102300A128A15ED240A128A11EE
:100E980003300A128A15ED240A128A1111300A1237
:100EA8008A1526250A128A11831203136B08E20099
:100EB800E3016208FA006308FB000A128A15842716
:100EC8000A128A1121300A128A1526250A128A1155
:100ED800831203136B080A128A1554260A128A1100
:100EE800831203135D08EA005C08E9005B08E80068
:100EF8005A08E70001300A128A1526250A128A11B3
:100F0800831203136A08C3006908C2006808C10095
:100F18006708C0000A128A1154250A128A11213062
:100F28000A128A1526250A128A11282F0A128A11EE
:100F38000C28F701F51FA12FA22FA92FF409F509F5
:100F4800F40A0319F50AF701F70AF31FAC2FAD2FBE
:100F5800B22FF209F309F20A0319F30A72087304AB
:100F68000319B72FB82FE72FF601F60AC62F01305D
:100F78000310F20DF30DFF3E031DBC2F0130FF00DF
:100F88007F08F607F31FC92FCA2FBB2F73087502F6
:100F9800031DD02F72087402031CD32FD42FDA2F0D
:100FA8007208F4027308031CF503F50201300310FC
:100FB800F30CF20CFF3E031DDB2F0130F602031D7C
:100FC800E62FE72FCA2F77080319EB2FEC2FF12F05
:100FD800F409F509F40A0319F50A7508F300740809
:100FE800F2000800831203130816DF30FF007F08A1
:040FF8008805080060
:1010000008308A000408840A820700347634613488
:101010006C346534753472342034543465346E3431
:10102000733469346F346E34203400347634613470
:101030006C34653475347234203443346134703424
:101040007434653475347234203400340A34003416
:10195C00831203131E080800831203130710871445
:10196C000800831203139F149F18BD2CBE2CBA2C95
:10197C000800F20083160313981CC52CC62CC02C2F
:10198C0072088312031399000800031083120313C7
:10199C00061C03140318D32CD72C83120313061420
:1019AC00DA2C8312031306100800F20010307202B6
:1019BC000318E12CE22CEC2CF030FF007F08831292
:1019CC00031388057208FF007F0888040800F300E1
:1019DC0073080A128A15DB240A128A150A128A1550
:1019EC00B7240A128A150A128A15AE240A128A150D
:1019FC0008007730831203179000831203139011A1
:101A0C009013101310169016101510148316031340
:101A1C008F130C140800831203130C1C162D172D96
:101A2C001A2DEC01EC0A0C100D1E1D2D1E2D1F2D58
:101A3C000D1271088A00700E8300FE0E7E0E0900D6
:101A4C00F500F301F4013D2D7308750784000A12AB
:101A5C008A1500200A128A150A128A15BF240A1246
:101A6C008A150130F3070318F40A0030F4077308E1
:101A7C00750784000A128A1500200A128A15003A8A
:101A8C00031D492D4A2D2A2D0800FA00F601F701F5
:101A9C007208F400F5017408F8007508F9007A1C56
:101AAC00582D592D5F2D7808F6070318F70A790879
:101ABC00F70701300310F80DF90DFF3E031D602DE3
:101ACC000310FA0C7A08031D6C2D6D2D552D77081B
:101ADC00F3007608F2000800FF308316031387002A
:101AEC00193099001808DF39980018080138980047
:101AFC001808FB3998008312031318082038980033
:101B0C001808DF39980018080438980018080238AB
:101B1C009800831603131808EF399800180820381A
:101B2C009800831203131808803898000800831655
:101B3C0003139501831603178601FE3083160313D6
:101B4C008600303090000C301005F2000C3072061C
:101B5C00031DB12DB22DA92D831603178801FF305B
:101B6C00831603138500C03088000A128A1572256B
:101B7C000A128A150130831603178500013083126F
:101B8C0003139F006030831603139F009D01831283
:101B9C0003179301603093009317183094000800DA
:101BAC00720873040319DB2DDC2D0B2EF601F60ADB
:101BBC00EA2D01300310F20DF30DFF3E031DE02D55
:101BCC000130FF007F08F607F31FED2DEE2DDF2D02
:101BDC0073087502031DF42D72087402031CF72D93
:101BEC00F82DFE2D7208F4027308031CF503F502A0
:101BFC0001300310F30CF20CFF3E031DFF2D0130DE
:101C0C00F602031D0A2E0B2EEE2D7508F300740838
:101C1C00F2000800F601F701720873040319172E7D
:101C2C00182E4F2EF801F80A262E01300310F20D53
:101C3C00F30DFF3E031D1C2E0130FF007F08F8073B
:101C4C00F31F292E2A2E1B2E01300310F60DF70D33
:101C5C00FF3E031D2B2E73087502031D372E7208D1
:101C6C007402031C3A2E3B2E422E7208F4027308A7
:101C7C00031CF503F502761401300310F30CF20C7F
:101C8C00FF3E031D432E0130F802031D4E2E4F2E36
:101C9C002A2E7708F3007608F2000800FB00433088
:101CAC0083120313C3007F30C2000030C100003028
:101CBC00C0004030A900A030A8000030A7000030C0
:101CCC00A6007B08DE00DF01E001E1016108F50000
:101CDC006008F4005F08F3005E08F20000300A129E
:101CEC008A1158260A128A15750883120313AD003F
:101CFC007408AC007308AB007208AA000A128A11AF
:101D0C0016200A128A15831203132908C700280803
:101D1C00C6002708C5002608C4000A128A117723BA
:101D2C000A128A15831203134308DD004208DC00F3
:101D3C004108DB004008DA000800F701F31FA72E6A
:101D4C00A82EAF2EF209F309F20A0319F30AF701D0
:101D5C00F70AF51FB22EB32EBC2EF409F509F40ABE
:101D6C000319F50A0130FF007F08F706F801F901A5
:101D7C00720873040319C32EC42EFB2EF601F60A47
:101D8C00D22E01300310F20DF30DFF3E031DC82EB1
:101D9C000130FF007F08F607F31FD52ED62EC72E75
:101DAC0001300310F80DF90DFF3E031DD72E7308FB
:101DBC007502031DE32E72087402031CE62EE72E37
:101DCC00EE2E7208F4027308031CF503F502781466
:101DDC0001300310F30CF20CFF3E031DEF2E01300B
:101DEC00F602031DFA2EFB2ED62E77080319FF2EB2
:101DFC00002F052FF809F909F80A0319F90A7908CF
:101E0C00F3007808F20008000310740D750DFF0044
:101E1C007F08FB007B08031D142F152F1E2F00308D
:101E2C00F5000030F4000030F3000030F200832F96
:101E3C007208F6007308F7007408F8007508F900CA
:101E4C001F300310F90CF80CF70CF60CFF3E031DB9
:101E5C00272F7608FF007F08FA00F417FF30F205F1
:101E6C00FF30F305FF30F4050030F5059630FB022A
:101E7C00FB1F412F422F5C2F7B08803A973E0318A3
:101E8C00482F492F4A2F152F01300310F50CF40C55
:101E9C00F30CF20CFF3E031D4B2F0130FF007F08AB
:101EAC00FB07031D5A2F5B2F4A2F732F20307B0209
:101EBC00031C612F622F6E2F152F0130F6000310BB
:101ECC00F20DF30DF40DF50DF60B652F0130FB0241
:101EDC007B08031D722F732F632F7A080319772F3A
:101EEC00782F832FF209F309F409F509F20A031983
:101EFC00F30A0319F40A0319F50A08007A08FF001B
:101F0C007F0883120313A2006430F2000030F30048
:101F1C002208A000A1012008F4002108F5000A12F3
:101F2C008A15A3260A128A157208303EFF007F0814
:101F3C0083120313A40024080A128A15BF240A1260
:101F4C008A156430F2000030F30083120313220868
:101F5C00A000A1012008F4002108F5000A128A1142
:101F6C009D270A128A157208FF007F08831203133B
:101F7C00A2000A30F2000030F3002208A000A101F8
:101F8C002008F4002108F5000A128A15A3260A126B
:101F9C008A157208303EFF007F0883120313A500D8
:101FAC0025080A128A15BF240A128A150A30F20073
:101FBC000030F300831203132208A000A1012008B3
:101FCC00F4002108F5000A128A119D270A128A15BD
:101FDC007208FF007F0883120313A2002208303E10
:101FEC00FF007F08A60026080A128A15BF240A12D1
:041FFC008A1508003A
:04400E00F53FFFFF7C
:00000001FF
